{
	"data": {
		"bytecode": {
			"linkReferences": {},
			"object": "60806040526040518060a00160405280600360009054906101000a900473ffffffffffffffffffffffffffffffffffffffff1673ffffffffffffffffffffffffffffffffffffffff1673ffffffffffffffffffffffffffffffffffffffff168152602001600460009054906101000a900473ffffffffffffffffffffffffffffffffffffffff1673ffffffffffffffffffffffffffffffffffffffff1673ffffffffffffffffffffffffffffffffffffffff168152602001600560009054906101000a900473ffffffffffffffffffffffffffffffffffffffff1673ffffffffffffffffffffffffffffffffffffffff1673ffffffffffffffffffffffffffffffffffffffff168152602001600660009054906101000a900473ffffffffffffffffffffffffffffffffffffffff1673ffffffffffffffffffffffffffffffffffffffff1673ffffffffffffffffffffffffffffffffffffffff168152602001600760009054906101000a900473ffffffffffffffffffffffffffffffffffffffff1673ffffffffffffffffffffffffffffffffffffffff1673ffffffffffffffffffffffffffffffffffffffff168152506009906005620001c39291906200059f565b50348015620001d157600080fd5b5060405162005cae38038062005cae8339818101604052810190620001f7919062000665565b81600160006101000a81548173ffffffffffffffffffffffffffffffffffffffff021916908373ffffffffffffffffffffffffffffffffffffffff16021790555080600260006101000a81548173ffffffffffffffffffffffffffffffffffffffff021916908373ffffffffffffffffffffffffffffffffffffffff16021790555060003083833360016040516200028f9062000621565b620002a0969594939291906200081e565b604051809103906000f080158015620002bd573d6000803e3d6000fd5b50600360006101000a81548173ffffffffffffffffffffffffffffffffffffffff021916908373ffffffffffffffffffffffffffffffffffffffff1602179055506001308383336001604051620003149062000621565b6200032596959493929190620008b6565b604051809103906000f08015801562000342573d6000803e3d6000fd5b50600460006101000a81548173ffffffffffffffffffffffffffffffffffffffff021916908373ffffffffffffffffffffffffffffffffffffffff1602179055506002308383336001604051620003999062000621565b620003aa969594939291906200094e565b604051809103906000f080158015620003c7573d6000803e3d6000fd5b50600560006101000a81548173ffffffffffffffffffffffffffffffffffffffff021916908373ffffffffffffffffffffffffffffffffffffffff16021790555060033083833360016040516200041e9062000621565b6200042f96959493929190620009e6565b604051809103906000f0801580156200044c573d6000803e3d6000fd5b50600660006101000a81548173ffffffffffffffffffffffffffffffffffffffff021916908373ffffffffffffffffffffffffffffffffffffffff1602179055506004308383336001604051620004a39062000621565b620004b49695949392919062000a7e565b604051809103906000f080158015620004d1573d6000803e3d6000fd5b50600760006101000a81548173ffffffffffffffffffffffffffffffffffffffff021916908373ffffffffffffffffffffffffffffffffffffffff1602179055506005308383336001604051620005289062000621565b620005399695949392919062000b16565b604051809103906000f08015801562000556573d6000803e3d6000fd5b50600860006101000a81548173ffffffffffffffffffffffffffffffffffffffff021916908373ffffffffffffffffffffffffffffffffffffffff160217905550505062000d96565b82600581019282156200060e579160200282015b828111156200060d5782518260006101000a81548173ffffffffffffffffffffffffffffffffffffffff021916908373ffffffffffffffffffffffffffffffffffffffff16021790555091602001919060010190620005b3565b5b5090506200061d91906200062f565b5090565b613cfa8062001fb483390190565b5b808211156200064a57600081600090555060010162000630565b5090565b6000815190506200065f8162000d7c565b92915050565b600080604083850312156200067f576200067e62000c81565b5b60006200068f858286016200064e565b9250506020620006a2858286016200064e565b9150509250929050565b620006b78162000bbf565b82525050565b620006c88162000bd3565b82525050565b620006d98162000c09565b82525050565b620006ea8162000c1d565b82525050565b620006fb8162000c31565b82525050565b6200070c8162000c45565b82525050565b6200071d8162000c59565b82525050565b6200072e8162000c6d565b82525050565b60006200074360048362000bae565b9150620007508262000c86565b602082019050919050565b60006200076a60048362000bae565b9150620007778262000caf565b602082019050919050565b60006200079160048362000bae565b91506200079e8262000cd8565b602082019050919050565b6000620007b860048362000bae565b9150620007c58262000d01565b602082019050919050565b6000620007df60048362000bae565b9150620007ec8262000d2a565b602082019050919050565b60006200080660048362000bae565b9150620008138262000d53565b602082019050919050565b600061010082019050620008366000830189620006ce565b620008456020830188620006ac565b620008546040830187620006ac565b620008636060830186620006ac565b818103608083015262000876816200075b565b905081810360a08301526200088b816200075b565b90506200089c60c0830185620006ac565b620008ab60e0830184620006bd565b979650505050505050565b600061010082019050620008ce6000830189620006df565b620008dd6020830188620006ac565b620008ec6040830187620006ac565b620008fb6060830186620006ac565b81810360808301526200090e81620007a9565b905081810360a08301526200092381620007a9565b90506200093460c0830185620006ac565b6200094360e0830184620006bd565b979650505050505050565b600061010082019050620009666000830189620006f0565b620009756020830188620006ac565b620009846040830187620006ac565b620009936060830186620006ac565b8181036080830152620009a681620007f7565b905081810360a0830152620009bb81620007f7565b9050620009cc60c0830185620006ac565b620009db60e0830184620006bd565b979650505050505050565b600061010082019050620009fe600083018962000701565b62000a0d6020830188620006ac565b62000a1c6040830187620006ac565b62000a2b6060830186620006ac565b818103608083015262000a3e8162000734565b905081810360a083015262000a538162000734565b905062000a6460c0830185620006ac565b62000a7360e0830184620006bd565b979650505050505050565b60006101008201905062000a96600083018962000712565b62000aa56020830188620006ac565b62000ab46040830187620006ac565b62000ac36060830186620006ac565b818103608083015262000ad68162000782565b905081810360a083015262000aeb8162000782565b905062000afc60c0830185620006ac565b62000b0b60e0830184620006bd565b979650505050505050565b60006101008201905062000b2e600083018962000723565b62000b3d6020830188620006ac565b62000b4c6040830187620006ac565b62000b5b6060830186620006ac565b818103608083015262000b6e81620007d0565b905081810360a083015262000b8381620007d0565b905062000b9460c0830185620006ac565b62000ba360e0830184620006bd565b979650505050505050565b600082825260208201905092915050565b600062000bcc8262000bdf565b9050919050565b60008115159050919050565b600073ffffffffffffffffffffffffffffffffffffffff82169050919050565b6000819050919050565b600062000c168262000bff565b9050919050565b600062000c2a8262000bff565b9050919050565b600062000c3e8262000bff565b9050919050565b600062000c528262000bff565b9050919050565b600062000c668262000bff565b9050919050565b600062000c7a8262000bff565b9050919050565b600080fd5b7ff09f918f00000000000000000000000000000000000000000000000000000000600082015250565b7ff09f98a100000000000000000000000000000000000000000000000000000000600082015250565b7ff09f929a00000000000000000000000000000000000000000000000000000000600082015250565b7ff09f918e00000000000000000000000000000000000000000000000000000000600082015250565b7ff09f8e9f00000000000000000000000000000000000000000000000000000000600082015250565b7ff09f918d00000000000000000000000000000000000000000000000000000000600082015250565b62000d878162000bbf565b811462000d9357600080fd5b50565b61120e8062000da66000396000f3fe608060405234801561001057600080fd5b50600436106100415760003560e01c80630472f418146100465780631baac9601461006457806386c279a914610094575b600080fd5b61004e6100b0565b60405161005b9190610be5565b60405180910390f35b61007e6004803603810190610079919061089d565b6102ce565b60405161008b9190610c5b565b60405180910390f35b6100ae60048036038101906100a9919061084a565b610396565b005b6100b8610779565b6040518060a0016040528060096000600581106100d8576100d761104f565b5b0160009054906101000a900473ffffffffffffffffffffffffffffffffffffffff1673ffffffffffffffffffffffffffffffffffffffff1673ffffffffffffffffffffffffffffffffffffffff16815260200160096001600581106101405761013f61104f565b5b0160009054906101000a900473ffffffffffffffffffffffffffffffffffffffff1673ffffffffffffffffffffffffffffffffffffffff1673ffffffffffffffffffffffffffffffffffffffff16815260200160096002600581106101a8576101a761104f565b5b0160009054906101000a900473ffffffffffffffffffffffffffffffffffffffff1673ffffffffffffffffffffffffffffffffffffffff1673ffffffffffffffffffffffffffffffffffffffff16815260200160096003600581106102105761020f61104f565b5b0160009054906101000a900473ffffffffffffffffffffffffffffffffffffffff1673ffffffffffffffffffffffffffffffffffffffff1673ffffffffffffffffffffffffffffffffffffffff16815260200160096004600581106102785761027761104f565b5b0160009054906101000a900473ffffffffffffffffffffffffffffffffffffffff1673ffffffffffffffffffffffffffffffffffffffff1673ffffffffffffffffffffffffffffffffffffffff16815250905090565b6000600982600581106102e4576102e361104f565b5b0160009054906101000a900473ffffffffffffffffffffffffffffffffffffffff1673ffffffffffffffffffffffffffffffffffffffff166370a08231846040518263ffffffff1660e01b815260040161033e9190610b72565b60206040518083038186803b15801561035657600080fd5b505afa15801561036a573d6000803e3d6000fd5b505050506040513d601f19601f8201168201806040525081019061038e9190610926565b905092915050565b80600081101580156103a9575060048111155b6103e8576040517f08c379a00000000000000000000000000000000000000000000000000000000081526004016103df90610c1b565b60405180910390fd5b838073ffffffffffffffffffffffffffffffffffffffff163373ffffffffffffffffffffffffffffffffffffffff161480610428575061042781610483565b5b610467576040517f08c379a000000000000000000000000000000000000000000000000000000000815260040161045e90610c3b565b60405180910390fd5b610472858585610635565b61047c84866106e1565b5050505050565b6000807f4b80742de2bfc4e96c4646a1a3ab0d953cefc439a036841c29ce43fb2653ec7d7f82acb3630321a1f0eba31ed50a758feb535243577c1a79ae55bed8ca03e226ec600060f01b3360601b6040516020016104e49493929190610b24565b604051602081830303815290604052905060008373ffffffffffffffffffffffffffffffffffffffff166354f6127f8361051d90610f11565b6040518263ffffffff1660e01b81526004016105399190610c00565b60006040518083038186803b15801561055157600080fd5b505afa158015610565573d6000803e3d6000fd5b505050506040513d6000823e3d601f19601f8201168201806040525081019061058e91906108dd565b9050600081601e815181106105a6576105a561104f565b5b602001015160f81c60f81b82601f815181106105c5576105c461104f565b5b602001015160f81c60f81b6040516020016105e1929190610af8565b6040516020818303038152906040526105f990610eaa565b60f01c9050603060208216601083166106129190610d36565b61ffff1614156106285760019350505050610630565b600093505050505b919050565b600981600581106106495761064861104f565b5b0160009054906101000a900473ffffffffffffffffffffffffffffffffffffffff1673ffffffffffffffffffffffffffffffffffffffff1663713992fa84846001806040518563ffffffff1660e01b81526004016106aa9493929190610b8d565b600060405180830381600087803b1580156106c457600080fd5b505af11580156106d8573d6000803e3d6000fd5b50505050505050565b600860009054906101000a900473ffffffffffffffffffffffffffffffffffffffff1673ffffffffffffffffffffffffffffffffffffffff1663713992fa82846001806040518563ffffffff1660e01b81526004016107439493929190610b8d565b600060405180830381600087803b15801561075d57600080fd5b505af1158015610771573d6000803e3d6000fd5b505050505050565b6040518060a00160405280600590602082028036833780820191505090505090565b60006107ae6107a984610c9b565b610c76565b9050828152602081018484840111156107ca576107c96110dc565b5b6107d5848285610f8a565b509392505050565b6000813590506107ec816111aa565b92915050565b600082601f830112610807576108066110d7565b5b815161081784826020860161079b565b91505092915050565b60008135905061082f816111c1565b92915050565b600081519050610844816111c1565b92915050565b600080600060608486031215610863576108626110e6565b5b6000610871868287016107dd565b9350506020610882868287016107dd565b925050604061089386828701610820565b9150509250925092565b600080604083850312156108b4576108b36110e6565b5b60006108c2858286016107dd565b92505060206108d385828601610820565b9150509250929050565b6000602082840312156108f3576108f26110e6565b5b600082015167ffffffffffffffff811115610911576109106110e1565b5b61091d848285016107f2565b91505092915050565b60006020828403121561093c5761093b6110e6565b5b600061094a84828501610835565b91505092915050565b600061095f838361096b565b60208301905092915050565b61097481610d6e565b82525050565b61098381610d6e565b82525050565b61099281610ce6565b61099c8184610d09565b92506109a782610ccc565b8060005b838110156109d85781516109bf8782610953565b96506109ca83610cfc565b9250506001810190506109ab565b505050505050565b6109e981610d80565b82525050565b610a006109fb82610d8c565b610fee565b82525050565b610a17610a1282610de4565b611002565b82525050565b610a2e610a2982610db8565b610ff8565b82525050565b610a3d81610e10565b82525050565b610a54610a4f82610e1a565b61100c565b82525050565b610a6b610a6682610e46565b611016565b82525050565b610a7a81610f78565b82525050565b6000610a8d602f83610d25565b9150610a9882611109565b604082019050919050565b6000610ab0603183610d25565b9150610abb82611158565b604082019050919050565b6000610ad3600083610d14565b9150610ade826111a7565b600082019050919050565b610af281610ea0565b82525050565b6000610b0482856109ef565b600182019150610b1482846109ef565b6001820191508190509392505050565b6000610b308287610a5a565b600682019150610b408286610a43565b600482019150610b508285610a1d565b600282019150610b608284610a06565b60148201915081905095945050505050565b6000602082019050610b87600083018461097a565b92915050565b600060a082019050610ba2600083018761097a565b610baf602083018661097a565b610bbc6040830185610a71565b610bc960608301846109e0565b8181036080830152610bda81610ac6565b905095945050505050565b600060a082019050610bfa6000830184610989565b92915050565b6000602082019050610c156000830184610a34565b92915050565b60006020820190508181036000830152610c3481610a80565b9050919050565b60006020820190508181036000830152610c5481610aa3565b9050919050565b6000602082019050610c706000830184610ae9565b92915050565b6000610c80610c91565b9050610c8c8282610fbd565b919050565b6000604051905090565b600067ffffffffffffffff821115610cb657610cb561107e565b5b610cbf826110eb565b9050602081019050919050565b6000819050919050565b6000819050602082019050919050565b600060059050919050565b600081519050919050565b6000602082019050919050565b600081905092915050565b600082825260208201905092915050565b600082825260208201905092915050565b6000610d4182610e72565b9150610d4c83610e72565b92508261ffff03821115610d6357610d62611020565b5b828201905092915050565b6000610d7982610e80565b9050919050565b60008115159050919050565b60007fff0000000000000000000000000000000000000000000000000000000000000082169050919050565b60007fffff00000000000000000000000000000000000000000000000000000000000082169050919050565b60007fffffffffffffffffffffffffffffffffffffffff00000000000000000000000082169050919050565b6000819050919050565b60007fffffffff0000000000000000000000000000000000000000000000000000000082169050919050565b60007fffffffffffff000000000000000000000000000000000000000000000000000082169050919050565b600061ffff82169050919050565b600073ffffffffffffffffffffffffffffffffffffffff82169050919050565b6000819050919050565b6000610eb582610cf1565b82610ebf84610cd6565b9050610eca816110ad565b92506002821015610f0a57610f057fffff000000000000000000000000000000000000000000000000000000000000836002036008026110fc565b831692505b5050919050565b6000610f1c82610cf1565b82610f2684610cd6565b9050610f31816110c2565b92506020821015610f7157610f6c7fffffffffffffffffffffffffffffffffffffffffffffffffffffffffffffffff836020036008026110fc565b831692505b5050919050565b6000610f8382610ea0565b9050919050565b60005b83811015610fa8578082015181840152602081019050610f8d565b83811115610fb7576000848401525b50505050565b610fc6826110eb565b810181811067ffffffffffffffff82111715610fe557610fe461107e565b5b80604052505050565b6000819050919050565b6000819050919050565b6000819050919050565b6000819050919050565b6000819050919050565b7f4e487b7100000000000000000000000000000000000000000000000000000000600052601160045260246000fd5b7f4e487b7100000000000000000000000000000000000000000000000000000000600052603260045260246000fd5b7f4e487b7100000000000000000000000000000000000000000000000000000000600052604160045260246000fd5b60006110b98251610db8565b80915050919050565b60006110ce8251610e10565b80915050919050565b600080fd5b600080fd5b600080fd5b600080fd5b6000601f19601f8301169050919050565b600082821b905092915050565b7f5468652070726f7669646564206e756d62657220686173206e6f2073796d626f60008201527f6c20746f20726570726573656e742e0000000000000000000000000000000000602082015250565b7f546865206d73672e73656e64657220646f65736e27742068617665207468652060008201527f6e6563657373617279207269676874732e000000000000000000000000000000602082015250565b50565b6111b381610d6e565b81146111be57600080fd5b50565b6111ca81610ea0565b81146111d557600080fd5b5056fea2646970667358221220e76683ca04b983285b4b81a3355b58c7ead9a62da016e28b1379f6d3bbc9ef3364736f6c6343000806003360806040523480156200001157600080fd5b5060405162003cfa38038062003cfa833981810160405281019062000037919062000531565b838383838383838062000055816200023260201b62000f7a1760201c565b50620000c57feafec4d89fa9619884b60000a4d96624a38f7ac2d8d9a604ecf07c12c77e480c60001b6040518060400160405280600481526020017fa4d96624000000000000000000000000000000000000000000000000000000008152506200033a60201b620010791760201c565b620000ff7fdeba1e292f8ba88238e10ab3c7f88bd4be4fac56cad5194b6ecceaf653468af160001b846200033a60201b620010791760201c565b620001397f2f0a68ab07768e01943a599e73362a0e17a63a72e94dd2e384d2c1d4db93275660001b836200033a60201b620010791760201c565b50505080600260006101000a81548160ff0219169083151502179055505050505085600760006101000a81548173ffffffffffffffffffffffffffffffffffffffff021916908373ffffffffffffffffffffffffffffffffffffffff16021790555084600860006101000a81548173ffffffffffffffffffffffffffffffffffffffff021916908373ffffffffffffffffffffffffffffffffffffffff16021790555087600a8190555086600960006101000a81548173ffffffffffffffffffffffffffffffffffffffff021916908373ffffffffffffffffffffffffffffffffffffffff160217905550505050505050505062000854565b620002426200039560201b60201c565b73ffffffffffffffffffffffffffffffffffffffff168173ffffffffffffffffffffffffffffffffffffffff1614620003375760008060009054906101000a900473ffffffffffffffffffffffffffffffffffffffff169050816000806101000a81548173ffffffffffffffffffffffffffffffffffffffff021916908373ffffffffffffffffffffffffffffffffffffffff1602179055508173ffffffffffffffffffffffffffffffffffffffff168173ffffffffffffffffffffffffffffffffffffffff167f8be0079c531659141344cd1fd0a4f28419497f9722a3daafe3b4186f6b6457e060405160405180910390a3505b50565b8060016000848152602001908152602001600020908051906020019062000363929190620003be565b50817fcdf4e344c0d23d4cdd0474039d176c55b19d531070dbe17856bfb993a5b5720b60405160405180910390a25050565b60008060009054906101000a900473ffffffffffffffffffffffffffffffffffffffff16905090565b828054620003cc9062000717565b90600052602060002090601f016020900481019282620003f057600085556200043c565b82601f106200040b57805160ff19168380011785556200043c565b828001600101855582156200043c579182015b828111156200043b5782518255916020019190600101906200041e565b5b5090506200044b91906200044f565b5090565b5b808211156200046a57600081600090555060010162000450565b5090565b6000620004856200047f8462000661565b62000638565b905082815260208101848484011115620004a457620004a3620007e6565b5b620004b1848285620006e1565b509392505050565b600081519050620004ca8162000806565b92915050565b600081519050620004e18162000820565b92915050565b600082601f830112620004ff57620004fe620007e1565b5b8151620005118482602086016200046e565b91505092915050565b6000815190506200052b816200083a565b92915050565b600080600080600080600080610100898b031215620005555762000554620007f0565b5b6000620005658b828c016200051a565b9850506020620005788b828c01620004b9565b97505060406200058b8b828c01620004b9565b96505060606200059e8b828c01620004b9565b955050608089015167ffffffffffffffff811115620005c257620005c1620007eb565b5b620005d08b828c01620004e7565b94505060a089015167ffffffffffffffff811115620005f457620005f3620007eb565b5b620006028b828c01620004e7565b93505060c0620006158b828c01620004b9565b92505060e0620006288b828c01620004d0565b9150509295985092959890939650565b60006200064462000657565b90506200065282826200074d565b919050565b6000604051905090565b600067ffffffffffffffff8211156200067f576200067e620007b2565b5b6200068a82620007f5565b9050602081019050919050565b6000620006a482620006b7565b9050919050565b60008115159050919050565b600073ffffffffffffffffffffffffffffffffffffffff82169050919050565b6000819050919050565b60005b8381101562000701578082015181840152602081019050620006e4565b8381111562000711576000848401525b50505050565b600060028204905060018216806200073057607f821691505b6020821081141562000747576200074662000783565b5b50919050565b6200075882620007f5565b810181811067ffffffffffffffff821117156200077a5762000779620007b2565b5b80604052505050565b7f4e487b7100000000000000000000000000000000000000000000000000000000600052602260045260246000fd5b7f4e487b7100000000000000000000000000000000000000000000000000000000600052604160045260246000fd5b600080fd5b600080fd5b600080fd5b600080fd5b6000601f19601f8301169050919050565b620008118162000697565b81146200081d57600080fd5b50565b6200082b81620006ab565b81146200083757600080fd5b50565b6200084581620006d7565b81146200085157600080fd5b50565b61349680620008646000396000f3fe608060405234801561001057600080fd5b50600436106101165760003560e01c8063715018a6116100a25780639e8c7d7f116100715780639e8c7d7f146102cb578063a8a34e0a146102fb578063d95b637114610317578063f2fde38b14610347578063fad8b32a1461036357610116565b8063715018a61461026b578063760d9bba146102755780637f23690c146102915780638da5cb5b146102ad57610116565b806347980aa3116100e957806347980aa3146101a35780634e3e6e9c146101bf57806354f6127f146101ef57806370a082311461021f578063713992fa1461024f57610116565b806301ffc9a71461011b57806314a6e2931461014b57806318160ddd14610167578063313ce56714610185575b600080fd5b6101356004803603810190610130919061261d565b61037f565b6040516101429190612a75565b60405180910390f35b610165600480360381019061016091906124ef565b6103e0565b005b61016f6104f8565b60405161017c9190612c1d565b60405180910390f35b61018d610502565b60405161019a9190612c1d565b60405180910390f35b6101bd60048036038101906101b8919061237b565b61052a565b005b6101d960048036038101906101d491906124a6565b610540565b6040516101e69190612a53565b60405180910390f35b61020960048036038101906102049190612594565b6105f6565b6040516102169190612adb565b60405180910390f35b61023960048036038101906102349190612277565b610608565b6040516102469190612c1d565b60405180910390f35b610269600480360381019061026491906122e4565b610651565b005b610273610a6f565b005b61028f600480360381019061028a91906122e4565b610af0565b005b6102ab60048036038101906102a691906125c1565b610b88565b005b6102b5610c0b565b6040516102c29190612a01565b60405180910390f35b6102e560048036038101906102e09190612277565b610c34565b6040516102f29190612c1d565b60405180910390f35b610315600480360381019061031091906123bb565b610c7d565b005b610331600480360381019061032c91906122a4565b610d70565b60405161033e9190612c1d565b60405180910390f35b610361600480360381019061035c9190612277565b610e73565b005b61037d60048036038101906103789190612277565b610f64565b005b600063e33f65c360e01b7bffffffffffffffffffffffffffffffffffffffffffffffffffffffff1916827bffffffffffffffffffffffffffffffffffffffffffffffffffffffff191614806103d957506103d8826110d2565b5b9050919050565b3373ffffffffffffffffffffffffffffffffffffffff166103ff610c0b565b73ffffffffffffffffffffffffffffffffffffffff1614610455576040517f08c379a000000000000000000000000000000000000000000000000000000000815260040161044c90612b7d565b60405180910390fd5b8051825114610499576040517f08c379a000000000000000000000000000000000000000000000000000000000815260040161049090612bbd565b60405180910390fd5b60005b82518110156104f3576104e38382815181106104bb576104ba6130b7565b5b60200260200101518383815181106104d6576104d56130b7565b5b6020026020010151611133565b6104ec8161120d565b905061049c565b505050565b6000600354905090565b6000600260009054906101000a900460ff1661051f576012610522565b60005b60ff16905090565b61053c61053561121a565b8383611222565b5050565b6060815167ffffffffffffffff81111561055d5761055c6130e6565b5b60405190808252806020026020018201604052801561059057816020015b606081526020019060019003908161057b5790505b50905060005b82518110156105f0576105c28382815181106105b5576105b46130b7565b5b602002602001015161140c565b8282815181106105d5576105d46130b7565b5b60200260200101819052506105e98161120d565b9050610596565b50919050565b60606106018261140c565b9050919050565b6000600460008373ffffffffffffffffffffffffffffffffffffffff1673ffffffffffffffffffffffffffffffffffffffff168152602001908152602001600020549050919050565b846001600760009054906101000a900473ffffffffffffffffffffffffffffffffffffffff1673ffffffffffffffffffffffffffffffffffffffff166370a08231836040518263ffffffff1660e01b81526004016106af9190612a01565b60206040518083038186803b1580156106c757600080fd5b505afa1580156106db573d6000803e3d6000fd5b505050506040513d601f19601f820116820180604052508101906106ff9190612693565b1015610740576040517f08c379a000000000000000000000000000000000000000000000000000000000815260040161073790612bdd565b60405180910390fd5b846001600760009054906101000a900473ffffffffffffffffffffffffffffffffffffffff1673ffffffffffffffffffffffffffffffffffffffff166370a08231836040518263ffffffff1660e01b815260040161079e9190612a01565b60206040518083038186803b1580156107b657600080fd5b505afa1580156107ca573d6000803e3d6000fd5b505050506040513d601f19601f820116820180604052508101906107ee9190612693565b1015806108a657506001600860009054906101000a900473ffffffffffffffffffffffffffffffffffffffff1673ffffffffffffffffffffffffffffffffffffffff166370a08231836040518263ffffffff1660e01b81526004016108539190612a01565b60206040518083038186803b15801561086b57600080fd5b505afa15801561087f573d6000803e3d6000fd5b505050506040513d601f19601f820116820180604052508101906108a39190612693565b10155b6108e5576040517f08c379a00000000000000000000000000000000000000000000000000000000081526004016108dc90612bdd565b60405180910390fd5b864262015180600660008473ffffffffffffffffffffffffffffffffffffffff1673ffffffffffffffffffffffffffffffffffffffff168152602001908152602001600020546109359190612e35565b11158061094457506005600a54145b610983576040517f08c379a000000000000000000000000000000000000000000000000000000000815260040161097a90612b1d565b60405180910390fd5b600960009054906101000a900473ffffffffffffffffffffffffffffffffffffffff1673ffffffffffffffffffffffffffffffffffffffff163373ffffffffffffffffffffffffffffffffffffffff1614610a13576040517f08c379a0000000000000000000000000000000000000000000000000000000008152600401610a0a90612bfd565b60405180910390fd5b610a1f878787876114b1565b610a288861161c565b7f8402c88d698726176545b89dbf2ee4a57dc117cf1e546e43ad37c8f22d3d4dd98888600a54604051610a5d93929190612a1c565b60405180910390a15050505050505050565b3373ffffffffffffffffffffffffffffffffffffffff16610a8e610c0b565b73ffffffffffffffffffffffffffffffffffffffff1614610ae4576040517f08c379a0000000000000000000000000000000000000000000000000000000008152600401610adb90612b7d565b60405180910390fd5b610aee6000610f7a565b565b33736a0e62776530d9f9b73463f20e34d0f9fe5feed173ffffffffffffffffffffffffffffffffffffffff168173ffffffffffffffffffffffffffffffffffffffff1614610b73576040517f08c379a0000000000000000000000000000000000000000000000000000000008152600401610b6a90612b5d565b60405180910390fd5b610b808686868686611663565b505050505050565b3373ffffffffffffffffffffffffffffffffffffffff16610ba7610c0b565b73ffffffffffffffffffffffffffffffffffffffff1614610bfd576040517f08c379a0000000000000000000000000000000000000000000000000000000008152600401610bf490612b7d565b60405180910390fd5b610c078282611133565b5050565b60008060009054906101000a900473ffffffffffffffffffffffffffffffffffffffff16905090565b6000600660008373ffffffffffffffffffffffffffffffffffffffff1673ffffffffffffffffffffffffffffffffffffffff168152602001908152602001600020549050919050565b83518551141580610c9057508251855114155b80610c9d57508051855114155b15610cd4576040517f263eee8d00000000000000000000000000000000000000000000000000000000815260040160405180910390fd5b60005b8551811015610d6857610d55868281518110610cf657610cf56130b7565b5b6020026020010151868381518110610d1157610d106130b7565b5b6020026020010151868481518110610d2c57610d2b6130b7565b5b602002602001015186868681518110610d4857610d476130b7565b5b6020026020010151610af0565b8080610d6090612fe2565b915050610cd7565b505050505050565b60008273ffffffffffffffffffffffffffffffffffffffff168273ffffffffffffffffffffffffffffffffffffffff161415610ded57600460008373ffffffffffffffffffffffffffffffffffffffff1673ffffffffffffffffffffffffffffffffffffffff168152602001908152602001600020549050610e6d565b600560008373ffffffffffffffffffffffffffffffffffffffff1673ffffffffffffffffffffffffffffffffffffffff16815260200190815260200160002060008473ffffffffffffffffffffffffffffffffffffffff1673ffffffffffffffffffffffffffffffffffffffff1681526020019081526020016000205490505b92915050565b3373ffffffffffffffffffffffffffffffffffffffff16610e92610c0b565b73ffffffffffffffffffffffffffffffffffffffff1614610ee8576040517f08c379a0000000000000000000000000000000000000000000000000000000008152600401610edf90612b7d565b60405180910390fd5b600073ffffffffffffffffffffffffffffffffffffffff168173ffffffffffffffffffffffffffffffffffffffff161415610f58576040517f08c379a0000000000000000000000000000000000000000000000000000000008152600401610f4f90612afd565b60405180910390fd5b610f6181610f7a565b50565b610f77610f6f61121a565b826000611222565b50565b610f82610c0b565b73ffffffffffffffffffffffffffffffffffffffff168173ffffffffffffffffffffffffffffffffffffffff16146110765760008060009054906101000a900473ffffffffffffffffffffffffffffffffffffffff169050816000806101000a81548173ffffffffffffffffffffffffffffffffffffffff021916908373ffffffffffffffffffffffffffffffffffffffff1602179055508173ffffffffffffffffffffffffffffffffffffffff168173ffffffffffffffffffffffffffffffffffffffff167f8be0079c531659141344cd1fd0a4f28419497f9722a3daafe3b4186f6b6457e060405160405180910390a3505b50565b806001600084815260200190815260200160002090805190602001906110a0929190611dcb565b50817fcdf4e344c0d23d4cdd0474039d176c55b19d531070dbe17856bfb993a5b5720b60405160405180910390a25050565b600063714df77c60e01b7bffffffffffffffffffffffffffffffffffffffffffffffffffffffff1916827bffffffffffffffffffffffffffffffffffffffffffffffffffffffff1916148061112c575061112b826118f3565b5b9050919050565b7fdeba1e292f8ba88238e10ab3c7f88bd4be4fac56cad5194b6ecceaf653468af160001b821415611199576040517f08c379a000000000000000000000000000000000000000000000000000000000815260040161119090612b9d565b60405180910390fd5b7f2f0a68ab07768e01943a599e73362a0e17a63a72e94dd2e384d2c1d4db93275660001b8214156111ff576040517f08c379a00000000000000000000000000000000000000000000000000000000081526004016111f690612b3d565b60405180910390fd5b6112098282611079565b5050565b6000600182019050919050565b600033905090565b600073ffffffffffffffffffffffffffffffffffffffff168273ffffffffffffffffffffffffffffffffffffffff161415611289576040517f6355e76600000000000000000000000000000000000000000000000000000000815260040160405180910390fd5b8273ffffffffffffffffffffffffffffffffffffffff168273ffffffffffffffffffffffffffffffffffffffff1614156112c257611407565b80600560008573ffffffffffffffffffffffffffffffffffffffff1673ffffffffffffffffffffffffffffffffffffffff16815260200190815260200160002060008473ffffffffffffffffffffffffffffffffffffffff1673ffffffffffffffffffffffffffffffffffffffff16815260200190815260200160002081905550600081146113ab57808373ffffffffffffffffffffffffffffffffffffffff168373ffffffffffffffffffffffffffffffffffffffff167fd66aff874162a96578e919097b6f6d153dfd89a5cec41bb331fdb0c4aec16e2c60405160405180910390a4611406565b8273ffffffffffffffffffffffffffffffffffffffff168273ffffffffffffffffffffffffffffffffffffffff167f50546e66e5f44d728365dc3908c63bc5cfeeab470722c1677e3073a6ac294aa160405160405180910390a35b5b505050565b606060016000838152602001908152602001600020805461142c90612f7f565b80601f016020809104026020016040519081016040528092919081815260200182805461145890612f7f565b80156114a55780601f1061147a576101008083540402835291602001916114a5565b820191906000526020600020905b81548152906001019060200180831161148857829003601f168201915b50505050509050919050565b600073ffffffffffffffffffffffffffffffffffffffff168473ffffffffffffffffffffffffffffffffffffffff161415611518576040517fd2d5ec3000000000000000000000000000000000000000000000000000000000815260040160405180910390fd5b600061152261121a565b90506115306000868661195d565b83600460008773ffffffffffffffffffffffffffffffffffffffff1673ffffffffffffffffffffffffffffffffffffffff168152602001908152602001600020600082825461157f9190612e35565b925050819055508473ffffffffffffffffffffffffffffffffffffffff16600073ffffffffffffffffffffffffffffffffffffffff168273ffffffffffffffffffffffffffffffffffffffff167f3997e418d2cef0b3b0e907b1e39605c3f7d32dbd061e82ea5b4a770d46a160a68787876040516115ff93929190612c6f565b60405180910390a4611615600086868686611a00565b5050505050565b42600660008373ffffffffffffffffffffffffffffffffffffffff1673ffffffffffffffffffffffffffffffffffffffff1681526020019081526020016000208190555050565b600073ffffffffffffffffffffffffffffffffffffffff168573ffffffffffffffffffffffffffffffffffffffff1614806116ca5750600073ffffffffffffffffffffffffffffffffffffffff168473ffffffffffffffffffffffffffffffffffffffff16145b15611701576040517fd2d5ec3000000000000000000000000000000000000000000000000000000000815260040160405180910390fd5b6000600460008773ffffffffffffffffffffffffffffffffffffffff1673ffffffffffffffffffffffffffffffffffffffff1681526020019081526020016000205490508084111561178e578086856040517f08d4794900000000000000000000000000000000000000000000000000000000815260040161178593929190612c38565b60405180910390fd5b600061179861121a565b90506117a587878761195d565b84600460008973ffffffffffffffffffffffffffffffffffffffff1673ffffffffffffffffffffffffffffffffffffffff16815260200190815260200160002060008282546117f49190612e8b565b9250508190555084600460008873ffffffffffffffffffffffffffffffffffffffff1673ffffffffffffffffffffffffffffffffffffffff168152602001908152602001600020600082825461184a9190612e35565b925050819055508573ffffffffffffffffffffffffffffffffffffffff168773ffffffffffffffffffffffffffffffffffffffff168273ffffffffffffffffffffffffffffffffffffffff167f3997e418d2cef0b3b0e907b1e39605c3f7d32dbd061e82ea5b4a770d46a160a68888886040516118c993929190612c6f565b60405180910390a46118dd87878786611ba2565b6118ea8787878787611a00565b50505050505050565b60007f01ffc9a7000000000000000000000000000000000000000000000000000000007bffffffffffffffffffffffffffffffffffffffffffffffffffffffff1916827bffffffffffffffffffffffffffffffffffffffffffffffffffffffff1916149050919050565b600073ffffffffffffffffffffffffffffffffffffffff168373ffffffffffffffffffffffffffffffffffffffff1614156119ac5780600360008282546119a49190612e35565b925050819055505b600073ffffffffffffffffffffffffffffffffffffffff168273ffffffffffffffffffffffffffffffffffffffff1614156119fb5780600360008282546119f39190612e8b565b925050819055505b505050565b611a1184636bb56a1460e01b611ca0565b15611afc57600085858584604051602001611a2f94939291906129a0565b60405160208183030381529060405290508473ffffffffffffffffffffffffffffffffffffffff16636bb56a147fdbe2c314e1aee2970c72666f2ebe8933a8575263ea71e5ff6a9178e95d47a26f60001b836040518363ffffffff1660e01b8152600401611a9e929190612a90565b600060405180830381600087803b158015611ab857600080fd5b505af1158015611acc573d6000803e3d6000fd5b505050506040513d6000823e3d601f19601f82011682018060405250810190611af5919061264a565b5050611b9b565b81611b9a5760008473ffffffffffffffffffffffffffffffffffffffff163b14611b5d57836040517fa608fbb6000000000000000000000000000000000000000000000000000000008152600401611b549190612a01565b60405180910390fd5b836040517f26c247f4000000000000000000000000000000000000000000000000000000008152600401611b919190612a01565b60405180910390fd5b5b5050505050565b611bb384636bb56a1460e01b611ca0565b15611c9a57600084848484604051602001611bd194939291906129a0565b60405160208183030381529060405290508473ffffffffffffffffffffffffffffffffffffffff16636bb56a147f40b8bec57d7b5ff0dbd9e9acd0a47dfeb0101e1a203766f5ccab00445fbf39e960001b836040518363ffffffff1660e01b8152600401611c40929190612a90565b600060405180830381600087803b158015611c5a57600080fd5b505af1158015611c6e573d6000803e3d6000fd5b505050506040513d6000823e3d601f19601f82011682018060405250810190611c97919061264a565b50505b50505050565b6000806301ffc9a760e01b83604051602401611cbc9190612ac0565b604051602081830303815290604052907bffffffffffffffffffffffffffffffffffffffffffffffffffffffff19166020820180517bffffffffffffffffffffffffffffffffffffffffffffffffffffffff838183161783525050505090506000808573ffffffffffffffffffffffffffffffffffffffff1661753084604051611d4691906129ea565b6000604051808303818686fa925050503d8060008114611d82576040519150601f19603f3d011682016040523d82523d6000602084013e611d87565b606091505b5091509150602081511015611da25760009350505050611dc5565b818015611dbf575080806020019051810190611dbe9190612567565b5b93505050505b92915050565b828054611dd790612f7f565b90600052602060002090601f016020900481019282611df95760008555611e40565b82601f10611e1257805160ff1916838001178555611e40565b82800160010185558215611e40579182015b82811115611e3f578251825591602001919060010190611e24565b5b509050611e4d9190611e51565b5090565b5b80821115611e6a576000816000905550600101611e52565b5090565b6000611e81611e7c84612cd2565b612cad565b90508083825260208201905082856020860282011115611ea457611ea361311a565b5b60005b85811015611ed45781611eba88826120d0565b845260208401935060208301925050600181019050611ea7565b5050509392505050565b6000611ef1611eec84612cfe565b612cad565b90508083825260208201905082856020860282011115611f1457611f1361311a565b5b60005b85811015611f445781611f2a88826121c7565b845260208401935060208301925050600181019050611f17565b5050509392505050565b6000611f61611f5c84612d2a565b612cad565b90508083825260208201905082856020860282011115611f8457611f8361311a565b5b60005b85811015611fd257813567ffffffffffffffff811115611faa57611fa9613115565b5b808601611fb789826121f1565b85526020850194506020840193505050600181019050611f87565b5050509392505050565b6000611fef611fea84612d56565b612cad565b905080838252602082019050828560208602820111156120125761201161311a565b5b60005b858110156120425781612028888261224d565b845260208401935060208301925050600181019050612015565b5050509392505050565b600061205f61205a84612d82565b612cad565b90508281526020810184848401111561207b5761207a61311f565b5b612086848285612f3d565b509392505050565b60006120a161209c84612d82565b612cad565b9050828152602081018484840111156120bd576120bc61311f565b5b6120c8848285612f4c565b509392505050565b6000813590506120df816133ed565b92915050565b600082601f8301126120fa576120f9613115565b5b813561210a848260208601611e6e565b91505092915050565b600082601f83011261212857612127613115565b5b8135612138848260208601611ede565b91505092915050565b600082601f83011261215657612155613115565b5b8135612166848260208601611f4e565b91505092915050565b600082601f83011261218457612183613115565b5b8135612194848260208601611fdc565b91505092915050565b6000813590506121ac81613404565b92915050565b6000815190506121c181613404565b92915050565b6000813590506121d68161341b565b92915050565b6000813590506121eb81613432565b92915050565b600082601f83011261220657612205613115565b5b813561221684826020860161204c565b91505092915050565b600082601f83011261223457612233613115565b5b815161224484826020860161208e565b91505092915050565b60008135905061225c81613449565b92915050565b60008151905061227181613449565b92915050565b60006020828403121561228d5761228c613129565b5b600061229b848285016120d0565b91505092915050565b600080604083850312156122bb576122ba613129565b5b60006122c9858286016120d0565b92505060206122da858286016120d0565b9150509250929050565b600080600080600060a08688031215612300576122ff613129565b5b600061230e888289016120d0565b955050602061231f888289016120d0565b94505060406123308882890161224d565b93505060606123418882890161219d565b925050608086013567ffffffffffffffff81111561236257612361613124565b5b61236e888289016121f1565b9150509295509295909350565b6000806040838503121561239257612391613129565b5b60006123a0858286016120d0565b92505060206123b18582860161224d565b9150509250929050565b600080600080600060a086880312156123d7576123d6613129565b5b600086013567ffffffffffffffff8111156123f5576123f4613124565b5b612401888289016120e5565b955050602086013567ffffffffffffffff81111561242257612421613124565b5b61242e888289016120e5565b945050604086013567ffffffffffffffff81111561244f5761244e613124565b5b61245b8882890161216f565b935050606061246c8882890161219d565b925050608086013567ffffffffffffffff81111561248d5761248c613124565b5b61249988828901612141565b9150509295509295909350565b6000602082840312156124bc576124bb613129565b5b600082013567ffffffffffffffff8111156124da576124d9613124565b5b6124e684828501612113565b91505092915050565b6000806040838503121561250657612505613129565b5b600083013567ffffffffffffffff81111561252457612523613124565b5b61253085828601612113565b925050602083013567ffffffffffffffff81111561255157612550613124565b5b61255d85828601612141565b9150509250929050565b60006020828403121561257d5761257c613129565b5b600061258b848285016121b2565b91505092915050565b6000602082840312156125aa576125a9613129565b5b60006125b8848285016121c7565b91505092915050565b600080604083850312156125d8576125d7613129565b5b60006125e6858286016121c7565b925050602083013567ffffffffffffffff81111561260757612606613124565b5b612613858286016121f1565b9150509250929050565b60006020828403121561263357612632613129565b5b6000612641848285016121dc565b91505092915050565b6000602082840312156126605761265f613129565b5b600082015167ffffffffffffffff81111561267e5761267d613124565b5b61268a8482850161221f565b91505092915050565b6000602082840312156126a9576126a8613129565b5b60006126b784828501612262565b91505092915050565b60006126cc838361279c565b905092915050565b6126dd81612ebf565b82525050565b6126f46126ef82612ebf565b61302b565b82525050565b600061270582612dc3565b61270f8185612de6565b93508360208202850161272185612db3565b8060005b8581101561275d578484038952815161273e85826126c0565b945061274983612dd9565b925060208a01995050600181019050612725565b50829750879550505050505092915050565b61277881612ed1565b82525050565b61278781612edd565b82525050565b61279681612ee7565b82525050565b60006127a782612dce565b6127b18185612df7565b93506127c1818560208601612f4c565b6127ca8161312e565b840191505092915050565b60006127e082612dce565b6127ea8185612e08565b93506127fa818560208601612f4c565b6128038161312e565b840191505092915050565b600061281982612dce565b6128238185612e19565b9350612833818560208601612f4c565b80840191505092915050565b600061284c602683612e24565b91506128578261314c565b604082019050919050565b600061286f603983612e24565b915061287a8261319b565b604082019050919050565b6000612892602f83612e24565b915061289d826131ea565b604082019050919050565b60006128b5602783612e24565b91506128c082613239565b604082019050919050565b60006128d8602083612e24565b91506128e382613288565b602082019050919050565b60006128fb602d83612e24565b9150612906826132b1565b604082019050919050565b600061291e602683612e24565b915061292982613300565b604082019050919050565b6000612941602a83612e24565b915061294c8261334f565b604082019050919050565b6000612964603383612e24565b915061296f8261339e565b604082019050919050565b61298381612f33565b82525050565b61299a61299582612f33565b61304f565b82525050565b60006129ac82876126e3565b6014820191506129bc82866126e3565b6014820191506129cc8285612989565b6020820191506129dc828461280e565b915081905095945050505050565b60006129f6828461280e565b915081905092915050565b6000602082019050612a1660008301846126d4565b92915050565b6000606082019050612a3160008301866126d4565b612a3e60208301856126d4565b612a4b604083018461297a565b949350505050565b60006020820190508181036000830152612a6d81846126fa565b905092915050565b6000602082019050612a8a600083018461276f565b92915050565b6000604082019050612aa5600083018561277e565b8181036020830152612ab781846127d5565b90509392505050565b6000602082019050612ad5600083018461278d565b92915050565b60006020820190508181036000830152612af581846127d5565b905092915050565b60006020820190508181036000830152612b168161283f565b9050919050565b60006020820190508181036000830152612b3681612862565b9050919050565b60006020820190508181036000830152612b5681612885565b9050919050565b60006020820190508181036000830152612b76816128a8565b9050919050565b60006020820190508181036000830152612b96816128cb565b9050919050565b60006020820190508181036000830152612bb6816128ee565b9050919050565b60006020820190508181036000830152612bd681612911565b9050919050565b60006020820190508181036000830152612bf681612934565b9050919050565b60006020820190508181036000830152612c1681612957565b9050919050565b6000602082019050612c32600083018461297a565b92915050565b6000606082019050612c4d600083018661297a565b612c5a60208301856126d4565b612c67604083018461297a565b949350505050565b6000606082019050612c84600083018661297a565b612c91602083018561276f565b8181036040830152612ca381846127d5565b9050949350505050565b6000612cb7612cc8565b9050612cc38282612fb1565b919050565b6000604051905090565b600067ffffffffffffffff821115612ced57612cec6130e6565b5b602082029050602081019050919050565b600067ffffffffffffffff821115612d1957612d186130e6565b5b602082029050602081019050919050565b600067ffffffffffffffff821115612d4557612d446130e6565b5b602082029050602081019050919050565b600067ffffffffffffffff821115612d7157612d706130e6565b5b602082029050602081019050919050565b600067ffffffffffffffff821115612d9d57612d9c6130e6565b5b612da68261312e565b9050602081019050919050565b6000819050602082019050919050565b600081519050919050565b600081519050919050565b6000602082019050919050565b600082825260208201905092915050565b600082825260208201905092915050565b600082825260208201905092915050565b600081905092915050565b600082825260208201905092915050565b6000612e4082612f33565b9150612e4b83612f33565b9250827fffffffffffffffffffffffffffffffffffffffffffffffffffffffffffffffff03821115612e8057612e7f613059565b5b828201905092915050565b6000612e9682612f33565b9150612ea183612f33565b925082821015612eb457612eb3613059565b5b828203905092915050565b6000612eca82612f13565b9050919050565b60008115159050919050565b6000819050919050565b60007fffffffff0000000000000000000000000000000000000000000000000000000082169050919050565b600073ffffffffffffffffffffffffffffffffffffffff82169050919050565b6000819050919050565b82818337600083830152505050565b60005b83811015612f6a578082015181840152602081019050612f4f565b83811115612f79576000848401525b50505050565b60006002820490506001821680612f9757607f821691505b60208210811415612fab57612faa613088565b5b50919050565b612fba8261312e565b810181811067ffffffffffffffff82111715612fd957612fd86130e6565b5b80604052505050565b6000612fed82612f33565b91507fffffffffffffffffffffffffffffffffffffffffffffffffffffffffffffffff8214156130205761301f613059565b5b600182019050919050565b60006130368261303d565b9050919050565b60006130488261313f565b9050919050565b6000819050919050565b7f4e487b7100000000000000000000000000000000000000000000000000000000600052601160045260246000fd5b7f4e487b7100000000000000000000000000000000000000000000000000000000600052602260045260246000fd5b7f4e487b7100000000000000000000000000000000000000000000000000000000600052603260045260246000fd5b7f4e487b7100000000000000000000000000000000000000000000000000000000600052604160045260246000fd5b600080fd5b600080fd5b600080fd5b600080fd5b600080fd5b6000601f19601f8301169050919050565b60008160601b9050919050565b7f4f776e61626c653a206e6577206f776e657220697320746865207a65726f206160008201527f6464726573730000000000000000000000000000000000000000000000000000602082015250565b7f556e6976657273616c2050726f66696c652068617320676976656e206120737960008201527f6d626f6c206c657373207468616e2031206461792061676f2e00000000000000602082015250565b7f4c5350343a2063616e6e6f74206564697420546f6b656e2053796d626f6c206160008201527f66746572206465706c6f796d656e740000000000000000000000000000000000602082015250565b7f6d73672e73656e646572206973206e6f7420746865206d756c7469736967206160008201527f6464726573732e00000000000000000000000000000000000000000000000000602082015250565b7f4f776e61626c653a2063616c6c6572206973206e6f7420746865206f776e6572600082015250565b7f4c5350343a2063616e6e6f74206564697420546f6b656e204e616d652061667460008201527f6572206465706c6f796d656e7400000000000000000000000000000000000000602082015250565b7f4b657973206c656e677468206e6f7420657175616c20746f2076616c7565732060008201527f6c656e6774680000000000000000000000000000000000000000000000000000602082015250565b7f556e6976657273616c2050726f66696c6520646f65736e277420686f6c64206160008201527f6e7920746f6b656e732e00000000000000000000000000000000000000000000602082015250565b7f6d73672e73656e6465722069736e7420556e6976657273616c2050726f66696c60008201527f652052657075746174696f6e2053797374656d00000000000000000000000000602082015250565b6133f681612ebf565b811461340157600080fd5b50565b61340d81612ed1565b811461341857600080fd5b50565b61342481612edd565b811461342f57600080fd5b50565b61343b81612ee7565b811461344657600080fd5b50565b61345281612f33565b811461345d57600080fd5b5056fea2646970667358221220682a3532cb7db2974f65b8b87704037e2d64976ad6f8764996278df87e71120264736f6c63430008060033",
			"opcodes": "PUSH1 0x80 PUSH1 0x40 MSTORE PUSH1 0x40 MLOAD DUP1 PUSH1 0xA0 ADD PUSH1 0x40 MSTORE DUP1 PUSH1 0x3 PUSH1 0x0 SWAP1 SLOAD SWAP1 PUSH2 0x100 EXP SWAP1 DIV PUSH20 0xFFFFFFFFFFFFFFFFFFFFFFFFFFFFFFFFFFFFFFFF AND PUSH20 0xFFFFFFFFFFFFFFFFFFFFFFFFFFFFFFFFFFFFFFFF AND PUSH20 0xFFFFFFFFFFFFFFFFFFFFFFFFFFFFFFFFFFFFFFFF AND DUP2 MSTORE PUSH1 0x20 ADD PUSH1 0x4 PUSH1 0x0 SWAP1 SLOAD SWAP1 PUSH2 0x100 EXP SWAP1 DIV PUSH20 0xFFFFFFFFFFFFFFFFFFFFFFFFFFFFFFFFFFFFFFFF AND PUSH20 0xFFFFFFFFFFFFFFFFFFFFFFFFFFFFFFFFFFFFFFFF AND PUSH20 0xFFFFFFFFFFFFFFFFFFFFFFFFFFFFFFFFFFFFFFFF AND DUP2 MSTORE PUSH1 0x20 ADD PUSH1 0x5 PUSH1 0x0 SWAP1 SLOAD SWAP1 PUSH2 0x100 EXP SWAP1 DIV PUSH20 0xFFFFFFFFFFFFFFFFFFFFFFFFFFFFFFFFFFFFFFFF AND PUSH20 0xFFFFFFFFFFFFFFFFFFFFFFFFFFFFFFFFFFFFFFFF AND PUSH20 0xFFFFFFFFFFFFFFFFFFFFFFFFFFFFFFFFFFFFFFFF AND DUP2 MSTORE PUSH1 0x20 ADD PUSH1 0x6 PUSH1 0x0 SWAP1 SLOAD SWAP1 PUSH2 0x100 EXP SWAP1 DIV PUSH20 0xFFFFFFFFFFFFFFFFFFFFFFFFFFFFFFFFFFFFFFFF AND PUSH20 0xFFFFFFFFFFFFFFFFFFFFFFFFFFFFFFFFFFFFFFFF AND PUSH20 0xFFFFFFFFFFFFFFFFFFFFFFFFFFFFFFFFFFFFFFFF AND DUP2 MSTORE PUSH1 0x20 ADD PUSH1 0x7 PUSH1 0x0 SWAP1 SLOAD SWAP1 PUSH2 0x100 EXP SWAP1 DIV PUSH20 0xFFFFFFFFFFFFFFFFFFFFFFFFFFFFFFFFFFFFFFFF AND PUSH20 0xFFFFFFFFFFFFFFFFFFFFFFFFFFFFFFFFFFFFFFFF AND PUSH20 0xFFFFFFFFFFFFFFFFFFFFFFFFFFFFFFFFFFFFFFFF AND DUP2 MSTORE POP PUSH1 0x9 SWAP1 PUSH1 0x5 PUSH3 0x1C3 SWAP3 SWAP2 SWAP1 PUSH3 0x59F JUMP JUMPDEST POP CALLVALUE DUP1 ISZERO PUSH3 0x1D1 JUMPI PUSH1 0x0 DUP1 REVERT JUMPDEST POP PUSH1 0x40 MLOAD PUSH3 0x5CAE CODESIZE SUB DUP1 PUSH3 0x5CAE DUP4 CODECOPY DUP2 DUP2 ADD PUSH1 0x40 MSTORE DUP2 ADD SWAP1 PUSH3 0x1F7 SWAP2 SWAP1 PUSH3 0x665 JUMP JUMPDEST DUP2 PUSH1 0x1 PUSH1 0x0 PUSH2 0x100 EXP DUP2 SLOAD DUP2 PUSH20 0xFFFFFFFFFFFFFFFFFFFFFFFFFFFFFFFFFFFFFFFF MUL NOT AND SWAP1 DUP4 PUSH20 0xFFFFFFFFFFFFFFFFFFFFFFFFFFFFFFFFFFFFFFFF AND MUL OR SWAP1 SSTORE POP DUP1 PUSH1 0x2 PUSH1 0x0 PUSH2 0x100 EXP DUP2 SLOAD DUP2 PUSH20 0xFFFFFFFFFFFFFFFFFFFFFFFFFFFFFFFFFFFFFFFF MUL NOT AND SWAP1 DUP4 PUSH20 0xFFFFFFFFFFFFFFFFFFFFFFFFFFFFFFFFFFFFFFFF AND MUL OR SWAP1 SSTORE POP PUSH1 0x0 ADDRESS DUP4 DUP4 CALLER PUSH1 0x1 PUSH1 0x40 MLOAD PUSH3 0x28F SWAP1 PUSH3 0x621 JUMP JUMPDEST PUSH3 0x2A0 SWAP7 SWAP6 SWAP5 SWAP4 SWAP3 SWAP2 SWAP1 PUSH3 0x81E JUMP JUMPDEST PUSH1 0x40 MLOAD DUP1 SWAP2 SUB SWAP1 PUSH1 0x0 CREATE DUP1 ISZERO DUP1 ISZERO PUSH3 0x2BD JUMPI RETURNDATASIZE PUSH1 0x0 DUP1 RETURNDATACOPY RETURNDATASIZE PUSH1 0x0 REVERT JUMPDEST POP PUSH1 0x3 PUSH1 0x0 PUSH2 0x100 EXP DUP2 SLOAD DUP2 PUSH20 0xFFFFFFFFFFFFFFFFFFFFFFFFFFFFFFFFFFFFFFFF MUL NOT AND SWAP1 DUP4 PUSH20 0xFFFFFFFFFFFFFFFFFFFFFFFFFFFFFFFFFFFFFFFF AND MUL OR SWAP1 SSTORE POP PUSH1 0x1 ADDRESS DUP4 DUP4 CALLER PUSH1 0x1 PUSH1 0x40 MLOAD PUSH3 0x314 SWAP1 PUSH3 0x621 JUMP JUMPDEST PUSH3 0x325 SWAP7 SWAP6 SWAP5 SWAP4 SWAP3 SWAP2 SWAP1 PUSH3 0x8B6 JUMP JUMPDEST PUSH1 0x40 MLOAD DUP1 SWAP2 SUB SWAP1 PUSH1 0x0 CREATE DUP1 ISZERO DUP1 ISZERO PUSH3 0x342 JUMPI RETURNDATASIZE PUSH1 0x0 DUP1 RETURNDATACOPY RETURNDATASIZE PUSH1 0x0 REVERT JUMPDEST POP PUSH1 0x4 PUSH1 0x0 PUSH2 0x100 EXP DUP2 SLOAD DUP2 PUSH20 0xFFFFFFFFFFFFFFFFFFFFFFFFFFFFFFFFFFFFFFFF MUL NOT AND SWAP1 DUP4 PUSH20 0xFFFFFFFFFFFFFFFFFFFFFFFFFFFFFFFFFFFFFFFF AND MUL OR SWAP1 SSTORE POP PUSH1 0x2 ADDRESS DUP4 DUP4 CALLER PUSH1 0x1 PUSH1 0x40 MLOAD PUSH3 0x399 SWAP1 PUSH3 0x621 JUMP JUMPDEST PUSH3 0x3AA SWAP7 SWAP6 SWAP5 SWAP4 SWAP3 SWAP2 SWAP1 PUSH3 0x94E JUMP JUMPDEST PUSH1 0x40 MLOAD DUP1 SWAP2 SUB SWAP1 PUSH1 0x0 CREATE DUP1 ISZERO DUP1 ISZERO PUSH3 0x3C7 JUMPI RETURNDATASIZE PUSH1 0x0 DUP1 RETURNDATACOPY RETURNDATASIZE PUSH1 0x0 REVERT JUMPDEST POP PUSH1 0x5 PUSH1 0x0 PUSH2 0x100 EXP DUP2 SLOAD DUP2 PUSH20 0xFFFFFFFFFFFFFFFFFFFFFFFFFFFFFFFFFFFFFFFF MUL NOT AND SWAP1 DUP4 PUSH20 0xFFFFFFFFFFFFFFFFFFFFFFFFFFFFFFFFFFFFFFFF AND MUL OR SWAP1 SSTORE POP PUSH1 0x3 ADDRESS DUP4 DUP4 CALLER PUSH1 0x1 PUSH1 0x40 MLOAD PUSH3 0x41E SWAP1 PUSH3 0x621 JUMP JUMPDEST PUSH3 0x42F SWAP7 SWAP6 SWAP5 SWAP4 SWAP3 SWAP2 SWAP1 PUSH3 0x9E6 JUMP JUMPDEST PUSH1 0x40 MLOAD DUP1 SWAP2 SUB SWAP1 PUSH1 0x0 CREATE DUP1 ISZERO DUP1 ISZERO PUSH3 0x44C JUMPI RETURNDATASIZE PUSH1 0x0 DUP1 RETURNDATACOPY RETURNDATASIZE PUSH1 0x0 REVERT JUMPDEST POP PUSH1 0x6 PUSH1 0x0 PUSH2 0x100 EXP DUP2 SLOAD DUP2 PUSH20 0xFFFFFFFFFFFFFFFFFFFFFFFFFFFFFFFFFFFFFFFF MUL NOT AND SWAP1 DUP4 PUSH20 0xFFFFFFFFFFFFFFFFFFFFFFFFFFFFFFFFFFFFFFFF AND MUL OR SWAP1 SSTORE POP PUSH1 0x4 ADDRESS DUP4 DUP4 CALLER PUSH1 0x1 PUSH1 0x40 MLOAD PUSH3 0x4A3 SWAP1 PUSH3 0x621 JUMP JUMPDEST PUSH3 0x4B4 SWAP7 SWAP6 SWAP5 SWAP4 SWAP3 SWAP2 SWAP1 PUSH3 0xA7E JUMP JUMPDEST PUSH1 0x40 MLOAD DUP1 SWAP2 SUB SWAP1 PUSH1 0x0 CREATE DUP1 ISZERO DUP1 ISZERO PUSH3 0x4D1 JUMPI RETURNDATASIZE PUSH1 0x0 DUP1 RETURNDATACOPY RETURNDATASIZE PUSH1 0x0 REVERT JUMPDEST POP PUSH1 0x7 PUSH1 0x0 PUSH2 0x100 EXP DUP2 SLOAD DUP2 PUSH20 0xFFFFFFFFFFFFFFFFFFFFFFFFFFFFFFFFFFFFFFFF MUL NOT AND SWAP1 DUP4 PUSH20 0xFFFFFFFFFFFFFFFFFFFFFFFFFFFFFFFFFFFFFFFF AND MUL OR SWAP1 SSTORE POP PUSH1 0x5 ADDRESS DUP4 DUP4 CALLER PUSH1 0x1 PUSH1 0x40 MLOAD PUSH3 0x528 SWAP1 PUSH3 0x621 JUMP JUMPDEST PUSH3 0x539 SWAP7 SWAP6 SWAP5 SWAP4 SWAP3 SWAP2 SWAP1 PUSH3 0xB16 JUMP JUMPDEST PUSH1 0x40 MLOAD DUP1 SWAP2 SUB SWAP1 PUSH1 0x0 CREATE DUP1 ISZERO DUP1 ISZERO PUSH3 0x556 JUMPI RETURNDATASIZE PUSH1 0x0 DUP1 RETURNDATACOPY RETURNDATASIZE PUSH1 0x0 REVERT JUMPDEST POP PUSH1 0x8 PUSH1 0x0 PUSH2 0x100 EXP DUP2 SLOAD DUP2 PUSH20 0xFFFFFFFFFFFFFFFFFFFFFFFFFFFFFFFFFFFFFFFF MUL NOT AND SWAP1 DUP4 PUSH20 0xFFFFFFFFFFFFFFFFFFFFFFFFFFFFFFFFFFFFFFFF AND MUL OR SWAP1 SSTORE POP POP POP PUSH3 0xD96 JUMP JUMPDEST DUP3 PUSH1 0x5 DUP2 ADD SWAP3 DUP3 ISZERO PUSH3 0x60E JUMPI SWAP2 PUSH1 0x20 MUL DUP3 ADD JUMPDEST DUP3 DUP2 GT ISZERO PUSH3 0x60D JUMPI DUP3 MLOAD DUP3 PUSH1 0x0 PUSH2 0x100 EXP DUP2 SLOAD DUP2 PUSH20 0xFFFFFFFFFFFFFFFFFFFFFFFFFFFFFFFFFFFFFFFF MUL NOT AND SWAP1 DUP4 PUSH20 0xFFFFFFFFFFFFFFFFFFFFFFFFFFFFFFFFFFFFFFFF AND MUL OR SWAP1 SSTORE POP SWAP2 PUSH1 0x20 ADD SWAP2 SWAP1 PUSH1 0x1 ADD SWAP1 PUSH3 0x5B3 JUMP JUMPDEST JUMPDEST POP SWAP1 POP PUSH3 0x61D SWAP2 SWAP1 PUSH3 0x62F JUMP JUMPDEST POP SWAP1 JUMP JUMPDEST PUSH2 0x3CFA DUP1 PUSH3 0x1FB4 DUP4 CODECOPY ADD SWAP1 JUMP JUMPDEST JUMPDEST DUP1 DUP3 GT ISZERO PUSH3 0x64A JUMPI PUSH1 0x0 DUP2 PUSH1 0x0 SWAP1 SSTORE POP PUSH1 0x1 ADD PUSH3 0x630 JUMP JUMPDEST POP SWAP1 JUMP JUMPDEST PUSH1 0x0 DUP2 MLOAD SWAP1 POP PUSH3 0x65F DUP2 PUSH3 0xD7C JUMP JUMPDEST SWAP3 SWAP2 POP POP JUMP JUMPDEST PUSH1 0x0 DUP1 PUSH1 0x40 DUP4 DUP6 SUB SLT ISZERO PUSH3 0x67F JUMPI PUSH3 0x67E PUSH3 0xC81 JUMP JUMPDEST JUMPDEST PUSH1 0x0 PUSH3 0x68F DUP6 DUP3 DUP7 ADD PUSH3 0x64E JUMP JUMPDEST SWAP3 POP POP PUSH1 0x20 PUSH3 0x6A2 DUP6 DUP3 DUP7 ADD PUSH3 0x64E JUMP JUMPDEST SWAP2 POP POP SWAP3 POP SWAP3 SWAP1 POP JUMP JUMPDEST PUSH3 0x6B7 DUP2 PUSH3 0xBBF JUMP JUMPDEST DUP3 MSTORE POP POP JUMP JUMPDEST PUSH3 0x6C8 DUP2 PUSH3 0xBD3 JUMP JUMPDEST DUP3 MSTORE POP POP JUMP JUMPDEST PUSH3 0x6D9 DUP2 PUSH3 0xC09 JUMP JUMPDEST DUP3 MSTORE POP POP JUMP JUMPDEST PUSH3 0x6EA DUP2 PUSH3 0xC1D JUMP JUMPDEST DUP3 MSTORE POP POP JUMP JUMPDEST PUSH3 0x6FB DUP2 PUSH3 0xC31 JUMP JUMPDEST DUP3 MSTORE POP POP JUMP JUMPDEST PUSH3 0x70C DUP2 PUSH3 0xC45 JUMP JUMPDEST DUP3 MSTORE POP POP JUMP JUMPDEST PUSH3 0x71D DUP2 PUSH3 0xC59 JUMP JUMPDEST DUP3 MSTORE POP POP JUMP JUMPDEST PUSH3 0x72E DUP2 PUSH3 0xC6D JUMP JUMPDEST DUP3 MSTORE POP POP JUMP JUMPDEST PUSH1 0x0 PUSH3 0x743 PUSH1 0x4 DUP4 PUSH3 0xBAE JUMP JUMPDEST SWAP2 POP PUSH3 0x750 DUP3 PUSH3 0xC86 JUMP JUMPDEST PUSH1 0x20 DUP3 ADD SWAP1 POP SWAP2 SWAP1 POP JUMP JUMPDEST PUSH1 0x0 PUSH3 0x76A PUSH1 0x4 DUP4 PUSH3 0xBAE JUMP JUMPDEST SWAP2 POP PUSH3 0x777 DUP3 PUSH3 0xCAF JUMP JUMPDEST PUSH1 0x20 DUP3 ADD SWAP1 POP SWAP2 SWAP1 POP JUMP JUMPDEST PUSH1 0x0 PUSH3 0x791 PUSH1 0x4 DUP4 PUSH3 0xBAE JUMP JUMPDEST SWAP2 POP PUSH3 0x79E DUP3 PUSH3 0xCD8 JUMP JUMPDEST PUSH1 0x20 DUP3 ADD SWAP1 POP SWAP2 SWAP1 POP JUMP JUMPDEST PUSH1 0x0 PUSH3 0x7B8 PUSH1 0x4 DUP4 PUSH3 0xBAE JUMP JUMPDEST SWAP2 POP PUSH3 0x7C5 DUP3 PUSH3 0xD01 JUMP JUMPDEST PUSH1 0x20 DUP3 ADD SWAP1 POP SWAP2 SWAP1 POP JUMP JUMPDEST PUSH1 0x0 PUSH3 0x7DF PUSH1 0x4 DUP4 PUSH3 0xBAE JUMP JUMPDEST SWAP2 POP PUSH3 0x7EC DUP3 PUSH3 0xD2A JUMP JUMPDEST PUSH1 0x20 DUP3 ADD SWAP1 POP SWAP2 SWAP1 POP JUMP JUMPDEST PUSH1 0x0 PUSH3 0x806 PUSH1 0x4 DUP4 PUSH3 0xBAE JUMP JUMPDEST SWAP2 POP PUSH3 0x813 DUP3 PUSH3 0xD53 JUMP JUMPDEST PUSH1 0x20 DUP3 ADD SWAP1 POP SWAP2 SWAP1 POP JUMP JUMPDEST PUSH1 0x0 PUSH2 0x100 DUP3 ADD SWAP1 POP PUSH3 0x836 PUSH1 0x0 DUP4 ADD DUP10 PUSH3 0x6CE JUMP JUMPDEST PUSH3 0x845 PUSH1 0x20 DUP4 ADD DUP9 PUSH3 0x6AC JUMP JUMPDEST PUSH3 0x854 PUSH1 0x40 DUP4 ADD DUP8 PUSH3 0x6AC JUMP JUMPDEST PUSH3 0x863 PUSH1 0x60 DUP4 ADD DUP7 PUSH3 0x6AC JUMP JUMPDEST DUP2 DUP2 SUB PUSH1 0x80 DUP4 ADD MSTORE PUSH3 0x876 DUP2 PUSH3 0x75B JUMP JUMPDEST SWAP1 POP DUP2 DUP2 SUB PUSH1 0xA0 DUP4 ADD MSTORE PUSH3 0x88B DUP2 PUSH3 0x75B JUMP JUMPDEST SWAP1 POP PUSH3 0x89C PUSH1 0xC0 DUP4 ADD DUP6 PUSH3 0x6AC JUMP JUMPDEST PUSH3 0x8AB PUSH1 0xE0 DUP4 ADD DUP5 PUSH3 0x6BD JUMP JUMPDEST SWAP8 SWAP7 POP POP POP POP POP POP POP JUMP JUMPDEST PUSH1 0x0 PUSH2 0x100 DUP3 ADD SWAP1 POP PUSH3 0x8CE PUSH1 0x0 DUP4 ADD DUP10 PUSH3 0x6DF JUMP JUMPDEST PUSH3 0x8DD PUSH1 0x20 DUP4 ADD DUP9 PUSH3 0x6AC JUMP JUMPDEST PUSH3 0x8EC PUSH1 0x40 DUP4 ADD DUP8 PUSH3 0x6AC JUMP JUMPDEST PUSH3 0x8FB PUSH1 0x60 DUP4 ADD DUP7 PUSH3 0x6AC JUMP JUMPDEST DUP2 DUP2 SUB PUSH1 0x80 DUP4 ADD MSTORE PUSH3 0x90E DUP2 PUSH3 0x7A9 JUMP JUMPDEST SWAP1 POP DUP2 DUP2 SUB PUSH1 0xA0 DUP4 ADD MSTORE PUSH3 0x923 DUP2 PUSH3 0x7A9 JUMP JUMPDEST SWAP1 POP PUSH3 0x934 PUSH1 0xC0 DUP4 ADD DUP6 PUSH3 0x6AC JUMP JUMPDEST PUSH3 0x943 PUSH1 0xE0 DUP4 ADD DUP5 PUSH3 0x6BD JUMP JUMPDEST SWAP8 SWAP7 POP POP POP POP POP POP POP JUMP JUMPDEST PUSH1 0x0 PUSH2 0x100 DUP3 ADD SWAP1 POP PUSH3 0x966 PUSH1 0x0 DUP4 ADD DUP10 PUSH3 0x6F0 JUMP JUMPDEST PUSH3 0x975 PUSH1 0x20 DUP4 ADD DUP9 PUSH3 0x6AC JUMP JUMPDEST PUSH3 0x984 PUSH1 0x40 DUP4 ADD DUP8 PUSH3 0x6AC JUMP JUMPDEST PUSH3 0x993 PUSH1 0x60 DUP4 ADD DUP7 PUSH3 0x6AC JUMP JUMPDEST DUP2 DUP2 SUB PUSH1 0x80 DUP4 ADD MSTORE PUSH3 0x9A6 DUP2 PUSH3 0x7F7 JUMP JUMPDEST SWAP1 POP DUP2 DUP2 SUB PUSH1 0xA0 DUP4 ADD MSTORE PUSH3 0x9BB DUP2 PUSH3 0x7F7 JUMP JUMPDEST SWAP1 POP PUSH3 0x9CC PUSH1 0xC0 DUP4 ADD DUP6 PUSH3 0x6AC JUMP JUMPDEST PUSH3 0x9DB PUSH1 0xE0 DUP4 ADD DUP5 PUSH3 0x6BD JUMP JUMPDEST SWAP8 SWAP7 POP POP POP POP POP POP POP JUMP JUMPDEST PUSH1 0x0 PUSH2 0x100 DUP3 ADD SWAP1 POP PUSH3 0x9FE PUSH1 0x0 DUP4 ADD DUP10 PUSH3 0x701 JUMP JUMPDEST PUSH3 0xA0D PUSH1 0x20 DUP4 ADD DUP9 PUSH3 0x6AC JUMP JUMPDEST PUSH3 0xA1C PUSH1 0x40 DUP4 ADD DUP8 PUSH3 0x6AC JUMP JUMPDEST PUSH3 0xA2B PUSH1 0x60 DUP4 ADD DUP7 PUSH3 0x6AC JUMP JUMPDEST DUP2 DUP2 SUB PUSH1 0x80 DUP4 ADD MSTORE PUSH3 0xA3E DUP2 PUSH3 0x734 JUMP JUMPDEST SWAP1 POP DUP2 DUP2 SUB PUSH1 0xA0 DUP4 ADD MSTORE PUSH3 0xA53 DUP2 PUSH3 0x734 JUMP JUMPDEST SWAP1 POP PUSH3 0xA64 PUSH1 0xC0 DUP4 ADD DUP6 PUSH3 0x6AC JUMP JUMPDEST PUSH3 0xA73 PUSH1 0xE0 DUP4 ADD DUP5 PUSH3 0x6BD JUMP JUMPDEST SWAP8 SWAP7 POP POP POP POP POP POP POP JUMP JUMPDEST PUSH1 0x0 PUSH2 0x100 DUP3 ADD SWAP1 POP PUSH3 0xA96 PUSH1 0x0 DUP4 ADD DUP10 PUSH3 0x712 JUMP JUMPDEST PUSH3 0xAA5 PUSH1 0x20 DUP4 ADD DUP9 PUSH3 0x6AC JUMP JUMPDEST PUSH3 0xAB4 PUSH1 0x40 DUP4 ADD DUP8 PUSH3 0x6AC JUMP JUMPDEST PUSH3 0xAC3 PUSH1 0x60 DUP4 ADD DUP7 PUSH3 0x6AC JUMP JUMPDEST DUP2 DUP2 SUB PUSH1 0x80 DUP4 ADD MSTORE PUSH3 0xAD6 DUP2 PUSH3 0x782 JUMP JUMPDEST SWAP1 POP DUP2 DUP2 SUB PUSH1 0xA0 DUP4 ADD MSTORE PUSH3 0xAEB DUP2 PUSH3 0x782 JUMP JUMPDEST SWAP1 POP PUSH3 0xAFC PUSH1 0xC0 DUP4 ADD DUP6 PUSH3 0x6AC JUMP JUMPDEST PUSH3 0xB0B PUSH1 0xE0 DUP4 ADD DUP5 PUSH3 0x6BD JUMP JUMPDEST SWAP8 SWAP7 POP POP POP POP POP POP POP JUMP JUMPDEST PUSH1 0x0 PUSH2 0x100 DUP3 ADD SWAP1 POP PUSH3 0xB2E PUSH1 0x0 DUP4 ADD DUP10 PUSH3 0x723 JUMP JUMPDEST PUSH3 0xB3D PUSH1 0x20 DUP4 ADD DUP9 PUSH3 0x6AC JUMP JUMPDEST PUSH3 0xB4C PUSH1 0x40 DUP4 ADD DUP8 PUSH3 0x6AC JUMP JUMPDEST PUSH3 0xB5B PUSH1 0x60 DUP4 ADD DUP7 PUSH3 0x6AC JUMP JUMPDEST DUP2 DUP2 SUB PUSH1 0x80 DUP4 ADD MSTORE PUSH3 0xB6E DUP2 PUSH3 0x7D0 JUMP JUMPDEST SWAP1 POP DUP2 DUP2 SUB PUSH1 0xA0 DUP4 ADD MSTORE PUSH3 0xB83 DUP2 PUSH3 0x7D0 JUMP JUMPDEST SWAP1 POP PUSH3 0xB94 PUSH1 0xC0 DUP4 ADD DUP6 PUSH3 0x6AC JUMP JUMPDEST PUSH3 0xBA3 PUSH1 0xE0 DUP4 ADD DUP5 PUSH3 0x6BD JUMP JUMPDEST SWAP8 SWAP7 POP POP POP POP POP POP POP JUMP JUMPDEST PUSH1 0x0 DUP3 DUP3 MSTORE PUSH1 0x20 DUP3 ADD SWAP1 POP SWAP3 SWAP2 POP POP JUMP JUMPDEST PUSH1 0x0 PUSH3 0xBCC DUP3 PUSH3 0xBDF JUMP JUMPDEST SWAP1 POP SWAP2 SWAP1 POP JUMP JUMPDEST PUSH1 0x0 DUP2 ISZERO ISZERO SWAP1 POP SWAP2 SWAP1 POP JUMP JUMPDEST PUSH1 0x0 PUSH20 0xFFFFFFFFFFFFFFFFFFFFFFFFFFFFFFFFFFFFFFFF DUP3 AND SWAP1 POP SWAP2 SWAP1 POP JUMP JUMPDEST PUSH1 0x0 DUP2 SWAP1 POP SWAP2 SWAP1 POP JUMP JUMPDEST PUSH1 0x0 PUSH3 0xC16 DUP3 PUSH3 0xBFF JUMP JUMPDEST SWAP1 POP SWAP2 SWAP1 POP JUMP JUMPDEST PUSH1 0x0 PUSH3 0xC2A DUP3 PUSH3 0xBFF JUMP JUMPDEST SWAP1 POP SWAP2 SWAP1 POP JUMP JUMPDEST PUSH1 0x0 PUSH3 0xC3E DUP3 PUSH3 0xBFF JUMP JUMPDEST SWAP1 POP SWAP2 SWAP1 POP JUMP JUMPDEST PUSH1 0x0 PUSH3 0xC52 DUP3 PUSH3 0xBFF JUMP JUMPDEST SWAP1 POP SWAP2 SWAP1 POP JUMP JUMPDEST PUSH1 0x0 PUSH3 0xC66 DUP3 PUSH3 0xBFF JUMP JUMPDEST SWAP1 POP SWAP2 SWAP1 POP JUMP JUMPDEST PUSH1 0x0 PUSH3 0xC7A DUP3 PUSH3 0xBFF JUMP JUMPDEST SWAP1 POP SWAP2 SWAP1 POP JUMP JUMPDEST PUSH1 0x0 DUP1 REVERT JUMPDEST PUSH32 0xF09F918F00000000000000000000000000000000000000000000000000000000 PUSH1 0x0 DUP3 ADD MSTORE POP JUMP JUMPDEST PUSH32 0xF09F98A100000000000000000000000000000000000000000000000000000000 PUSH1 0x0 DUP3 ADD MSTORE POP JUMP JUMPDEST PUSH32 0xF09F929A00000000000000000000000000000000000000000000000000000000 PUSH1 0x0 DUP3 ADD MSTORE POP JUMP JUMPDEST PUSH32 0xF09F918E00000000000000000000000000000000000000000000000000000000 PUSH1 0x0 DUP3 ADD MSTORE POP JUMP JUMPDEST PUSH32 0xF09F8E9F00000000000000000000000000000000000000000000000000000000 PUSH1 0x0 DUP3 ADD MSTORE POP JUMP JUMPDEST PUSH32 0xF09F918D00000000000000000000000000000000000000000000000000000000 PUSH1 0x0 DUP3 ADD MSTORE POP JUMP JUMPDEST PUSH3 0xD87 DUP2 PUSH3 0xBBF JUMP JUMPDEST DUP2 EQ PUSH3 0xD93 JUMPI PUSH1 0x0 DUP1 REVERT JUMPDEST POP JUMP JUMPDEST PUSH2 0x120E DUP1 PUSH3 0xDA6 PUSH1 0x0 CODECOPY PUSH1 0x0 RETURN INVALID PUSH1 0x80 PUSH1 0x40 MSTORE CALLVALUE DUP1 ISZERO PUSH2 0x10 JUMPI PUSH1 0x0 DUP1 REVERT JUMPDEST POP PUSH1 0x4 CALLDATASIZE LT PUSH2 0x41 JUMPI PUSH1 0x0 CALLDATALOAD PUSH1 0xE0 SHR DUP1 PUSH4 0x472F418 EQ PUSH2 0x46 JUMPI DUP1 PUSH4 0x1BAAC960 EQ PUSH2 0x64 JUMPI DUP1 PUSH4 0x86C279A9 EQ PUSH2 0x94 JUMPI JUMPDEST PUSH1 0x0 DUP1 REVERT JUMPDEST PUSH2 0x4E PUSH2 0xB0 JUMP JUMPDEST PUSH1 0x40 MLOAD PUSH2 0x5B SWAP2 SWAP1 PUSH2 0xBE5 JUMP JUMPDEST PUSH1 0x40 MLOAD DUP1 SWAP2 SUB SWAP1 RETURN JUMPDEST PUSH2 0x7E PUSH1 0x4 DUP1 CALLDATASIZE SUB DUP2 ADD SWAP1 PUSH2 0x79 SWAP2 SWAP1 PUSH2 0x89D JUMP JUMPDEST PUSH2 0x2CE JUMP JUMPDEST PUSH1 0x40 MLOAD PUSH2 0x8B SWAP2 SWAP1 PUSH2 0xC5B JUMP JUMPDEST PUSH1 0x40 MLOAD DUP1 SWAP2 SUB SWAP1 RETURN JUMPDEST PUSH2 0xAE PUSH1 0x4 DUP1 CALLDATASIZE SUB DUP2 ADD SWAP1 PUSH2 0xA9 SWAP2 SWAP1 PUSH2 0x84A JUMP JUMPDEST PUSH2 0x396 JUMP JUMPDEST STOP JUMPDEST PUSH2 0xB8 PUSH2 0x779 JUMP JUMPDEST PUSH1 0x40 MLOAD DUP1 PUSH1 0xA0 ADD PUSH1 0x40 MSTORE DUP1 PUSH1 0x9 PUSH1 0x0 PUSH1 0x5 DUP2 LT PUSH2 0xD8 JUMPI PUSH2 0xD7 PUSH2 0x104F JUMP JUMPDEST JUMPDEST ADD PUSH1 0x0 SWAP1 SLOAD SWAP1 PUSH2 0x100 EXP SWAP1 DIV PUSH20 0xFFFFFFFFFFFFFFFFFFFFFFFFFFFFFFFFFFFFFFFF AND PUSH20 0xFFFFFFFFFFFFFFFFFFFFFFFFFFFFFFFFFFFFFFFF AND PUSH20 0xFFFFFFFFFFFFFFFFFFFFFFFFFFFFFFFFFFFFFFFF AND DUP2 MSTORE PUSH1 0x20 ADD PUSH1 0x9 PUSH1 0x1 PUSH1 0x5 DUP2 LT PUSH2 0x140 JUMPI PUSH2 0x13F PUSH2 0x104F JUMP JUMPDEST JUMPDEST ADD PUSH1 0x0 SWAP1 SLOAD SWAP1 PUSH2 0x100 EXP SWAP1 DIV PUSH20 0xFFFFFFFFFFFFFFFFFFFFFFFFFFFFFFFFFFFFFFFF AND PUSH20 0xFFFFFFFFFFFFFFFFFFFFFFFFFFFFFFFFFFFFFFFF AND PUSH20 0xFFFFFFFFFFFFFFFFFFFFFFFFFFFFFFFFFFFFFFFF AND DUP2 MSTORE PUSH1 0x20 ADD PUSH1 0x9 PUSH1 0x2 PUSH1 0x5 DUP2 LT PUSH2 0x1A8 JUMPI PUSH2 0x1A7 PUSH2 0x104F JUMP JUMPDEST JUMPDEST ADD PUSH1 0x0 SWAP1 SLOAD SWAP1 PUSH2 0x100 EXP SWAP1 DIV PUSH20 0xFFFFFFFFFFFFFFFFFFFFFFFFFFFFFFFFFFFFFFFF AND PUSH20 0xFFFFFFFFFFFFFFFFFFFFFFFFFFFFFFFFFFFFFFFF AND PUSH20 0xFFFFFFFFFFFFFFFFFFFFFFFFFFFFFFFFFFFFFFFF AND DUP2 MSTORE PUSH1 0x20 ADD PUSH1 0x9 PUSH1 0x3 PUSH1 0x5 DUP2 LT PUSH2 0x210 JUMPI PUSH2 0x20F PUSH2 0x104F JUMP JUMPDEST JUMPDEST ADD PUSH1 0x0 SWAP1 SLOAD SWAP1 PUSH2 0x100 EXP SWAP1 DIV PUSH20 0xFFFFFFFFFFFFFFFFFFFFFFFFFFFFFFFFFFFFFFFF AND PUSH20 0xFFFFFFFFFFFFFFFFFFFFFFFFFFFFFFFFFFFFFFFF AND PUSH20 0xFFFFFFFFFFFFFFFFFFFFFFFFFFFFFFFFFFFFFFFF AND DUP2 MSTORE PUSH1 0x20 ADD PUSH1 0x9 PUSH1 0x4 PUSH1 0x5 DUP2 LT PUSH2 0x278 JUMPI PUSH2 0x277 PUSH2 0x104F JUMP JUMPDEST JUMPDEST ADD PUSH1 0x0 SWAP1 SLOAD SWAP1 PUSH2 0x100 EXP SWAP1 DIV PUSH20 0xFFFFFFFFFFFFFFFFFFFFFFFFFFFFFFFFFFFFFFFF AND PUSH20 0xFFFFFFFFFFFFFFFFFFFFFFFFFFFFFFFFFFFFFFFF AND PUSH20 0xFFFFFFFFFFFFFFFFFFFFFFFFFFFFFFFFFFFFFFFF AND DUP2 MSTORE POP SWAP1 POP SWAP1 JUMP JUMPDEST PUSH1 0x0 PUSH1 0x9 DUP3 PUSH1 0x5 DUP2 LT PUSH2 0x2E4 JUMPI PUSH2 0x2E3 PUSH2 0x104F JUMP JUMPDEST JUMPDEST ADD PUSH1 0x0 SWAP1 SLOAD SWAP1 PUSH2 0x100 EXP SWAP1 DIV PUSH20 0xFFFFFFFFFFFFFFFFFFFFFFFFFFFFFFFFFFFFFFFF AND PUSH20 0xFFFFFFFFFFFFFFFFFFFFFFFFFFFFFFFFFFFFFFFF AND PUSH4 0x70A08231 DUP5 PUSH1 0x40 MLOAD DUP3 PUSH4 0xFFFFFFFF AND PUSH1 0xE0 SHL DUP2 MSTORE PUSH1 0x4 ADD PUSH2 0x33E SWAP2 SWAP1 PUSH2 0xB72 JUMP JUMPDEST PUSH1 0x20 PUSH1 0x40 MLOAD DUP1 DUP4 SUB DUP2 DUP7 DUP1 EXTCODESIZE ISZERO DUP1 ISZERO PUSH2 0x356 JUMPI PUSH1 0x0 DUP1 REVERT JUMPDEST POP GAS STATICCALL ISZERO DUP1 ISZERO PUSH2 0x36A JUMPI RETURNDATASIZE PUSH1 0x0 DUP1 RETURNDATACOPY RETURNDATASIZE PUSH1 0x0 REVERT JUMPDEST POP POP POP POP PUSH1 0x40 MLOAD RETURNDATASIZE PUSH1 0x1F NOT PUSH1 0x1F DUP3 ADD AND DUP3 ADD DUP1 PUSH1 0x40 MSTORE POP DUP2 ADD SWAP1 PUSH2 0x38E SWAP2 SWAP1 PUSH2 0x926 JUMP JUMPDEST SWAP1 POP SWAP3 SWAP2 POP POP JUMP JUMPDEST DUP1 PUSH1 0x0 DUP2 LT ISZERO DUP1 ISZERO PUSH2 0x3A9 JUMPI POP PUSH1 0x4 DUP2 GT ISZERO JUMPDEST PUSH2 0x3E8 JUMPI PUSH1 0x40 MLOAD PUSH32 0x8C379A000000000000000000000000000000000000000000000000000000000 DUP2 MSTORE PUSH1 0x4 ADD PUSH2 0x3DF SWAP1 PUSH2 0xC1B JUMP JUMPDEST PUSH1 0x40 MLOAD DUP1 SWAP2 SUB SWAP1 REVERT JUMPDEST DUP4 DUP1 PUSH20 0xFFFFFFFFFFFFFFFFFFFFFFFFFFFFFFFFFFFFFFFF AND CALLER PUSH20 0xFFFFFFFFFFFFFFFFFFFFFFFFFFFFFFFFFFFFFFFF AND EQ DUP1 PUSH2 0x428 JUMPI POP PUSH2 0x427 DUP2 PUSH2 0x483 JUMP JUMPDEST JUMPDEST PUSH2 0x467 JUMPI PUSH1 0x40 MLOAD PUSH32 0x8C379A000000000000000000000000000000000000000000000000000000000 DUP2 MSTORE PUSH1 0x4 ADD PUSH2 0x45E SWAP1 PUSH2 0xC3B JUMP JUMPDEST PUSH1 0x40 MLOAD DUP1 SWAP2 SUB SWAP1 REVERT JUMPDEST PUSH2 0x472 DUP6 DUP6 DUP6 PUSH2 0x635 JUMP JUMPDEST PUSH2 0x47C DUP5 DUP7 PUSH2 0x6E1 JUMP JUMPDEST POP POP POP POP POP JUMP JUMPDEST PUSH1 0x0 DUP1 PUSH32 0x4B80742DE2BFC4E96C4646A1A3AB0D953CEFC439A036841C29CE43FB2653EC7D PUSH32 0x82ACB3630321A1F0EBA31ED50A758FEB535243577C1A79AE55BED8CA03E226EC PUSH1 0x0 PUSH1 0xF0 SHL CALLER PUSH1 0x60 SHL PUSH1 0x40 MLOAD PUSH1 0x20 ADD PUSH2 0x4E4 SWAP5 SWAP4 SWAP3 SWAP2 SWAP1 PUSH2 0xB24 JUMP JUMPDEST PUSH1 0x40 MLOAD PUSH1 0x20 DUP2 DUP4 SUB SUB DUP2 MSTORE SWAP1 PUSH1 0x40 MSTORE SWAP1 POP PUSH1 0x0 DUP4 PUSH20 0xFFFFFFFFFFFFFFFFFFFFFFFFFFFFFFFFFFFFFFFF AND PUSH4 0x54F6127F DUP4 PUSH2 0x51D SWAP1 PUSH2 0xF11 JUMP JUMPDEST PUSH1 0x40 MLOAD DUP3 PUSH4 0xFFFFFFFF AND PUSH1 0xE0 SHL DUP2 MSTORE PUSH1 0x4 ADD PUSH2 0x539 SWAP2 SWAP1 PUSH2 0xC00 JUMP JUMPDEST PUSH1 0x0 PUSH1 0x40 MLOAD DUP1 DUP4 SUB DUP2 DUP7 DUP1 EXTCODESIZE ISZERO DUP1 ISZERO PUSH2 0x551 JUMPI PUSH1 0x0 DUP1 REVERT JUMPDEST POP GAS STATICCALL ISZERO DUP1 ISZERO PUSH2 0x565 JUMPI RETURNDATASIZE PUSH1 0x0 DUP1 RETURNDATACOPY RETURNDATASIZE PUSH1 0x0 REVERT JUMPDEST POP POP POP POP PUSH1 0x40 MLOAD RETURNDATASIZE PUSH1 0x0 DUP3 RETURNDATACOPY RETURNDATASIZE PUSH1 0x1F NOT PUSH1 0x1F DUP3 ADD AND DUP3 ADD DUP1 PUSH1 0x40 MSTORE POP DUP2 ADD SWAP1 PUSH2 0x58E SWAP2 SWAP1 PUSH2 0x8DD JUMP JUMPDEST SWAP1 POP PUSH1 0x0 DUP2 PUSH1 0x1E DUP2 MLOAD DUP2 LT PUSH2 0x5A6 JUMPI PUSH2 0x5A5 PUSH2 0x104F JUMP JUMPDEST JUMPDEST PUSH1 0x20 ADD ADD MLOAD PUSH1 0xF8 SHR PUSH1 0xF8 SHL DUP3 PUSH1 0x1F DUP2 MLOAD DUP2 LT PUSH2 0x5C5 JUMPI PUSH2 0x5C4 PUSH2 0x104F JUMP JUMPDEST JUMPDEST PUSH1 0x20 ADD ADD MLOAD PUSH1 0xF8 SHR PUSH1 0xF8 SHL PUSH1 0x40 MLOAD PUSH1 0x20 ADD PUSH2 0x5E1 SWAP3 SWAP2 SWAP1 PUSH2 0xAF8 JUMP JUMPDEST PUSH1 0x40 MLOAD PUSH1 0x20 DUP2 DUP4 SUB SUB DUP2 MSTORE SWAP1 PUSH1 0x40 MSTORE PUSH2 0x5F9 SWAP1 PUSH2 0xEAA JUMP JUMPDEST PUSH1 0xF0 SHR SWAP1 POP PUSH1 0x30 PUSH1 0x20 DUP3 AND PUSH1 0x10 DUP4 AND PUSH2 0x612 SWAP2 SWAP1 PUSH2 0xD36 JUMP JUMPDEST PUSH2 0xFFFF AND EQ ISZERO PUSH2 0x628 JUMPI PUSH1 0x1 SWAP4 POP POP POP POP PUSH2 0x630 JUMP JUMPDEST PUSH1 0x0 SWAP4 POP POP POP POP JUMPDEST SWAP2 SWAP1 POP JUMP JUMPDEST PUSH1 0x9 DUP2 PUSH1 0x5 DUP2 LT PUSH2 0x649 JUMPI PUSH2 0x648 PUSH2 0x104F JUMP JUMPDEST JUMPDEST ADD PUSH1 0x0 SWAP1 SLOAD SWAP1 PUSH2 0x100 EXP SWAP1 DIV PUSH20 0xFFFFFFFFFFFFFFFFFFFFFFFFFFFFFFFFFFFFFFFF AND PUSH20 0xFFFFFFFFFFFFFFFFFFFFFFFFFFFFFFFFFFFFFFFF AND PUSH4 0x713992FA DUP5 DUP5 PUSH1 0x1 DUP1 PUSH1 0x40 MLOAD DUP6 PUSH4 0xFFFFFFFF AND PUSH1 0xE0 SHL DUP2 MSTORE PUSH1 0x4 ADD PUSH2 0x6AA SWAP5 SWAP4 SWAP3 SWAP2 SWAP1 PUSH2 0xB8D JUMP JUMPDEST PUSH1 0x0 PUSH1 0x40 MLOAD DUP1 DUP4 SUB DUP2 PUSH1 0x0 DUP8 DUP1 EXTCODESIZE ISZERO DUP1 ISZERO PUSH2 0x6C4 JUMPI PUSH1 0x0 DUP1 REVERT JUMPDEST POP GAS CALL ISZERO DUP1 ISZERO PUSH2 0x6D8 JUMPI RETURNDATASIZE PUSH1 0x0 DUP1 RETURNDATACOPY RETURNDATASIZE PUSH1 0x0 REVERT JUMPDEST POP POP POP POP POP POP POP JUMP JUMPDEST PUSH1 0x8 PUSH1 0x0 SWAP1 SLOAD SWAP1 PUSH2 0x100 EXP SWAP1 DIV PUSH20 0xFFFFFFFFFFFFFFFFFFFFFFFFFFFFFFFFFFFFFFFF AND PUSH20 0xFFFFFFFFFFFFFFFFFFFFFFFFFFFFFFFFFFFFFFFF AND PUSH4 0x713992FA DUP3 DUP5 PUSH1 0x1 DUP1 PUSH1 0x40 MLOAD DUP6 PUSH4 0xFFFFFFFF AND PUSH1 0xE0 SHL DUP2 MSTORE PUSH1 0x4 ADD PUSH2 0x743 SWAP5 SWAP4 SWAP3 SWAP2 SWAP1 PUSH2 0xB8D JUMP JUMPDEST PUSH1 0x0 PUSH1 0x40 MLOAD DUP1 DUP4 SUB DUP2 PUSH1 0x0 DUP8 DUP1 EXTCODESIZE ISZERO DUP1 ISZERO PUSH2 0x75D JUMPI PUSH1 0x0 DUP1 REVERT JUMPDEST POP GAS CALL ISZERO DUP1 ISZERO PUSH2 0x771 JUMPI RETURNDATASIZE PUSH1 0x0 DUP1 RETURNDATACOPY RETURNDATASIZE PUSH1 0x0 REVERT JUMPDEST POP POP POP POP POP POP JUMP JUMPDEST PUSH1 0x40 MLOAD DUP1 PUSH1 0xA0 ADD PUSH1 0x40 MSTORE DUP1 PUSH1 0x5 SWAP1 PUSH1 0x20 DUP3 MUL DUP1 CALLDATASIZE DUP4 CALLDATACOPY DUP1 DUP3 ADD SWAP2 POP POP SWAP1 POP POP SWAP1 JUMP JUMPDEST PUSH1 0x0 PUSH2 0x7AE PUSH2 0x7A9 DUP5 PUSH2 0xC9B JUMP JUMPDEST PUSH2 0xC76 JUMP JUMPDEST SWAP1 POP DUP3 DUP2 MSTORE PUSH1 0x20 DUP2 ADD DUP5 DUP5 DUP5 ADD GT ISZERO PUSH2 0x7CA JUMPI PUSH2 0x7C9 PUSH2 0x10DC JUMP JUMPDEST JUMPDEST PUSH2 0x7D5 DUP5 DUP3 DUP6 PUSH2 0xF8A JUMP JUMPDEST POP SWAP4 SWAP3 POP POP POP JUMP JUMPDEST PUSH1 0x0 DUP2 CALLDATALOAD SWAP1 POP PUSH2 0x7EC DUP2 PUSH2 0x11AA JUMP JUMPDEST SWAP3 SWAP2 POP POP JUMP JUMPDEST PUSH1 0x0 DUP3 PUSH1 0x1F DUP4 ADD SLT PUSH2 0x807 JUMPI PUSH2 0x806 PUSH2 0x10D7 JUMP JUMPDEST JUMPDEST DUP2 MLOAD PUSH2 0x817 DUP5 DUP3 PUSH1 0x20 DUP7 ADD PUSH2 0x79B JUMP JUMPDEST SWAP2 POP POP SWAP3 SWAP2 POP POP JUMP JUMPDEST PUSH1 0x0 DUP2 CALLDATALOAD SWAP1 POP PUSH2 0x82F DUP2 PUSH2 0x11C1 JUMP JUMPDEST SWAP3 SWAP2 POP POP JUMP JUMPDEST PUSH1 0x0 DUP2 MLOAD SWAP1 POP PUSH2 0x844 DUP2 PUSH2 0x11C1 JUMP JUMPDEST SWAP3 SWAP2 POP POP JUMP JUMPDEST PUSH1 0x0 DUP1 PUSH1 0x0 PUSH1 0x60 DUP5 DUP7 SUB SLT ISZERO PUSH2 0x863 JUMPI PUSH2 0x862 PUSH2 0x10E6 JUMP JUMPDEST JUMPDEST PUSH1 0x0 PUSH2 0x871 DUP7 DUP3 DUP8 ADD PUSH2 0x7DD JUMP JUMPDEST SWAP4 POP POP PUSH1 0x20 PUSH2 0x882 DUP7 DUP3 DUP8 ADD PUSH2 0x7DD JUMP JUMPDEST SWAP3 POP POP PUSH1 0x40 PUSH2 0x893 DUP7 DUP3 DUP8 ADD PUSH2 0x820 JUMP JUMPDEST SWAP2 POP POP SWAP3 POP SWAP3 POP SWAP3 JUMP JUMPDEST PUSH1 0x0 DUP1 PUSH1 0x40 DUP4 DUP6 SUB SLT ISZERO PUSH2 0x8B4 JUMPI PUSH2 0x8B3 PUSH2 0x10E6 JUMP JUMPDEST JUMPDEST PUSH1 0x0 PUSH2 0x8C2 DUP6 DUP3 DUP7 ADD PUSH2 0x7DD JUMP JUMPDEST SWAP3 POP POP PUSH1 0x20 PUSH2 0x8D3 DUP6 DUP3 DUP7 ADD PUSH2 0x820 JUMP JUMPDEST SWAP2 POP POP SWAP3 POP SWAP3 SWAP1 POP JUMP JUMPDEST PUSH1 0x0 PUSH1 0x20 DUP3 DUP5 SUB SLT ISZERO PUSH2 0x8F3 JUMPI PUSH2 0x8F2 PUSH2 0x10E6 JUMP JUMPDEST JUMPDEST PUSH1 0x0 DUP3 ADD MLOAD PUSH8 0xFFFFFFFFFFFFFFFF DUP2 GT ISZERO PUSH2 0x911 JUMPI PUSH2 0x910 PUSH2 0x10E1 JUMP JUMPDEST JUMPDEST PUSH2 0x91D DUP5 DUP3 DUP6 ADD PUSH2 0x7F2 JUMP JUMPDEST SWAP2 POP POP SWAP3 SWAP2 POP POP JUMP JUMPDEST PUSH1 0x0 PUSH1 0x20 DUP3 DUP5 SUB SLT ISZERO PUSH2 0x93C JUMPI PUSH2 0x93B PUSH2 0x10E6 JUMP JUMPDEST JUMPDEST PUSH1 0x0 PUSH2 0x94A DUP5 DUP3 DUP6 ADD PUSH2 0x835 JUMP JUMPDEST SWAP2 POP POP SWAP3 SWAP2 POP POP JUMP JUMPDEST PUSH1 0x0 PUSH2 0x95F DUP4 DUP4 PUSH2 0x96B JUMP JUMPDEST PUSH1 0x20 DUP4 ADD SWAP1 POP SWAP3 SWAP2 POP POP JUMP JUMPDEST PUSH2 0x974 DUP2 PUSH2 0xD6E JUMP JUMPDEST DUP3 MSTORE POP POP JUMP JUMPDEST PUSH2 0x983 DUP2 PUSH2 0xD6E JUMP JUMPDEST DUP3 MSTORE POP POP JUMP JUMPDEST PUSH2 0x992 DUP2 PUSH2 0xCE6 JUMP JUMPDEST PUSH2 0x99C DUP2 DUP5 PUSH2 0xD09 JUMP JUMPDEST SWAP3 POP PUSH2 0x9A7 DUP3 PUSH2 0xCCC JUMP JUMPDEST DUP1 PUSH1 0x0 JUMPDEST DUP4 DUP2 LT ISZERO PUSH2 0x9D8 JUMPI DUP2 MLOAD PUSH2 0x9BF DUP8 DUP3 PUSH2 0x953 JUMP JUMPDEST SWAP7 POP PUSH2 0x9CA DUP4 PUSH2 0xCFC JUMP JUMPDEST SWAP3 POP POP PUSH1 0x1 DUP2 ADD SWAP1 POP PUSH2 0x9AB JUMP JUMPDEST POP POP POP POP POP POP JUMP JUMPDEST PUSH2 0x9E9 DUP2 PUSH2 0xD80 JUMP JUMPDEST DUP3 MSTORE POP POP JUMP JUMPDEST PUSH2 0xA00 PUSH2 0x9FB DUP3 PUSH2 0xD8C JUMP JUMPDEST PUSH2 0xFEE JUMP JUMPDEST DUP3 MSTORE POP POP JUMP JUMPDEST PUSH2 0xA17 PUSH2 0xA12 DUP3 PUSH2 0xDE4 JUMP JUMPDEST PUSH2 0x1002 JUMP JUMPDEST DUP3 MSTORE POP POP JUMP JUMPDEST PUSH2 0xA2E PUSH2 0xA29 DUP3 PUSH2 0xDB8 JUMP JUMPDEST PUSH2 0xFF8 JUMP JUMPDEST DUP3 MSTORE POP POP JUMP JUMPDEST PUSH2 0xA3D DUP2 PUSH2 0xE10 JUMP JUMPDEST DUP3 MSTORE POP POP JUMP JUMPDEST PUSH2 0xA54 PUSH2 0xA4F DUP3 PUSH2 0xE1A JUMP JUMPDEST PUSH2 0x100C JUMP JUMPDEST DUP3 MSTORE POP POP JUMP JUMPDEST PUSH2 0xA6B PUSH2 0xA66 DUP3 PUSH2 0xE46 JUMP JUMPDEST PUSH2 0x1016 JUMP JUMPDEST DUP3 MSTORE POP POP JUMP JUMPDEST PUSH2 0xA7A DUP2 PUSH2 0xF78 JUMP JUMPDEST DUP3 MSTORE POP POP JUMP JUMPDEST PUSH1 0x0 PUSH2 0xA8D PUSH1 0x2F DUP4 PUSH2 0xD25 JUMP JUMPDEST SWAP2 POP PUSH2 0xA98 DUP3 PUSH2 0x1109 JUMP JUMPDEST PUSH1 0x40 DUP3 ADD SWAP1 POP SWAP2 SWAP1 POP JUMP JUMPDEST PUSH1 0x0 PUSH2 0xAB0 PUSH1 0x31 DUP4 PUSH2 0xD25 JUMP JUMPDEST SWAP2 POP PUSH2 0xABB DUP3 PUSH2 0x1158 JUMP JUMPDEST PUSH1 0x40 DUP3 ADD SWAP1 POP SWAP2 SWAP1 POP JUMP JUMPDEST PUSH1 0x0 PUSH2 0xAD3 PUSH1 0x0 DUP4 PUSH2 0xD14 JUMP JUMPDEST SWAP2 POP PUSH2 0xADE DUP3 PUSH2 0x11A7 JUMP JUMPDEST PUSH1 0x0 DUP3 ADD SWAP1 POP SWAP2 SWAP1 POP JUMP JUMPDEST PUSH2 0xAF2 DUP2 PUSH2 0xEA0 JUMP JUMPDEST DUP3 MSTORE POP POP JUMP JUMPDEST PUSH1 0x0 PUSH2 0xB04 DUP3 DUP6 PUSH2 0x9EF JUMP JUMPDEST PUSH1 0x1 DUP3 ADD SWAP2 POP PUSH2 0xB14 DUP3 DUP5 PUSH2 0x9EF JUMP JUMPDEST PUSH1 0x1 DUP3 ADD SWAP2 POP DUP2 SWAP1 POP SWAP4 SWAP3 POP POP POP JUMP JUMPDEST PUSH1 0x0 PUSH2 0xB30 DUP3 DUP8 PUSH2 0xA5A JUMP JUMPDEST PUSH1 0x6 DUP3 ADD SWAP2 POP PUSH2 0xB40 DUP3 DUP7 PUSH2 0xA43 JUMP JUMPDEST PUSH1 0x4 DUP3 ADD SWAP2 POP PUSH2 0xB50 DUP3 DUP6 PUSH2 0xA1D JUMP JUMPDEST PUSH1 0x2 DUP3 ADD SWAP2 POP PUSH2 0xB60 DUP3 DUP5 PUSH2 0xA06 JUMP JUMPDEST PUSH1 0x14 DUP3 ADD SWAP2 POP DUP2 SWAP1 POP SWAP6 SWAP5 POP POP POP POP POP JUMP JUMPDEST PUSH1 0x0 PUSH1 0x20 DUP3 ADD SWAP1 POP PUSH2 0xB87 PUSH1 0x0 DUP4 ADD DUP5 PUSH2 0x97A JUMP JUMPDEST SWAP3 SWAP2 POP POP JUMP JUMPDEST PUSH1 0x0 PUSH1 0xA0 DUP3 ADD SWAP1 POP PUSH2 0xBA2 PUSH1 0x0 DUP4 ADD DUP8 PUSH2 0x97A JUMP JUMPDEST PUSH2 0xBAF PUSH1 0x20 DUP4 ADD DUP7 PUSH2 0x97A JUMP JUMPDEST PUSH2 0xBBC PUSH1 0x40 DUP4 ADD DUP6 PUSH2 0xA71 JUMP JUMPDEST PUSH2 0xBC9 PUSH1 0x60 DUP4 ADD DUP5 PUSH2 0x9E0 JUMP JUMPDEST DUP2 DUP2 SUB PUSH1 0x80 DUP4 ADD MSTORE PUSH2 0xBDA DUP2 PUSH2 0xAC6 JUMP JUMPDEST SWAP1 POP SWAP6 SWAP5 POP POP POP POP POP JUMP JUMPDEST PUSH1 0x0 PUSH1 0xA0 DUP3 ADD SWAP1 POP PUSH2 0xBFA PUSH1 0x0 DUP4 ADD DUP5 PUSH2 0x989 JUMP JUMPDEST SWAP3 SWAP2 POP POP JUMP JUMPDEST PUSH1 0x0 PUSH1 0x20 DUP3 ADD SWAP1 POP PUSH2 0xC15 PUSH1 0x0 DUP4 ADD DUP5 PUSH2 0xA34 JUMP JUMPDEST SWAP3 SWAP2 POP POP JUMP JUMPDEST PUSH1 0x0 PUSH1 0x20 DUP3 ADD SWAP1 POP DUP2 DUP2 SUB PUSH1 0x0 DUP4 ADD MSTORE PUSH2 0xC34 DUP2 PUSH2 0xA80 JUMP JUMPDEST SWAP1 POP SWAP2 SWAP1 POP JUMP JUMPDEST PUSH1 0x0 PUSH1 0x20 DUP3 ADD SWAP1 POP DUP2 DUP2 SUB PUSH1 0x0 DUP4 ADD MSTORE PUSH2 0xC54 DUP2 PUSH2 0xAA3 JUMP JUMPDEST SWAP1 POP SWAP2 SWAP1 POP JUMP JUMPDEST PUSH1 0x0 PUSH1 0x20 DUP3 ADD SWAP1 POP PUSH2 0xC70 PUSH1 0x0 DUP4 ADD DUP5 PUSH2 0xAE9 JUMP JUMPDEST SWAP3 SWAP2 POP POP JUMP JUMPDEST PUSH1 0x0 PUSH2 0xC80 PUSH2 0xC91 JUMP JUMPDEST SWAP1 POP PUSH2 0xC8C DUP3 DUP3 PUSH2 0xFBD JUMP JUMPDEST SWAP2 SWAP1 POP JUMP JUMPDEST PUSH1 0x0 PUSH1 0x40 MLOAD SWAP1 POP SWAP1 JUMP JUMPDEST PUSH1 0x0 PUSH8 0xFFFFFFFFFFFFFFFF DUP3 GT ISZERO PUSH2 0xCB6 JUMPI PUSH2 0xCB5 PUSH2 0x107E JUMP JUMPDEST JUMPDEST PUSH2 0xCBF DUP3 PUSH2 0x10EB JUMP JUMPDEST SWAP1 POP PUSH1 0x20 DUP2 ADD SWAP1 POP SWAP2 SWAP1 POP JUMP JUMPDEST PUSH1 0x0 DUP2 SWAP1 POP SWAP2 SWAP1 POP JUMP JUMPDEST PUSH1 0x0 DUP2 SWAP1 POP PUSH1 0x20 DUP3 ADD SWAP1 POP SWAP2 SWAP1 POP JUMP JUMPDEST PUSH1 0x0 PUSH1 0x5 SWAP1 POP SWAP2 SWAP1 POP JUMP JUMPDEST PUSH1 0x0 DUP2 MLOAD SWAP1 POP SWAP2 SWAP1 POP JUMP JUMPDEST PUSH1 0x0 PUSH1 0x20 DUP3 ADD SWAP1 POP SWAP2 SWAP1 POP JUMP JUMPDEST PUSH1 0x0 DUP2 SWAP1 POP SWAP3 SWAP2 POP POP JUMP JUMPDEST PUSH1 0x0 DUP3 DUP3 MSTORE PUSH1 0x20 DUP3 ADD SWAP1 POP SWAP3 SWAP2 POP POP JUMP JUMPDEST PUSH1 0x0 DUP3 DUP3 MSTORE PUSH1 0x20 DUP3 ADD SWAP1 POP SWAP3 SWAP2 POP POP JUMP JUMPDEST PUSH1 0x0 PUSH2 0xD41 DUP3 PUSH2 0xE72 JUMP JUMPDEST SWAP2 POP PUSH2 0xD4C DUP4 PUSH2 0xE72 JUMP JUMPDEST SWAP3 POP DUP3 PUSH2 0xFFFF SUB DUP3 GT ISZERO PUSH2 0xD63 JUMPI PUSH2 0xD62 PUSH2 0x1020 JUMP JUMPDEST JUMPDEST DUP3 DUP3 ADD SWAP1 POP SWAP3 SWAP2 POP POP JUMP JUMPDEST PUSH1 0x0 PUSH2 0xD79 DUP3 PUSH2 0xE80 JUMP JUMPDEST SWAP1 POP SWAP2 SWAP1 POP JUMP JUMPDEST PUSH1 0x0 DUP2 ISZERO ISZERO SWAP1 POP SWAP2 SWAP1 POP JUMP JUMPDEST PUSH1 0x0 PUSH32 0xFF00000000000000000000000000000000000000000000000000000000000000 DUP3 AND SWAP1 POP SWAP2 SWAP1 POP JUMP JUMPDEST PUSH1 0x0 PUSH32 0xFFFF000000000000000000000000000000000000000000000000000000000000 DUP3 AND SWAP1 POP SWAP2 SWAP1 POP JUMP JUMPDEST PUSH1 0x0 PUSH32 0xFFFFFFFFFFFFFFFFFFFFFFFFFFFFFFFFFFFFFFFF000000000000000000000000 DUP3 AND SWAP1 POP SWAP2 SWAP1 POP JUMP JUMPDEST PUSH1 0x0 DUP2 SWAP1 POP SWAP2 SWAP1 POP JUMP JUMPDEST PUSH1 0x0 PUSH32 0xFFFFFFFF00000000000000000000000000000000000000000000000000000000 DUP3 AND SWAP1 POP SWAP2 SWAP1 POP JUMP JUMPDEST PUSH1 0x0 PUSH32 0xFFFFFFFFFFFF0000000000000000000000000000000000000000000000000000 DUP3 AND SWAP1 POP SWAP2 SWAP1 POP JUMP JUMPDEST PUSH1 0x0 PUSH2 0xFFFF DUP3 AND SWAP1 POP SWAP2 SWAP1 POP JUMP JUMPDEST PUSH1 0x0 PUSH20 0xFFFFFFFFFFFFFFFFFFFFFFFFFFFFFFFFFFFFFFFF DUP3 AND SWAP1 POP SWAP2 SWAP1 POP JUMP JUMPDEST PUSH1 0x0 DUP2 SWAP1 POP SWAP2 SWAP1 POP JUMP JUMPDEST PUSH1 0x0 PUSH2 0xEB5 DUP3 PUSH2 0xCF1 JUMP JUMPDEST DUP3 PUSH2 0xEBF DUP5 PUSH2 0xCD6 JUMP JUMPDEST SWAP1 POP PUSH2 0xECA DUP2 PUSH2 0x10AD JUMP JUMPDEST SWAP3 POP PUSH1 0x2 DUP3 LT ISZERO PUSH2 0xF0A JUMPI PUSH2 0xF05 PUSH32 0xFFFF000000000000000000000000000000000000000000000000000000000000 DUP4 PUSH1 0x2 SUB PUSH1 0x8 MUL PUSH2 0x10FC JUMP JUMPDEST DUP4 AND SWAP3 POP JUMPDEST POP POP SWAP2 SWAP1 POP JUMP JUMPDEST PUSH1 0x0 PUSH2 0xF1C DUP3 PUSH2 0xCF1 JUMP JUMPDEST DUP3 PUSH2 0xF26 DUP5 PUSH2 0xCD6 JUMP JUMPDEST SWAP1 POP PUSH2 0xF31 DUP2 PUSH2 0x10C2 JUMP JUMPDEST SWAP3 POP PUSH1 0x20 DUP3 LT ISZERO PUSH2 0xF71 JUMPI PUSH2 0xF6C PUSH32 0xFFFFFFFFFFFFFFFFFFFFFFFFFFFFFFFFFFFFFFFFFFFFFFFFFFFFFFFFFFFFFFFF DUP4 PUSH1 0x20 SUB PUSH1 0x8 MUL PUSH2 0x10FC JUMP JUMPDEST DUP4 AND SWAP3 POP JUMPDEST POP POP SWAP2 SWAP1 POP JUMP JUMPDEST PUSH1 0x0 PUSH2 0xF83 DUP3 PUSH2 0xEA0 JUMP JUMPDEST SWAP1 POP SWAP2 SWAP1 POP JUMP JUMPDEST PUSH1 0x0 JUMPDEST DUP4 DUP2 LT ISZERO PUSH2 0xFA8 JUMPI DUP1 DUP3 ADD MLOAD DUP2 DUP5 ADD MSTORE PUSH1 0x20 DUP2 ADD SWAP1 POP PUSH2 0xF8D JUMP JUMPDEST DUP4 DUP2 GT ISZERO PUSH2 0xFB7 JUMPI PUSH1 0x0 DUP5 DUP5 ADD MSTORE JUMPDEST POP POP POP POP JUMP JUMPDEST PUSH2 0xFC6 DUP3 PUSH2 0x10EB JUMP JUMPDEST DUP2 ADD DUP2 DUP2 LT PUSH8 0xFFFFFFFFFFFFFFFF DUP3 GT OR ISZERO PUSH2 0xFE5 JUMPI PUSH2 0xFE4 PUSH2 0x107E JUMP JUMPDEST JUMPDEST DUP1 PUSH1 0x40 MSTORE POP POP POP JUMP JUMPDEST PUSH1 0x0 DUP2 SWAP1 POP SWAP2 SWAP1 POP JUMP JUMPDEST PUSH1 0x0 DUP2 SWAP1 POP SWAP2 SWAP1 POP JUMP JUMPDEST PUSH1 0x0 DUP2 SWAP1 POP SWAP2 SWAP1 POP JUMP JUMPDEST PUSH1 0x0 DUP2 SWAP1 POP SWAP2 SWAP1 POP JUMP JUMPDEST PUSH1 0x0 DUP2 SWAP1 POP SWAP2 SWAP1 POP JUMP JUMPDEST PUSH32 0x4E487B7100000000000000000000000000000000000000000000000000000000 PUSH1 0x0 MSTORE PUSH1 0x11 PUSH1 0x4 MSTORE PUSH1 0x24 PUSH1 0x0 REVERT JUMPDEST PUSH32 0x4E487B7100000000000000000000000000000000000000000000000000000000 PUSH1 0x0 MSTORE PUSH1 0x32 PUSH1 0x4 MSTORE PUSH1 0x24 PUSH1 0x0 REVERT JUMPDEST PUSH32 0x4E487B7100000000000000000000000000000000000000000000000000000000 PUSH1 0x0 MSTORE PUSH1 0x41 PUSH1 0x4 MSTORE PUSH1 0x24 PUSH1 0x0 REVERT JUMPDEST PUSH1 0x0 PUSH2 0x10B9 DUP3 MLOAD PUSH2 0xDB8 JUMP JUMPDEST DUP1 SWAP2 POP POP SWAP2 SWAP1 POP JUMP JUMPDEST PUSH1 0x0 PUSH2 0x10CE DUP3 MLOAD PUSH2 0xE10 JUMP JUMPDEST DUP1 SWAP2 POP POP SWAP2 SWAP1 POP JUMP JUMPDEST PUSH1 0x0 DUP1 REVERT JUMPDEST PUSH1 0x0 DUP1 REVERT JUMPDEST PUSH1 0x0 DUP1 REVERT JUMPDEST PUSH1 0x0 DUP1 REVERT JUMPDEST PUSH1 0x0 PUSH1 0x1F NOT PUSH1 0x1F DUP4 ADD AND SWAP1 POP SWAP2 SWAP1 POP JUMP JUMPDEST PUSH1 0x0 DUP3 DUP3 SHL SWAP1 POP SWAP3 SWAP2 POP POP JUMP JUMPDEST PUSH32 0x5468652070726F7669646564206E756D62657220686173206E6F2073796D626F PUSH1 0x0 DUP3 ADD MSTORE PUSH32 0x6C20746F20726570726573656E742E0000000000000000000000000000000000 PUSH1 0x20 DUP3 ADD MSTORE POP JUMP JUMPDEST PUSH32 0x546865206D73672E73656E64657220646F65736E277420686176652074686520 PUSH1 0x0 DUP3 ADD MSTORE PUSH32 0x6E6563657373617279207269676874732E000000000000000000000000000000 PUSH1 0x20 DUP3 ADD MSTORE POP JUMP JUMPDEST POP JUMP JUMPDEST PUSH2 0x11B3 DUP2 PUSH2 0xD6E JUMP JUMPDEST DUP2 EQ PUSH2 0x11BE JUMPI PUSH1 0x0 DUP1 REVERT JUMPDEST POP JUMP JUMPDEST PUSH2 0x11CA DUP2 PUSH2 0xEA0 JUMP JUMPDEST DUP2 EQ PUSH2 0x11D5 JUMPI PUSH1 0x0 DUP1 REVERT JUMPDEST POP JUMP INVALID LOG2 PUSH5 0x6970667358 0x22 SLT KECCAK256 0xE7 PUSH7 0x83CA04B983285B 0x4B DUP2 LOG3 CALLDATALOAD JUMPDEST PC 0xC7 0xEA 0xD9 0xA6 0x2D LOG0 AND 0xE2 DUP12 SGT PUSH26 0xF6D3BBC9EF3364736F6C63430008060033608060405234801562 STOP STOP GT JUMPI PUSH1 0x0 DUP1 REVERT JUMPDEST POP PUSH1 0x40 MLOAD PUSH3 0x3CFA CODESIZE SUB DUP1 PUSH3 0x3CFA DUP4 CODECOPY DUP2 DUP2 ADD PUSH1 0x40 MSTORE DUP2 ADD SWAP1 PUSH3 0x37 SWAP2 SWAP1 PUSH3 0x531 JUMP JUMPDEST DUP4 DUP4 DUP4 DUP4 DUP4 DUP4 DUP4 DUP1 PUSH3 0x55 DUP2 PUSH3 0x232 PUSH1 0x20 SHL PUSH3 0xF7A OR PUSH1 0x20 SHR JUMP JUMPDEST POP PUSH3 0xC5 PUSH32 0xEAFEC4D89FA9619884B60000A4D96624A38F7AC2D8D9A604ECF07C12C77E480C PUSH1 0x0 SHL PUSH1 0x40 MLOAD DUP1 PUSH1 0x40 ADD PUSH1 0x40 MSTORE DUP1 PUSH1 0x4 DUP2 MSTORE PUSH1 0x20 ADD PUSH32 0xA4D9662400000000000000000000000000000000000000000000000000000000 DUP2 MSTORE POP PUSH3 0x33A PUSH1 0x20 SHL PUSH3 0x1079 OR PUSH1 0x20 SHR JUMP JUMPDEST PUSH3 0xFF PUSH32 0xDEBA1E292F8BA88238E10AB3C7F88BD4BE4FAC56CAD5194B6ECCEAF653468AF1 PUSH1 0x0 SHL DUP5 PUSH3 0x33A PUSH1 0x20 SHL PUSH3 0x1079 OR PUSH1 0x20 SHR JUMP JUMPDEST PUSH3 0x139 PUSH32 0x2F0A68AB07768E01943A599E73362A0E17A63A72E94DD2E384D2C1D4DB932756 PUSH1 0x0 SHL DUP4 PUSH3 0x33A PUSH1 0x20 SHL PUSH3 0x1079 OR PUSH1 0x20 SHR JUMP JUMPDEST POP POP POP DUP1 PUSH1 0x2 PUSH1 0x0 PUSH2 0x100 EXP DUP2 SLOAD DUP2 PUSH1 0xFF MUL NOT AND SWAP1 DUP4 ISZERO ISZERO MUL OR SWAP1 SSTORE POP POP POP POP POP DUP6 PUSH1 0x7 PUSH1 0x0 PUSH2 0x100 EXP DUP2 SLOAD DUP2 PUSH20 0xFFFFFFFFFFFFFFFFFFFFFFFFFFFFFFFFFFFFFFFF MUL NOT AND SWAP1 DUP4 PUSH20 0xFFFFFFFFFFFFFFFFFFFFFFFFFFFFFFFFFFFFFFFF AND MUL OR SWAP1 SSTORE POP DUP5 PUSH1 0x8 PUSH1 0x0 PUSH2 0x100 EXP DUP2 SLOAD DUP2 PUSH20 0xFFFFFFFFFFFFFFFFFFFFFFFFFFFFFFFFFFFFFFFF MUL NOT AND SWAP1 DUP4 PUSH20 0xFFFFFFFFFFFFFFFFFFFFFFFFFFFFFFFFFFFFFFFF AND MUL OR SWAP1 SSTORE POP DUP8 PUSH1 0xA DUP2 SWAP1 SSTORE POP DUP7 PUSH1 0x9 PUSH1 0x0 PUSH2 0x100 EXP DUP2 SLOAD DUP2 PUSH20 0xFFFFFFFFFFFFFFFFFFFFFFFFFFFFFFFFFFFFFFFF MUL NOT AND SWAP1 DUP4 PUSH20 0xFFFFFFFFFFFFFFFFFFFFFFFFFFFFFFFFFFFFFFFF AND MUL OR SWAP1 SSTORE POP POP POP POP POP POP POP POP POP PUSH3 0x854 JUMP JUMPDEST PUSH3 0x242 PUSH3 0x395 PUSH1 0x20 SHL PUSH1 0x20 SHR JUMP JUMPDEST PUSH20 0xFFFFFFFFFFFFFFFFFFFFFFFFFFFFFFFFFFFFFFFF AND DUP2 PUSH20 0xFFFFFFFFFFFFFFFFFFFFFFFFFFFFFFFFFFFFFFFF AND EQ PUSH3 0x337 JUMPI PUSH1 0x0 DUP1 PUSH1 0x0 SWAP1 SLOAD SWAP1 PUSH2 0x100 EXP SWAP1 DIV PUSH20 0xFFFFFFFFFFFFFFFFFFFFFFFFFFFFFFFFFFFFFFFF AND SWAP1 POP DUP2 PUSH1 0x0 DUP1 PUSH2 0x100 EXP DUP2 SLOAD DUP2 PUSH20 0xFFFFFFFFFFFFFFFFFFFFFFFFFFFFFFFFFFFFFFFF MUL NOT AND SWAP1 DUP4 PUSH20 0xFFFFFFFFFFFFFFFFFFFFFFFFFFFFFFFFFFFFFFFF AND MUL OR SWAP1 SSTORE POP DUP2 PUSH20 0xFFFFFFFFFFFFFFFFFFFFFFFFFFFFFFFFFFFFFFFF AND DUP2 PUSH20 0xFFFFFFFFFFFFFFFFFFFFFFFFFFFFFFFFFFFFFFFF AND PUSH32 0x8BE0079C531659141344CD1FD0A4F28419497F9722A3DAAFE3B4186F6B6457E0 PUSH1 0x40 MLOAD PUSH1 0x40 MLOAD DUP1 SWAP2 SUB SWAP1 LOG3 POP JUMPDEST POP JUMP JUMPDEST DUP1 PUSH1 0x1 PUSH1 0x0 DUP5 DUP2 MSTORE PUSH1 0x20 ADD SWAP1 DUP2 MSTORE PUSH1 0x20 ADD PUSH1 0x0 KECCAK256 SWAP1 DUP1 MLOAD SWAP1 PUSH1 0x20 ADD SWAP1 PUSH3 0x363 SWAP3 SWAP2 SWAP1 PUSH3 0x3BE JUMP JUMPDEST POP DUP2 PUSH32 0xCDF4E344C0D23D4CDD0474039D176C55B19D531070DBE17856BFB993A5B5720B PUSH1 0x40 MLOAD PUSH1 0x40 MLOAD DUP1 SWAP2 SUB SWAP1 LOG2 POP POP JUMP JUMPDEST PUSH1 0x0 DUP1 PUSH1 0x0 SWAP1 SLOAD SWAP1 PUSH2 0x100 EXP SWAP1 DIV PUSH20 0xFFFFFFFFFFFFFFFFFFFFFFFFFFFFFFFFFFFFFFFF AND SWAP1 POP SWAP1 JUMP JUMPDEST DUP3 DUP1 SLOAD PUSH3 0x3CC SWAP1 PUSH3 0x717 JUMP JUMPDEST SWAP1 PUSH1 0x0 MSTORE PUSH1 0x20 PUSH1 0x0 KECCAK256 SWAP1 PUSH1 0x1F ADD PUSH1 0x20 SWAP1 DIV DUP2 ADD SWAP3 DUP3 PUSH3 0x3F0 JUMPI PUSH1 0x0 DUP6 SSTORE PUSH3 0x43C JUMP JUMPDEST DUP3 PUSH1 0x1F LT PUSH3 0x40B JUMPI DUP1 MLOAD PUSH1 0xFF NOT AND DUP4 DUP1 ADD OR DUP6 SSTORE PUSH3 0x43C JUMP JUMPDEST DUP3 DUP1 ADD PUSH1 0x1 ADD DUP6 SSTORE DUP3 ISZERO PUSH3 0x43C JUMPI SWAP2 DUP3 ADD JUMPDEST DUP3 DUP2 GT ISZERO PUSH3 0x43B JUMPI DUP3 MLOAD DUP3 SSTORE SWAP2 PUSH1 0x20 ADD SWAP2 SWAP1 PUSH1 0x1 ADD SWAP1 PUSH3 0x41E JUMP JUMPDEST JUMPDEST POP SWAP1 POP PUSH3 0x44B SWAP2 SWAP1 PUSH3 0x44F JUMP JUMPDEST POP SWAP1 JUMP JUMPDEST JUMPDEST DUP1 DUP3 GT ISZERO PUSH3 0x46A JUMPI PUSH1 0x0 DUP2 PUSH1 0x0 SWAP1 SSTORE POP PUSH1 0x1 ADD PUSH3 0x450 JUMP JUMPDEST POP SWAP1 JUMP JUMPDEST PUSH1 0x0 PUSH3 0x485 PUSH3 0x47F DUP5 PUSH3 0x661 JUMP JUMPDEST PUSH3 0x638 JUMP JUMPDEST SWAP1 POP DUP3 DUP2 MSTORE PUSH1 0x20 DUP2 ADD DUP5 DUP5 DUP5 ADD GT ISZERO PUSH3 0x4A4 JUMPI PUSH3 0x4A3 PUSH3 0x7E6 JUMP JUMPDEST JUMPDEST PUSH3 0x4B1 DUP5 DUP3 DUP6 PUSH3 0x6E1 JUMP JUMPDEST POP SWAP4 SWAP3 POP POP POP JUMP JUMPDEST PUSH1 0x0 DUP2 MLOAD SWAP1 POP PUSH3 0x4CA DUP2 PUSH3 0x806 JUMP JUMPDEST SWAP3 SWAP2 POP POP JUMP JUMPDEST PUSH1 0x0 DUP2 MLOAD SWAP1 POP PUSH3 0x4E1 DUP2 PUSH3 0x820 JUMP JUMPDEST SWAP3 SWAP2 POP POP JUMP JUMPDEST PUSH1 0x0 DUP3 PUSH1 0x1F DUP4 ADD SLT PUSH3 0x4FF JUMPI PUSH3 0x4FE PUSH3 0x7E1 JUMP JUMPDEST JUMPDEST DUP2 MLOAD PUSH3 0x511 DUP5 DUP3 PUSH1 0x20 DUP7 ADD PUSH3 0x46E JUMP JUMPDEST SWAP2 POP POP SWAP3 SWAP2 POP POP JUMP JUMPDEST PUSH1 0x0 DUP2 MLOAD SWAP1 POP PUSH3 0x52B DUP2 PUSH3 0x83A JUMP JUMPDEST SWAP3 SWAP2 POP POP JUMP JUMPDEST PUSH1 0x0 DUP1 PUSH1 0x0 DUP1 PUSH1 0x0 DUP1 PUSH1 0x0 DUP1 PUSH2 0x100 DUP10 DUP12 SUB SLT ISZERO PUSH3 0x555 JUMPI PUSH3 0x554 PUSH3 0x7F0 JUMP JUMPDEST JUMPDEST PUSH1 0x0 PUSH3 0x565 DUP12 DUP3 DUP13 ADD PUSH3 0x51A JUMP JUMPDEST SWAP9 POP POP PUSH1 0x20 PUSH3 0x578 DUP12 DUP3 DUP13 ADD PUSH3 0x4B9 JUMP JUMPDEST SWAP8 POP POP PUSH1 0x40 PUSH3 0x58B DUP12 DUP3 DUP13 ADD PUSH3 0x4B9 JUMP JUMPDEST SWAP7 POP POP PUSH1 0x60 PUSH3 0x59E DUP12 DUP3 DUP13 ADD PUSH3 0x4B9 JUMP JUMPDEST SWAP6 POP POP PUSH1 0x80 DUP10 ADD MLOAD PUSH8 0xFFFFFFFFFFFFFFFF DUP2 GT ISZERO PUSH3 0x5C2 JUMPI PUSH3 0x5C1 PUSH3 0x7EB JUMP JUMPDEST JUMPDEST PUSH3 0x5D0 DUP12 DUP3 DUP13 ADD PUSH3 0x4E7 JUMP JUMPDEST SWAP5 POP POP PUSH1 0xA0 DUP10 ADD MLOAD PUSH8 0xFFFFFFFFFFFFFFFF DUP2 GT ISZERO PUSH3 0x5F4 JUMPI PUSH3 0x5F3 PUSH3 0x7EB JUMP JUMPDEST JUMPDEST PUSH3 0x602 DUP12 DUP3 DUP13 ADD PUSH3 0x4E7 JUMP JUMPDEST SWAP4 POP POP PUSH1 0xC0 PUSH3 0x615 DUP12 DUP3 DUP13 ADD PUSH3 0x4B9 JUMP JUMPDEST SWAP3 POP POP PUSH1 0xE0 PUSH3 0x628 DUP12 DUP3 DUP13 ADD PUSH3 0x4D0 JUMP JUMPDEST SWAP2 POP POP SWAP3 SWAP6 SWAP9 POP SWAP3 SWAP6 SWAP9 SWAP1 SWAP4 SWAP7 POP JUMP JUMPDEST PUSH1 0x0 PUSH3 0x644 PUSH3 0x657 JUMP JUMPDEST SWAP1 POP PUSH3 0x652 DUP3 DUP3 PUSH3 0x74D JUMP JUMPDEST SWAP2 SWAP1 POP JUMP JUMPDEST PUSH1 0x0 PUSH1 0x40 MLOAD SWAP1 POP SWAP1 JUMP JUMPDEST PUSH1 0x0 PUSH8 0xFFFFFFFFFFFFFFFF DUP3 GT ISZERO PUSH3 0x67F JUMPI PUSH3 0x67E PUSH3 0x7B2 JUMP JUMPDEST JUMPDEST PUSH3 0x68A DUP3 PUSH3 0x7F5 JUMP JUMPDEST SWAP1 POP PUSH1 0x20 DUP2 ADD SWAP1 POP SWAP2 SWAP1 POP JUMP JUMPDEST PUSH1 0x0 PUSH3 0x6A4 DUP3 PUSH3 0x6B7 JUMP JUMPDEST SWAP1 POP SWAP2 SWAP1 POP JUMP JUMPDEST PUSH1 0x0 DUP2 ISZERO ISZERO SWAP1 POP SWAP2 SWAP1 POP JUMP JUMPDEST PUSH1 0x0 PUSH20 0xFFFFFFFFFFFFFFFFFFFFFFFFFFFFFFFFFFFFFFFF DUP3 AND SWAP1 POP SWAP2 SWAP1 POP JUMP JUMPDEST PUSH1 0x0 DUP2 SWAP1 POP SWAP2 SWAP1 POP JUMP JUMPDEST PUSH1 0x0 JUMPDEST DUP4 DUP2 LT ISZERO PUSH3 0x701 JUMPI DUP1 DUP3 ADD MLOAD DUP2 DUP5 ADD MSTORE PUSH1 0x20 DUP2 ADD SWAP1 POP PUSH3 0x6E4 JUMP JUMPDEST DUP4 DUP2 GT ISZERO PUSH3 0x711 JUMPI PUSH1 0x0 DUP5 DUP5 ADD MSTORE JUMPDEST POP POP POP POP JUMP JUMPDEST PUSH1 0x0 PUSH1 0x2 DUP3 DIV SWAP1 POP PUSH1 0x1 DUP3 AND DUP1 PUSH3 0x730 JUMPI PUSH1 0x7F DUP3 AND SWAP2 POP JUMPDEST PUSH1 0x20 DUP3 LT DUP2 EQ ISZERO PUSH3 0x747 JUMPI PUSH3 0x746 PUSH3 0x783 JUMP JUMPDEST JUMPDEST POP SWAP2 SWAP1 POP JUMP JUMPDEST PUSH3 0x758 DUP3 PUSH3 0x7F5 JUMP JUMPDEST DUP2 ADD DUP2 DUP2 LT PUSH8 0xFFFFFFFFFFFFFFFF DUP3 GT OR ISZERO PUSH3 0x77A JUMPI PUSH3 0x779 PUSH3 0x7B2 JUMP JUMPDEST JUMPDEST DUP1 PUSH1 0x40 MSTORE POP POP POP JUMP JUMPDEST PUSH32 0x4E487B7100000000000000000000000000000000000000000000000000000000 PUSH1 0x0 MSTORE PUSH1 0x22 PUSH1 0x4 MSTORE PUSH1 0x24 PUSH1 0x0 REVERT JUMPDEST PUSH32 0x4E487B7100000000000000000000000000000000000000000000000000000000 PUSH1 0x0 MSTORE PUSH1 0x41 PUSH1 0x4 MSTORE PUSH1 0x24 PUSH1 0x0 REVERT JUMPDEST PUSH1 0x0 DUP1 REVERT JUMPDEST PUSH1 0x0 DUP1 REVERT JUMPDEST PUSH1 0x0 DUP1 REVERT JUMPDEST PUSH1 0x0 DUP1 REVERT JUMPDEST PUSH1 0x0 PUSH1 0x1F NOT PUSH1 0x1F DUP4 ADD AND SWAP1 POP SWAP2 SWAP1 POP JUMP JUMPDEST PUSH3 0x811 DUP2 PUSH3 0x697 JUMP JUMPDEST DUP2 EQ PUSH3 0x81D JUMPI PUSH1 0x0 DUP1 REVERT JUMPDEST POP JUMP JUMPDEST PUSH3 0x82B DUP2 PUSH3 0x6AB JUMP JUMPDEST DUP2 EQ PUSH3 0x837 JUMPI PUSH1 0x0 DUP1 REVERT JUMPDEST POP JUMP JUMPDEST PUSH3 0x845 DUP2 PUSH3 0x6D7 JUMP JUMPDEST DUP2 EQ PUSH3 0x851 JUMPI PUSH1 0x0 DUP1 REVERT JUMPDEST POP JUMP JUMPDEST PUSH2 0x3496 DUP1 PUSH3 0x864 PUSH1 0x0 CODECOPY PUSH1 0x0 RETURN INVALID PUSH1 0x80 PUSH1 0x40 MSTORE CALLVALUE DUP1 ISZERO PUSH2 0x10 JUMPI PUSH1 0x0 DUP1 REVERT JUMPDEST POP PUSH1 0x4 CALLDATASIZE LT PUSH2 0x116 JUMPI PUSH1 0x0 CALLDATALOAD PUSH1 0xE0 SHR DUP1 PUSH4 0x715018A6 GT PUSH2 0xA2 JUMPI DUP1 PUSH4 0x9E8C7D7F GT PUSH2 0x71 JUMPI DUP1 PUSH4 0x9E8C7D7F EQ PUSH2 0x2CB JUMPI DUP1 PUSH4 0xA8A34E0A EQ PUSH2 0x2FB JUMPI DUP1 PUSH4 0xD95B6371 EQ PUSH2 0x317 JUMPI DUP1 PUSH4 0xF2FDE38B EQ PUSH2 0x347 JUMPI DUP1 PUSH4 0xFAD8B32A EQ PUSH2 0x363 JUMPI PUSH2 0x116 JUMP JUMPDEST DUP1 PUSH4 0x715018A6 EQ PUSH2 0x26B JUMPI DUP1 PUSH4 0x760D9BBA EQ PUSH2 0x275 JUMPI DUP1 PUSH4 0x7F23690C EQ PUSH2 0x291 JUMPI DUP1 PUSH4 0x8DA5CB5B EQ PUSH2 0x2AD JUMPI PUSH2 0x116 JUMP JUMPDEST DUP1 PUSH4 0x47980AA3 GT PUSH2 0xE9 JUMPI DUP1 PUSH4 0x47980AA3 EQ PUSH2 0x1A3 JUMPI DUP1 PUSH4 0x4E3E6E9C EQ PUSH2 0x1BF JUMPI DUP1 PUSH4 0x54F6127F EQ PUSH2 0x1EF JUMPI DUP1 PUSH4 0x70A08231 EQ PUSH2 0x21F JUMPI DUP1 PUSH4 0x713992FA EQ PUSH2 0x24F JUMPI PUSH2 0x116 JUMP JUMPDEST DUP1 PUSH4 0x1FFC9A7 EQ PUSH2 0x11B JUMPI DUP1 PUSH4 0x14A6E293 EQ PUSH2 0x14B JUMPI DUP1 PUSH4 0x18160DDD EQ PUSH2 0x167 JUMPI DUP1 PUSH4 0x313CE567 EQ PUSH2 0x185 JUMPI JUMPDEST PUSH1 0x0 DUP1 REVERT JUMPDEST PUSH2 0x135 PUSH1 0x4 DUP1 CALLDATASIZE SUB DUP2 ADD SWAP1 PUSH2 0x130 SWAP2 SWAP1 PUSH2 0x261D JUMP JUMPDEST PUSH2 0x37F JUMP JUMPDEST PUSH1 0x40 MLOAD PUSH2 0x142 SWAP2 SWAP1 PUSH2 0x2A75 JUMP JUMPDEST PUSH1 0x40 MLOAD DUP1 SWAP2 SUB SWAP1 RETURN JUMPDEST PUSH2 0x165 PUSH1 0x4 DUP1 CALLDATASIZE SUB DUP2 ADD SWAP1 PUSH2 0x160 SWAP2 SWAP1 PUSH2 0x24EF JUMP JUMPDEST PUSH2 0x3E0 JUMP JUMPDEST STOP JUMPDEST PUSH2 0x16F PUSH2 0x4F8 JUMP JUMPDEST PUSH1 0x40 MLOAD PUSH2 0x17C SWAP2 SWAP1 PUSH2 0x2C1D JUMP JUMPDEST PUSH1 0x40 MLOAD DUP1 SWAP2 SUB SWAP1 RETURN JUMPDEST PUSH2 0x18D PUSH2 0x502 JUMP JUMPDEST PUSH1 0x40 MLOAD PUSH2 0x19A SWAP2 SWAP1 PUSH2 0x2C1D JUMP JUMPDEST PUSH1 0x40 MLOAD DUP1 SWAP2 SUB SWAP1 RETURN JUMPDEST PUSH2 0x1BD PUSH1 0x4 DUP1 CALLDATASIZE SUB DUP2 ADD SWAP1 PUSH2 0x1B8 SWAP2 SWAP1 PUSH2 0x237B JUMP JUMPDEST PUSH2 0x52A JUMP JUMPDEST STOP JUMPDEST PUSH2 0x1D9 PUSH1 0x4 DUP1 CALLDATASIZE SUB DUP2 ADD SWAP1 PUSH2 0x1D4 SWAP2 SWAP1 PUSH2 0x24A6 JUMP JUMPDEST PUSH2 0x540 JUMP JUMPDEST PUSH1 0x40 MLOAD PUSH2 0x1E6 SWAP2 SWAP1 PUSH2 0x2A53 JUMP JUMPDEST PUSH1 0x40 MLOAD DUP1 SWAP2 SUB SWAP1 RETURN JUMPDEST PUSH2 0x209 PUSH1 0x4 DUP1 CALLDATASIZE SUB DUP2 ADD SWAP1 PUSH2 0x204 SWAP2 SWAP1 PUSH2 0x2594 JUMP JUMPDEST PUSH2 0x5F6 JUMP JUMPDEST PUSH1 0x40 MLOAD PUSH2 0x216 SWAP2 SWAP1 PUSH2 0x2ADB JUMP JUMPDEST PUSH1 0x40 MLOAD DUP1 SWAP2 SUB SWAP1 RETURN JUMPDEST PUSH2 0x239 PUSH1 0x4 DUP1 CALLDATASIZE SUB DUP2 ADD SWAP1 PUSH2 0x234 SWAP2 SWAP1 PUSH2 0x2277 JUMP JUMPDEST PUSH2 0x608 JUMP JUMPDEST PUSH1 0x40 MLOAD PUSH2 0x246 SWAP2 SWAP1 PUSH2 0x2C1D JUMP JUMPDEST PUSH1 0x40 MLOAD DUP1 SWAP2 SUB SWAP1 RETURN JUMPDEST PUSH2 0x269 PUSH1 0x4 DUP1 CALLDATASIZE SUB DUP2 ADD SWAP1 PUSH2 0x264 SWAP2 SWAP1 PUSH2 0x22E4 JUMP JUMPDEST PUSH2 0x651 JUMP JUMPDEST STOP JUMPDEST PUSH2 0x273 PUSH2 0xA6F JUMP JUMPDEST STOP JUMPDEST PUSH2 0x28F PUSH1 0x4 DUP1 CALLDATASIZE SUB DUP2 ADD SWAP1 PUSH2 0x28A SWAP2 SWAP1 PUSH2 0x22E4 JUMP JUMPDEST PUSH2 0xAF0 JUMP JUMPDEST STOP JUMPDEST PUSH2 0x2AB PUSH1 0x4 DUP1 CALLDATASIZE SUB DUP2 ADD SWAP1 PUSH2 0x2A6 SWAP2 SWAP1 PUSH2 0x25C1 JUMP JUMPDEST PUSH2 0xB88 JUMP JUMPDEST STOP JUMPDEST PUSH2 0x2B5 PUSH2 0xC0B JUMP JUMPDEST PUSH1 0x40 MLOAD PUSH2 0x2C2 SWAP2 SWAP1 PUSH2 0x2A01 JUMP JUMPDEST PUSH1 0x40 MLOAD DUP1 SWAP2 SUB SWAP1 RETURN JUMPDEST PUSH2 0x2E5 PUSH1 0x4 DUP1 CALLDATASIZE SUB DUP2 ADD SWAP1 PUSH2 0x2E0 SWAP2 SWAP1 PUSH2 0x2277 JUMP JUMPDEST PUSH2 0xC34 JUMP JUMPDEST PUSH1 0x40 MLOAD PUSH2 0x2F2 SWAP2 SWAP1 PUSH2 0x2C1D JUMP JUMPDEST PUSH1 0x40 MLOAD DUP1 SWAP2 SUB SWAP1 RETURN JUMPDEST PUSH2 0x315 PUSH1 0x4 DUP1 CALLDATASIZE SUB DUP2 ADD SWAP1 PUSH2 0x310 SWAP2 SWAP1 PUSH2 0x23BB JUMP JUMPDEST PUSH2 0xC7D JUMP JUMPDEST STOP JUMPDEST PUSH2 0x331 PUSH1 0x4 DUP1 CALLDATASIZE SUB DUP2 ADD SWAP1 PUSH2 0x32C SWAP2 SWAP1 PUSH2 0x22A4 JUMP JUMPDEST PUSH2 0xD70 JUMP JUMPDEST PUSH1 0x40 MLOAD PUSH2 0x33E SWAP2 SWAP1 PUSH2 0x2C1D JUMP JUMPDEST PUSH1 0x40 MLOAD DUP1 SWAP2 SUB SWAP1 RETURN JUMPDEST PUSH2 0x361 PUSH1 0x4 DUP1 CALLDATASIZE SUB DUP2 ADD SWAP1 PUSH2 0x35C SWAP2 SWAP1 PUSH2 0x2277 JUMP JUMPDEST PUSH2 0xE73 JUMP JUMPDEST STOP JUMPDEST PUSH2 0x37D PUSH1 0x4 DUP1 CALLDATASIZE SUB DUP2 ADD SWAP1 PUSH2 0x378 SWAP2 SWAP1 PUSH2 0x2277 JUMP JUMPDEST PUSH2 0xF64 JUMP JUMPDEST STOP JUMPDEST PUSH1 0x0 PUSH4 0xE33F65C3 PUSH1 0xE0 SHL PUSH28 0xFFFFFFFFFFFFFFFFFFFFFFFFFFFFFFFFFFFFFFFFFFFFFFFFFFFFFFFF NOT AND DUP3 PUSH28 0xFFFFFFFFFFFFFFFFFFFFFFFFFFFFFFFFFFFFFFFFFFFFFFFFFFFFFFFF NOT AND EQ DUP1 PUSH2 0x3D9 JUMPI POP PUSH2 0x3D8 DUP3 PUSH2 0x10D2 JUMP JUMPDEST JUMPDEST SWAP1 POP SWAP2 SWAP1 POP JUMP JUMPDEST CALLER PUSH20 0xFFFFFFFFFFFFFFFFFFFFFFFFFFFFFFFFFFFFFFFF AND PUSH2 0x3FF PUSH2 0xC0B JUMP JUMPDEST PUSH20 0xFFFFFFFFFFFFFFFFFFFFFFFFFFFFFFFFFFFFFFFF AND EQ PUSH2 0x455 JUMPI PUSH1 0x40 MLOAD PUSH32 0x8C379A000000000000000000000000000000000000000000000000000000000 DUP2 MSTORE PUSH1 0x4 ADD PUSH2 0x44C SWAP1 PUSH2 0x2B7D JUMP JUMPDEST PUSH1 0x40 MLOAD DUP1 SWAP2 SUB SWAP1 REVERT JUMPDEST DUP1 MLOAD DUP3 MLOAD EQ PUSH2 0x499 JUMPI PUSH1 0x40 MLOAD PUSH32 0x8C379A000000000000000000000000000000000000000000000000000000000 DUP2 MSTORE PUSH1 0x4 ADD PUSH2 0x490 SWAP1 PUSH2 0x2BBD JUMP JUMPDEST PUSH1 0x40 MLOAD DUP1 SWAP2 SUB SWAP1 REVERT JUMPDEST PUSH1 0x0 JUMPDEST DUP3 MLOAD DUP2 LT ISZERO PUSH2 0x4F3 JUMPI PUSH2 0x4E3 DUP4 DUP3 DUP2 MLOAD DUP2 LT PUSH2 0x4BB JUMPI PUSH2 0x4BA PUSH2 0x30B7 JUMP JUMPDEST JUMPDEST PUSH1 0x20 MUL PUSH1 0x20 ADD ADD MLOAD DUP4 DUP4 DUP2 MLOAD DUP2 LT PUSH2 0x4D6 JUMPI PUSH2 0x4D5 PUSH2 0x30B7 JUMP JUMPDEST JUMPDEST PUSH1 0x20 MUL PUSH1 0x20 ADD ADD MLOAD PUSH2 0x1133 JUMP JUMPDEST PUSH2 0x4EC DUP2 PUSH2 0x120D JUMP JUMPDEST SWAP1 POP PUSH2 0x49C JUMP JUMPDEST POP POP POP JUMP JUMPDEST PUSH1 0x0 PUSH1 0x3 SLOAD SWAP1 POP SWAP1 JUMP JUMPDEST PUSH1 0x0 PUSH1 0x2 PUSH1 0x0 SWAP1 SLOAD SWAP1 PUSH2 0x100 EXP SWAP1 DIV PUSH1 0xFF AND PUSH2 0x51F JUMPI PUSH1 0x12 PUSH2 0x522 JUMP JUMPDEST PUSH1 0x0 JUMPDEST PUSH1 0xFF AND SWAP1 POP SWAP1 JUMP JUMPDEST PUSH2 0x53C PUSH2 0x535 PUSH2 0x121A JUMP JUMPDEST DUP4 DUP4 PUSH2 0x1222 JUMP JUMPDEST POP POP JUMP JUMPDEST PUSH1 0x60 DUP2 MLOAD PUSH8 0xFFFFFFFFFFFFFFFF DUP2 GT ISZERO PUSH2 0x55D JUMPI PUSH2 0x55C PUSH2 0x30E6 JUMP JUMPDEST JUMPDEST PUSH1 0x40 MLOAD SWAP1 DUP1 DUP3 MSTORE DUP1 PUSH1 0x20 MUL PUSH1 0x20 ADD DUP3 ADD PUSH1 0x40 MSTORE DUP1 ISZERO PUSH2 0x590 JUMPI DUP2 PUSH1 0x20 ADD JUMPDEST PUSH1 0x60 DUP2 MSTORE PUSH1 0x20 ADD SWAP1 PUSH1 0x1 SWAP1 SUB SWAP1 DUP2 PUSH2 0x57B JUMPI SWAP1 POP JUMPDEST POP SWAP1 POP PUSH1 0x0 JUMPDEST DUP3 MLOAD DUP2 LT ISZERO PUSH2 0x5F0 JUMPI PUSH2 0x5C2 DUP4 DUP3 DUP2 MLOAD DUP2 LT PUSH2 0x5B5 JUMPI PUSH2 0x5B4 PUSH2 0x30B7 JUMP JUMPDEST JUMPDEST PUSH1 0x20 MUL PUSH1 0x20 ADD ADD MLOAD PUSH2 0x140C JUMP JUMPDEST DUP3 DUP3 DUP2 MLOAD DUP2 LT PUSH2 0x5D5 JUMPI PUSH2 0x5D4 PUSH2 0x30B7 JUMP JUMPDEST JUMPDEST PUSH1 0x20 MUL PUSH1 0x20 ADD ADD DUP2 SWAP1 MSTORE POP PUSH2 0x5E9 DUP2 PUSH2 0x120D JUMP JUMPDEST SWAP1 POP PUSH2 0x596 JUMP JUMPDEST POP SWAP2 SWAP1 POP JUMP JUMPDEST PUSH1 0x60 PUSH2 0x601 DUP3 PUSH2 0x140C JUMP JUMPDEST SWAP1 POP SWAP2 SWAP1 POP JUMP JUMPDEST PUSH1 0x0 PUSH1 0x4 PUSH1 0x0 DUP4 PUSH20 0xFFFFFFFFFFFFFFFFFFFFFFFFFFFFFFFFFFFFFFFF AND PUSH20 0xFFFFFFFFFFFFFFFFFFFFFFFFFFFFFFFFFFFFFFFF AND DUP2 MSTORE PUSH1 0x20 ADD SWAP1 DUP2 MSTORE PUSH1 0x20 ADD PUSH1 0x0 KECCAK256 SLOAD SWAP1 POP SWAP2 SWAP1 POP JUMP JUMPDEST DUP5 PUSH1 0x1 PUSH1 0x7 PUSH1 0x0 SWAP1 SLOAD SWAP1 PUSH2 0x100 EXP SWAP1 DIV PUSH20 0xFFFFFFFFFFFFFFFFFFFFFFFFFFFFFFFFFFFFFFFF AND PUSH20 0xFFFFFFFFFFFFFFFFFFFFFFFFFFFFFFFFFFFFFFFF AND PUSH4 0x70A08231 DUP4 PUSH1 0x40 MLOAD DUP3 PUSH4 0xFFFFFFFF AND PUSH1 0xE0 SHL DUP2 MSTORE PUSH1 0x4 ADD PUSH2 0x6AF SWAP2 SWAP1 PUSH2 0x2A01 JUMP JUMPDEST PUSH1 0x20 PUSH1 0x40 MLOAD DUP1 DUP4 SUB DUP2 DUP7 DUP1 EXTCODESIZE ISZERO DUP1 ISZERO PUSH2 0x6C7 JUMPI PUSH1 0x0 DUP1 REVERT JUMPDEST POP GAS STATICCALL ISZERO DUP1 ISZERO PUSH2 0x6DB JUMPI RETURNDATASIZE PUSH1 0x0 DUP1 RETURNDATACOPY RETURNDATASIZE PUSH1 0x0 REVERT JUMPDEST POP POP POP POP PUSH1 0x40 MLOAD RETURNDATASIZE PUSH1 0x1F NOT PUSH1 0x1F DUP3 ADD AND DUP3 ADD DUP1 PUSH1 0x40 MSTORE POP DUP2 ADD SWAP1 PUSH2 0x6FF SWAP2 SWAP1 PUSH2 0x2693 JUMP JUMPDEST LT ISZERO PUSH2 0x740 JUMPI PUSH1 0x40 MLOAD PUSH32 0x8C379A000000000000000000000000000000000000000000000000000000000 DUP2 MSTORE PUSH1 0x4 ADD PUSH2 0x737 SWAP1 PUSH2 0x2BDD JUMP JUMPDEST PUSH1 0x40 MLOAD DUP1 SWAP2 SUB SWAP1 REVERT JUMPDEST DUP5 PUSH1 0x1 PUSH1 0x7 PUSH1 0x0 SWAP1 SLOAD SWAP1 PUSH2 0x100 EXP SWAP1 DIV PUSH20 0xFFFFFFFFFFFFFFFFFFFFFFFFFFFFFFFFFFFFFFFF AND PUSH20 0xFFFFFFFFFFFFFFFFFFFFFFFFFFFFFFFFFFFFFFFF AND PUSH4 0x70A08231 DUP4 PUSH1 0x40 MLOAD DUP3 PUSH4 0xFFFFFFFF AND PUSH1 0xE0 SHL DUP2 MSTORE PUSH1 0x4 ADD PUSH2 0x79E SWAP2 SWAP1 PUSH2 0x2A01 JUMP JUMPDEST PUSH1 0x20 PUSH1 0x40 MLOAD DUP1 DUP4 SUB DUP2 DUP7 DUP1 EXTCODESIZE ISZERO DUP1 ISZERO PUSH2 0x7B6 JUMPI PUSH1 0x0 DUP1 REVERT JUMPDEST POP GAS STATICCALL ISZERO DUP1 ISZERO PUSH2 0x7CA JUMPI RETURNDATASIZE PUSH1 0x0 DUP1 RETURNDATACOPY RETURNDATASIZE PUSH1 0x0 REVERT JUMPDEST POP POP POP POP PUSH1 0x40 MLOAD RETURNDATASIZE PUSH1 0x1F NOT PUSH1 0x1F DUP3 ADD AND DUP3 ADD DUP1 PUSH1 0x40 MSTORE POP DUP2 ADD SWAP1 PUSH2 0x7EE SWAP2 SWAP1 PUSH2 0x2693 JUMP JUMPDEST LT ISZERO DUP1 PUSH2 0x8A6 JUMPI POP PUSH1 0x1 PUSH1 0x8 PUSH1 0x0 SWAP1 SLOAD SWAP1 PUSH2 0x100 EXP SWAP1 DIV PUSH20 0xFFFFFFFFFFFFFFFFFFFFFFFFFFFFFFFFFFFFFFFF AND PUSH20 0xFFFFFFFFFFFFFFFFFFFFFFFFFFFFFFFFFFFFFFFF AND PUSH4 0x70A08231 DUP4 PUSH1 0x40 MLOAD DUP3 PUSH4 0xFFFFFFFF AND PUSH1 0xE0 SHL DUP2 MSTORE PUSH1 0x4 ADD PUSH2 0x853 SWAP2 SWAP1 PUSH2 0x2A01 JUMP JUMPDEST PUSH1 0x20 PUSH1 0x40 MLOAD DUP1 DUP4 SUB DUP2 DUP7 DUP1 EXTCODESIZE ISZERO DUP1 ISZERO PUSH2 0x86B JUMPI PUSH1 0x0 DUP1 REVERT JUMPDEST POP GAS STATICCALL ISZERO DUP1 ISZERO PUSH2 0x87F JUMPI RETURNDATASIZE PUSH1 0x0 DUP1 RETURNDATACOPY RETURNDATASIZE PUSH1 0x0 REVERT JUMPDEST POP POP POP POP PUSH1 0x40 MLOAD RETURNDATASIZE PUSH1 0x1F NOT PUSH1 0x1F DUP3 ADD AND DUP3 ADD DUP1 PUSH1 0x40 MSTORE POP DUP2 ADD SWAP1 PUSH2 0x8A3 SWAP2 SWAP1 PUSH2 0x2693 JUMP JUMPDEST LT ISZERO JUMPDEST PUSH2 0x8E5 JUMPI PUSH1 0x40 MLOAD PUSH32 0x8C379A000000000000000000000000000000000000000000000000000000000 DUP2 MSTORE PUSH1 0x4 ADD PUSH2 0x8DC SWAP1 PUSH2 0x2BDD JUMP JUMPDEST PUSH1 0x40 MLOAD DUP1 SWAP2 SUB SWAP1 REVERT JUMPDEST DUP7 TIMESTAMP PUSH3 0x15180 PUSH1 0x6 PUSH1 0x0 DUP5 PUSH20 0xFFFFFFFFFFFFFFFFFFFFFFFFFFFFFFFFFFFFFFFF AND PUSH20 0xFFFFFFFFFFFFFFFFFFFFFFFFFFFFFFFFFFFFFFFF AND DUP2 MSTORE PUSH1 0x20 ADD SWAP1 DUP2 MSTORE PUSH1 0x20 ADD PUSH1 0x0 KECCAK256 SLOAD PUSH2 0x935 SWAP2 SWAP1 PUSH2 0x2E35 JUMP JUMPDEST GT ISZERO DUP1 PUSH2 0x944 JUMPI POP PUSH1 0x5 PUSH1 0xA SLOAD EQ JUMPDEST PUSH2 0x983 JUMPI PUSH1 0x40 MLOAD PUSH32 0x8C379A000000000000000000000000000000000000000000000000000000000 DUP2 MSTORE PUSH1 0x4 ADD PUSH2 0x97A SWAP1 PUSH2 0x2B1D JUMP JUMPDEST PUSH1 0x40 MLOAD DUP1 SWAP2 SUB SWAP1 REVERT JUMPDEST PUSH1 0x9 PUSH1 0x0 SWAP1 SLOAD SWAP1 PUSH2 0x100 EXP SWAP1 DIV PUSH20 0xFFFFFFFFFFFFFFFFFFFFFFFFFFFFFFFFFFFFFFFF AND PUSH20 0xFFFFFFFFFFFFFFFFFFFFFFFFFFFFFFFFFFFFFFFF AND CALLER PUSH20 0xFFFFFFFFFFFFFFFFFFFFFFFFFFFFFFFFFFFFFFFF AND EQ PUSH2 0xA13 JUMPI PUSH1 0x40 MLOAD PUSH32 0x8C379A000000000000000000000000000000000000000000000000000000000 DUP2 MSTORE PUSH1 0x4 ADD PUSH2 0xA0A SWAP1 PUSH2 0x2BFD JUMP JUMPDEST PUSH1 0x40 MLOAD DUP1 SWAP2 SUB SWAP1 REVERT JUMPDEST PUSH2 0xA1F DUP8 DUP8 DUP8 DUP8 PUSH2 0x14B1 JUMP JUMPDEST PUSH2 0xA28 DUP9 PUSH2 0x161C JUMP JUMPDEST PUSH32 0x8402C88D698726176545B89DBF2EE4A57DC117CF1E546E43AD37C8F22D3D4DD9 DUP9 DUP9 PUSH1 0xA SLOAD PUSH1 0x40 MLOAD PUSH2 0xA5D SWAP4 SWAP3 SWAP2 SWAP1 PUSH2 0x2A1C JUMP JUMPDEST PUSH1 0x40 MLOAD DUP1 SWAP2 SUB SWAP1 LOG1 POP POP POP POP POP POP POP POP JUMP JUMPDEST CALLER PUSH20 0xFFFFFFFFFFFFFFFFFFFFFFFFFFFFFFFFFFFFFFFF AND PUSH2 0xA8E PUSH2 0xC0B JUMP JUMPDEST PUSH20 0xFFFFFFFFFFFFFFFFFFFFFFFFFFFFFFFFFFFFFFFF AND EQ PUSH2 0xAE4 JUMPI PUSH1 0x40 MLOAD PUSH32 0x8C379A000000000000000000000000000000000000000000000000000000000 DUP2 MSTORE PUSH1 0x4 ADD PUSH2 0xADB SWAP1 PUSH2 0x2B7D JUMP JUMPDEST PUSH1 0x40 MLOAD DUP1 SWAP2 SUB SWAP1 REVERT JUMPDEST PUSH2 0xAEE PUSH1 0x0 PUSH2 0xF7A JUMP JUMPDEST JUMP JUMPDEST CALLER PUSH20 0x6A0E62776530D9F9B73463F20E34D0F9FE5FEED1 PUSH20 0xFFFFFFFFFFFFFFFFFFFFFFFFFFFFFFFFFFFFFFFF AND DUP2 PUSH20 0xFFFFFFFFFFFFFFFFFFFFFFFFFFFFFFFFFFFFFFFF AND EQ PUSH2 0xB73 JUMPI PUSH1 0x40 MLOAD PUSH32 0x8C379A000000000000000000000000000000000000000000000000000000000 DUP2 MSTORE PUSH1 0x4 ADD PUSH2 0xB6A SWAP1 PUSH2 0x2B5D JUMP JUMPDEST PUSH1 0x40 MLOAD DUP1 SWAP2 SUB SWAP1 REVERT JUMPDEST PUSH2 0xB80 DUP7 DUP7 DUP7 DUP7 DUP7 PUSH2 0x1663 JUMP JUMPDEST POP POP POP POP POP POP JUMP JUMPDEST CALLER PUSH20 0xFFFFFFFFFFFFFFFFFFFFFFFFFFFFFFFFFFFFFFFF AND PUSH2 0xBA7 PUSH2 0xC0B JUMP JUMPDEST PUSH20 0xFFFFFFFFFFFFFFFFFFFFFFFFFFFFFFFFFFFFFFFF AND EQ PUSH2 0xBFD JUMPI PUSH1 0x40 MLOAD PUSH32 0x8C379A000000000000000000000000000000000000000000000000000000000 DUP2 MSTORE PUSH1 0x4 ADD PUSH2 0xBF4 SWAP1 PUSH2 0x2B7D JUMP JUMPDEST PUSH1 0x40 MLOAD DUP1 SWAP2 SUB SWAP1 REVERT JUMPDEST PUSH2 0xC07 DUP3 DUP3 PUSH2 0x1133 JUMP JUMPDEST POP POP JUMP JUMPDEST PUSH1 0x0 DUP1 PUSH1 0x0 SWAP1 SLOAD SWAP1 PUSH2 0x100 EXP SWAP1 DIV PUSH20 0xFFFFFFFFFFFFFFFFFFFFFFFFFFFFFFFFFFFFFFFF AND SWAP1 POP SWAP1 JUMP JUMPDEST PUSH1 0x0 PUSH1 0x6 PUSH1 0x0 DUP4 PUSH20 0xFFFFFFFFFFFFFFFFFFFFFFFFFFFFFFFFFFFFFFFF AND PUSH20 0xFFFFFFFFFFFFFFFFFFFFFFFFFFFFFFFFFFFFFFFF AND DUP2 MSTORE PUSH1 0x20 ADD SWAP1 DUP2 MSTORE PUSH1 0x20 ADD PUSH1 0x0 KECCAK256 SLOAD SWAP1 POP SWAP2 SWAP1 POP JUMP JUMPDEST DUP4 MLOAD DUP6 MLOAD EQ ISZERO DUP1 PUSH2 0xC90 JUMPI POP DUP3 MLOAD DUP6 MLOAD EQ ISZERO JUMPDEST DUP1 PUSH2 0xC9D JUMPI POP DUP1 MLOAD DUP6 MLOAD EQ ISZERO JUMPDEST ISZERO PUSH2 0xCD4 JUMPI PUSH1 0x40 MLOAD PUSH32 0x263EEE8D00000000000000000000000000000000000000000000000000000000 DUP2 MSTORE PUSH1 0x4 ADD PUSH1 0x40 MLOAD DUP1 SWAP2 SUB SWAP1 REVERT JUMPDEST PUSH1 0x0 JUMPDEST DUP6 MLOAD DUP2 LT ISZERO PUSH2 0xD68 JUMPI PUSH2 0xD55 DUP7 DUP3 DUP2 MLOAD DUP2 LT PUSH2 0xCF6 JUMPI PUSH2 0xCF5 PUSH2 0x30B7 JUMP JUMPDEST JUMPDEST PUSH1 0x20 MUL PUSH1 0x20 ADD ADD MLOAD DUP7 DUP4 DUP2 MLOAD DUP2 LT PUSH2 0xD11 JUMPI PUSH2 0xD10 PUSH2 0x30B7 JUMP JUMPDEST JUMPDEST PUSH1 0x20 MUL PUSH1 0x20 ADD ADD MLOAD DUP7 DUP5 DUP2 MLOAD DUP2 LT PUSH2 0xD2C JUMPI PUSH2 0xD2B PUSH2 0x30B7 JUMP JUMPDEST JUMPDEST PUSH1 0x20 MUL PUSH1 0x20 ADD ADD MLOAD DUP7 DUP7 DUP7 DUP2 MLOAD DUP2 LT PUSH2 0xD48 JUMPI PUSH2 0xD47 PUSH2 0x30B7 JUMP JUMPDEST JUMPDEST PUSH1 0x20 MUL PUSH1 0x20 ADD ADD MLOAD PUSH2 0xAF0 JUMP JUMPDEST DUP1 DUP1 PUSH2 0xD60 SWAP1 PUSH2 0x2FE2 JUMP JUMPDEST SWAP2 POP POP PUSH2 0xCD7 JUMP JUMPDEST POP POP POP POP POP POP JUMP JUMPDEST PUSH1 0x0 DUP3 PUSH20 0xFFFFFFFFFFFFFFFFFFFFFFFFFFFFFFFFFFFFFFFF AND DUP3 PUSH20 0xFFFFFFFFFFFFFFFFFFFFFFFFFFFFFFFFFFFFFFFF AND EQ ISZERO PUSH2 0xDED JUMPI PUSH1 0x4 PUSH1 0x0 DUP4 PUSH20 0xFFFFFFFFFFFFFFFFFFFFFFFFFFFFFFFFFFFFFFFF AND PUSH20 0xFFFFFFFFFFFFFFFFFFFFFFFFFFFFFFFFFFFFFFFF AND DUP2 MSTORE PUSH1 0x20 ADD SWAP1 DUP2 MSTORE PUSH1 0x20 ADD PUSH1 0x0 KECCAK256 SLOAD SWAP1 POP PUSH2 0xE6D JUMP JUMPDEST PUSH1 0x5 PUSH1 0x0 DUP4 PUSH20 0xFFFFFFFFFFFFFFFFFFFFFFFFFFFFFFFFFFFFFFFF AND PUSH20 0xFFFFFFFFFFFFFFFFFFFFFFFFFFFFFFFFFFFFFFFF AND DUP2 MSTORE PUSH1 0x20 ADD SWAP1 DUP2 MSTORE PUSH1 0x20 ADD PUSH1 0x0 KECCAK256 PUSH1 0x0 DUP5 PUSH20 0xFFFFFFFFFFFFFFFFFFFFFFFFFFFFFFFFFFFFFFFF AND PUSH20 0xFFFFFFFFFFFFFFFFFFFFFFFFFFFFFFFFFFFFFFFF AND DUP2 MSTORE PUSH1 0x20 ADD SWAP1 DUP2 MSTORE PUSH1 0x20 ADD PUSH1 0x0 KECCAK256 SLOAD SWAP1 POP JUMPDEST SWAP3 SWAP2 POP POP JUMP JUMPDEST CALLER PUSH20 0xFFFFFFFFFFFFFFFFFFFFFFFFFFFFFFFFFFFFFFFF AND PUSH2 0xE92 PUSH2 0xC0B JUMP JUMPDEST PUSH20 0xFFFFFFFFFFFFFFFFFFFFFFFFFFFFFFFFFFFFFFFF AND EQ PUSH2 0xEE8 JUMPI PUSH1 0x40 MLOAD PUSH32 0x8C379A000000000000000000000000000000000000000000000000000000000 DUP2 MSTORE PUSH1 0x4 ADD PUSH2 0xEDF SWAP1 PUSH2 0x2B7D JUMP JUMPDEST PUSH1 0x40 MLOAD DUP1 SWAP2 SUB SWAP1 REVERT JUMPDEST PUSH1 0x0 PUSH20 0xFFFFFFFFFFFFFFFFFFFFFFFFFFFFFFFFFFFFFFFF AND DUP2 PUSH20 0xFFFFFFFFFFFFFFFFFFFFFFFFFFFFFFFFFFFFFFFF AND EQ ISZERO PUSH2 0xF58 JUMPI PUSH1 0x40 MLOAD PUSH32 0x8C379A000000000000000000000000000000000000000000000000000000000 DUP2 MSTORE PUSH1 0x4 ADD PUSH2 0xF4F SWAP1 PUSH2 0x2AFD JUMP JUMPDEST PUSH1 0x40 MLOAD DUP1 SWAP2 SUB SWAP1 REVERT JUMPDEST PUSH2 0xF61 DUP2 PUSH2 0xF7A JUMP JUMPDEST POP JUMP JUMPDEST PUSH2 0xF77 PUSH2 0xF6F PUSH2 0x121A JUMP JUMPDEST DUP3 PUSH1 0x0 PUSH2 0x1222 JUMP JUMPDEST POP JUMP JUMPDEST PUSH2 0xF82 PUSH2 0xC0B JUMP JUMPDEST PUSH20 0xFFFFFFFFFFFFFFFFFFFFFFFFFFFFFFFFFFFFFFFF AND DUP2 PUSH20 0xFFFFFFFFFFFFFFFFFFFFFFFFFFFFFFFFFFFFFFFF AND EQ PUSH2 0x1076 JUMPI PUSH1 0x0 DUP1 PUSH1 0x0 SWAP1 SLOAD SWAP1 PUSH2 0x100 EXP SWAP1 DIV PUSH20 0xFFFFFFFFFFFFFFFFFFFFFFFFFFFFFFFFFFFFFFFF AND SWAP1 POP DUP2 PUSH1 0x0 DUP1 PUSH2 0x100 EXP DUP2 SLOAD DUP2 PUSH20 0xFFFFFFFFFFFFFFFFFFFFFFFFFFFFFFFFFFFFFFFF MUL NOT AND SWAP1 DUP4 PUSH20 0xFFFFFFFFFFFFFFFFFFFFFFFFFFFFFFFFFFFFFFFF AND MUL OR SWAP1 SSTORE POP DUP2 PUSH20 0xFFFFFFFFFFFFFFFFFFFFFFFFFFFFFFFFFFFFFFFF AND DUP2 PUSH20 0xFFFFFFFFFFFFFFFFFFFFFFFFFFFFFFFFFFFFFFFF AND PUSH32 0x8BE0079C531659141344CD1FD0A4F28419497F9722A3DAAFE3B4186F6B6457E0 PUSH1 0x40 MLOAD PUSH1 0x40 MLOAD DUP1 SWAP2 SUB SWAP1 LOG3 POP JUMPDEST POP JUMP JUMPDEST DUP1 PUSH1 0x1 PUSH1 0x0 DUP5 DUP2 MSTORE PUSH1 0x20 ADD SWAP1 DUP2 MSTORE PUSH1 0x20 ADD PUSH1 0x0 KECCAK256 SWAP1 DUP1 MLOAD SWAP1 PUSH1 0x20 ADD SWAP1 PUSH2 0x10A0 SWAP3 SWAP2 SWAP1 PUSH2 0x1DCB JUMP JUMPDEST POP DUP2 PUSH32 0xCDF4E344C0D23D4CDD0474039D176C55B19D531070DBE17856BFB993A5B5720B PUSH1 0x40 MLOAD PUSH1 0x40 MLOAD DUP1 SWAP2 SUB SWAP1 LOG2 POP POP JUMP JUMPDEST PUSH1 0x0 PUSH4 0x714DF77C PUSH1 0xE0 SHL PUSH28 0xFFFFFFFFFFFFFFFFFFFFFFFFFFFFFFFFFFFFFFFFFFFFFFFFFFFFFFFF NOT AND DUP3 PUSH28 0xFFFFFFFFFFFFFFFFFFFFFFFFFFFFFFFFFFFFFFFFFFFFFFFFFFFFFFFF NOT AND EQ DUP1 PUSH2 0x112C JUMPI POP PUSH2 0x112B DUP3 PUSH2 0x18F3 JUMP JUMPDEST JUMPDEST SWAP1 POP SWAP2 SWAP1 POP JUMP JUMPDEST PUSH32 0xDEBA1E292F8BA88238E10AB3C7F88BD4BE4FAC56CAD5194B6ECCEAF653468AF1 PUSH1 0x0 SHL DUP3 EQ ISZERO PUSH2 0x1199 JUMPI PUSH1 0x40 MLOAD PUSH32 0x8C379A000000000000000000000000000000000000000000000000000000000 DUP2 MSTORE PUSH1 0x4 ADD PUSH2 0x1190 SWAP1 PUSH2 0x2B9D JUMP JUMPDEST PUSH1 0x40 MLOAD DUP1 SWAP2 SUB SWAP1 REVERT JUMPDEST PUSH32 0x2F0A68AB07768E01943A599E73362A0E17A63A72E94DD2E384D2C1D4DB932756 PUSH1 0x0 SHL DUP3 EQ ISZERO PUSH2 0x11FF JUMPI PUSH1 0x40 MLOAD PUSH32 0x8C379A000000000000000000000000000000000000000000000000000000000 DUP2 MSTORE PUSH1 0x4 ADD PUSH2 0x11F6 SWAP1 PUSH2 0x2B3D JUMP JUMPDEST PUSH1 0x40 MLOAD DUP1 SWAP2 SUB SWAP1 REVERT JUMPDEST PUSH2 0x1209 DUP3 DUP3 PUSH2 0x1079 JUMP JUMPDEST POP POP JUMP JUMPDEST PUSH1 0x0 PUSH1 0x1 DUP3 ADD SWAP1 POP SWAP2 SWAP1 POP JUMP JUMPDEST PUSH1 0x0 CALLER SWAP1 POP SWAP1 JUMP JUMPDEST PUSH1 0x0 PUSH20 0xFFFFFFFFFFFFFFFFFFFFFFFFFFFFFFFFFFFFFFFF AND DUP3 PUSH20 0xFFFFFFFFFFFFFFFFFFFFFFFFFFFFFFFFFFFFFFFF AND EQ ISZERO PUSH2 0x1289 JUMPI PUSH1 0x40 MLOAD PUSH32 0x6355E76600000000000000000000000000000000000000000000000000000000 DUP2 MSTORE PUSH1 0x4 ADD PUSH1 0x40 MLOAD DUP1 SWAP2 SUB SWAP1 REVERT JUMPDEST DUP3 PUSH20 0xFFFFFFFFFFFFFFFFFFFFFFFFFFFFFFFFFFFFFFFF AND DUP3 PUSH20 0xFFFFFFFFFFFFFFFFFFFFFFFFFFFFFFFFFFFFFFFF AND EQ ISZERO PUSH2 0x12C2 JUMPI PUSH2 0x1407 JUMP JUMPDEST DUP1 PUSH1 0x5 PUSH1 0x0 DUP6 PUSH20 0xFFFFFFFFFFFFFFFFFFFFFFFFFFFFFFFFFFFFFFFF AND PUSH20 0xFFFFFFFFFFFFFFFFFFFFFFFFFFFFFFFFFFFFFFFF AND DUP2 MSTORE PUSH1 0x20 ADD SWAP1 DUP2 MSTORE PUSH1 0x20 ADD PUSH1 0x0 KECCAK256 PUSH1 0x0 DUP5 PUSH20 0xFFFFFFFFFFFFFFFFFFFFFFFFFFFFFFFFFFFFFFFF AND PUSH20 0xFFFFFFFFFFFFFFFFFFFFFFFFFFFFFFFFFFFFFFFF AND DUP2 MSTORE PUSH1 0x20 ADD SWAP1 DUP2 MSTORE PUSH1 0x20 ADD PUSH1 0x0 KECCAK256 DUP2 SWAP1 SSTORE POP PUSH1 0x0 DUP2 EQ PUSH2 0x13AB JUMPI DUP1 DUP4 PUSH20 0xFFFFFFFFFFFFFFFFFFFFFFFFFFFFFFFFFFFFFFFF AND DUP4 PUSH20 0xFFFFFFFFFFFFFFFFFFFFFFFFFFFFFFFFFFFFFFFF AND PUSH32 0xD66AFF874162A96578E919097B6F6D153DFD89A5CEC41BB331FDB0C4AEC16E2C PUSH1 0x40 MLOAD PUSH1 0x40 MLOAD DUP1 SWAP2 SUB SWAP1 LOG4 PUSH2 0x1406 JUMP JUMPDEST DUP3 PUSH20 0xFFFFFFFFFFFFFFFFFFFFFFFFFFFFFFFFFFFFFFFF AND DUP3 PUSH20 0xFFFFFFFFFFFFFFFFFFFFFFFFFFFFFFFFFFFFFFFF AND PUSH32 0x50546E66E5F44D728365DC3908C63BC5CFEEAB470722C1677E3073A6AC294AA1 PUSH1 0x40 MLOAD PUSH1 0x40 MLOAD DUP1 SWAP2 SUB SWAP1 LOG3 JUMPDEST JUMPDEST POP POP POP JUMP JUMPDEST PUSH1 0x60 PUSH1 0x1 PUSH1 0x0 DUP4 DUP2 MSTORE PUSH1 0x20 ADD SWAP1 DUP2 MSTORE PUSH1 0x20 ADD PUSH1 0x0 KECCAK256 DUP1 SLOAD PUSH2 0x142C SWAP1 PUSH2 0x2F7F JUMP JUMPDEST DUP1 PUSH1 0x1F ADD PUSH1 0x20 DUP1 SWAP2 DIV MUL PUSH1 0x20 ADD PUSH1 0x40 MLOAD SWAP1 DUP2 ADD PUSH1 0x40 MSTORE DUP1 SWAP3 SWAP2 SWAP1 DUP2 DUP2 MSTORE PUSH1 0x20 ADD DUP3 DUP1 SLOAD PUSH2 0x1458 SWAP1 PUSH2 0x2F7F JUMP JUMPDEST DUP1 ISZERO PUSH2 0x14A5 JUMPI DUP1 PUSH1 0x1F LT PUSH2 0x147A JUMPI PUSH2 0x100 DUP1 DUP4 SLOAD DIV MUL DUP4 MSTORE SWAP2 PUSH1 0x20 ADD SWAP2 PUSH2 0x14A5 JUMP JUMPDEST DUP3 ADD SWAP2 SWAP1 PUSH1 0x0 MSTORE PUSH1 0x20 PUSH1 0x0 KECCAK256 SWAP1 JUMPDEST DUP2 SLOAD DUP2 MSTORE SWAP1 PUSH1 0x1 ADD SWAP1 PUSH1 0x20 ADD DUP1 DUP4 GT PUSH2 0x1488 JUMPI DUP3 SWAP1 SUB PUSH1 0x1F AND DUP3 ADD SWAP2 JUMPDEST POP POP POP POP POP SWAP1 POP SWAP2 SWAP1 POP JUMP JUMPDEST PUSH1 0x0 PUSH20 0xFFFFFFFFFFFFFFFFFFFFFFFFFFFFFFFFFFFFFFFF AND DUP5 PUSH20 0xFFFFFFFFFFFFFFFFFFFFFFFFFFFFFFFFFFFFFFFF AND EQ ISZERO PUSH2 0x1518 JUMPI PUSH1 0x40 MLOAD PUSH32 0xD2D5EC3000000000000000000000000000000000000000000000000000000000 DUP2 MSTORE PUSH1 0x4 ADD PUSH1 0x40 MLOAD DUP1 SWAP2 SUB SWAP1 REVERT JUMPDEST PUSH1 0x0 PUSH2 0x1522 PUSH2 0x121A JUMP JUMPDEST SWAP1 POP PUSH2 0x1530 PUSH1 0x0 DUP7 DUP7 PUSH2 0x195D JUMP JUMPDEST DUP4 PUSH1 0x4 PUSH1 0x0 DUP8 PUSH20 0xFFFFFFFFFFFFFFFFFFFFFFFFFFFFFFFFFFFFFFFF AND PUSH20 0xFFFFFFFFFFFFFFFFFFFFFFFFFFFFFFFFFFFFFFFF AND DUP2 MSTORE PUSH1 0x20 ADD SWAP1 DUP2 MSTORE PUSH1 0x20 ADD PUSH1 0x0 KECCAK256 PUSH1 0x0 DUP3 DUP3 SLOAD PUSH2 0x157F SWAP2 SWAP1 PUSH2 0x2E35 JUMP JUMPDEST SWAP3 POP POP DUP2 SWAP1 SSTORE POP DUP5 PUSH20 0xFFFFFFFFFFFFFFFFFFFFFFFFFFFFFFFFFFFFFFFF AND PUSH1 0x0 PUSH20 0xFFFFFFFFFFFFFFFFFFFFFFFFFFFFFFFFFFFFFFFF AND DUP3 PUSH20 0xFFFFFFFFFFFFFFFFFFFFFFFFFFFFFFFFFFFFFFFF AND PUSH32 0x3997E418D2CEF0B3B0E907B1E39605C3F7D32DBD061E82EA5B4A770D46A160A6 DUP8 DUP8 DUP8 PUSH1 0x40 MLOAD PUSH2 0x15FF SWAP4 SWAP3 SWAP2 SWAP1 PUSH2 0x2C6F JUMP JUMPDEST PUSH1 0x40 MLOAD DUP1 SWAP2 SUB SWAP1 LOG4 PUSH2 0x1615 PUSH1 0x0 DUP7 DUP7 DUP7 DUP7 PUSH2 0x1A00 JUMP JUMPDEST POP POP POP POP POP JUMP JUMPDEST TIMESTAMP PUSH1 0x6 PUSH1 0x0 DUP4 PUSH20 0xFFFFFFFFFFFFFFFFFFFFFFFFFFFFFFFFFFFFFFFF AND PUSH20 0xFFFFFFFFFFFFFFFFFFFFFFFFFFFFFFFFFFFFFFFF AND DUP2 MSTORE PUSH1 0x20 ADD SWAP1 DUP2 MSTORE PUSH1 0x20 ADD PUSH1 0x0 KECCAK256 DUP2 SWAP1 SSTORE POP POP JUMP JUMPDEST PUSH1 0x0 PUSH20 0xFFFFFFFFFFFFFFFFFFFFFFFFFFFFFFFFFFFFFFFF AND DUP6 PUSH20 0xFFFFFFFFFFFFFFFFFFFFFFFFFFFFFFFFFFFFFFFF AND EQ DUP1 PUSH2 0x16CA JUMPI POP PUSH1 0x0 PUSH20 0xFFFFFFFFFFFFFFFFFFFFFFFFFFFFFFFFFFFFFFFF AND DUP5 PUSH20 0xFFFFFFFFFFFFFFFFFFFFFFFFFFFFFFFFFFFFFFFF AND EQ JUMPDEST ISZERO PUSH2 0x1701 JUMPI PUSH1 0x40 MLOAD PUSH32 0xD2D5EC3000000000000000000000000000000000000000000000000000000000 DUP2 MSTORE PUSH1 0x4 ADD PUSH1 0x40 MLOAD DUP1 SWAP2 SUB SWAP1 REVERT JUMPDEST PUSH1 0x0 PUSH1 0x4 PUSH1 0x0 DUP8 PUSH20 0xFFFFFFFFFFFFFFFFFFFFFFFFFFFFFFFFFFFFFFFF AND PUSH20 0xFFFFFFFFFFFFFFFFFFFFFFFFFFFFFFFFFFFFFFFF AND DUP2 MSTORE PUSH1 0x20 ADD SWAP1 DUP2 MSTORE PUSH1 0x20 ADD PUSH1 0x0 KECCAK256 SLOAD SWAP1 POP DUP1 DUP5 GT ISZERO PUSH2 0x178E JUMPI DUP1 DUP7 DUP6 PUSH1 0x40 MLOAD PUSH32 0x8D4794900000000000000000000000000000000000000000000000000000000 DUP2 MSTORE PUSH1 0x4 ADD PUSH2 0x1785 SWAP4 SWAP3 SWAP2 SWAP1 PUSH2 0x2C38 JUMP JUMPDEST PUSH1 0x40 MLOAD DUP1 SWAP2 SUB SWAP1 REVERT JUMPDEST PUSH1 0x0 PUSH2 0x1798 PUSH2 0x121A JUMP JUMPDEST SWAP1 POP PUSH2 0x17A5 DUP8 DUP8 DUP8 PUSH2 0x195D JUMP JUMPDEST DUP5 PUSH1 0x4 PUSH1 0x0 DUP10 PUSH20 0xFFFFFFFFFFFFFFFFFFFFFFFFFFFFFFFFFFFFFFFF AND PUSH20 0xFFFFFFFFFFFFFFFFFFFFFFFFFFFFFFFFFFFFFFFF AND DUP2 MSTORE PUSH1 0x20 ADD SWAP1 DUP2 MSTORE PUSH1 0x20 ADD PUSH1 0x0 KECCAK256 PUSH1 0x0 DUP3 DUP3 SLOAD PUSH2 0x17F4 SWAP2 SWAP1 PUSH2 0x2E8B JUMP JUMPDEST SWAP3 POP POP DUP2 SWAP1 SSTORE POP DUP5 PUSH1 0x4 PUSH1 0x0 DUP9 PUSH20 0xFFFFFFFFFFFFFFFFFFFFFFFFFFFFFFFFFFFFFFFF AND PUSH20 0xFFFFFFFFFFFFFFFFFFFFFFFFFFFFFFFFFFFFFFFF AND DUP2 MSTORE PUSH1 0x20 ADD SWAP1 DUP2 MSTORE PUSH1 0x20 ADD PUSH1 0x0 KECCAK256 PUSH1 0x0 DUP3 DUP3 SLOAD PUSH2 0x184A SWAP2 SWAP1 PUSH2 0x2E35 JUMP JUMPDEST SWAP3 POP POP DUP2 SWAP1 SSTORE POP DUP6 PUSH20 0xFFFFFFFFFFFFFFFFFFFFFFFFFFFFFFFFFFFFFFFF AND DUP8 PUSH20 0xFFFFFFFFFFFFFFFFFFFFFFFFFFFFFFFFFFFFFFFF AND DUP3 PUSH20 0xFFFFFFFFFFFFFFFFFFFFFFFFFFFFFFFFFFFFFFFF AND PUSH32 0x3997E418D2CEF0B3B0E907B1E39605C3F7D32DBD061E82EA5B4A770D46A160A6 DUP9 DUP9 DUP9 PUSH1 0x40 MLOAD PUSH2 0x18C9 SWAP4 SWAP3 SWAP2 SWAP1 PUSH2 0x2C6F JUMP JUMPDEST PUSH1 0x40 MLOAD DUP1 SWAP2 SUB SWAP1 LOG4 PUSH2 0x18DD DUP8 DUP8 DUP8 DUP7 PUSH2 0x1BA2 JUMP JUMPDEST PUSH2 0x18EA DUP8 DUP8 DUP8 DUP8 DUP8 PUSH2 0x1A00 JUMP JUMPDEST POP POP POP POP POP POP POP JUMP JUMPDEST PUSH1 0x0 PUSH32 0x1FFC9A700000000000000000000000000000000000000000000000000000000 PUSH28 0xFFFFFFFFFFFFFFFFFFFFFFFFFFFFFFFFFFFFFFFFFFFFFFFFFFFFFFFF NOT AND DUP3 PUSH28 0xFFFFFFFFFFFFFFFFFFFFFFFFFFFFFFFFFFFFFFFFFFFFFFFFFFFFFFFF NOT AND EQ SWAP1 POP SWAP2 SWAP1 POP JUMP JUMPDEST PUSH1 0x0 PUSH20 0xFFFFFFFFFFFFFFFFFFFFFFFFFFFFFFFFFFFFFFFF AND DUP4 PUSH20 0xFFFFFFFFFFFFFFFFFFFFFFFFFFFFFFFFFFFFFFFF AND EQ ISZERO PUSH2 0x19AC JUMPI DUP1 PUSH1 0x3 PUSH1 0x0 DUP3 DUP3 SLOAD PUSH2 0x19A4 SWAP2 SWAP1 PUSH2 0x2E35 JUMP JUMPDEST SWAP3 POP POP DUP2 SWAP1 SSTORE POP JUMPDEST PUSH1 0x0 PUSH20 0xFFFFFFFFFFFFFFFFFFFFFFFFFFFFFFFFFFFFFFFF AND DUP3 PUSH20 0xFFFFFFFFFFFFFFFFFFFFFFFFFFFFFFFFFFFFFFFF AND EQ ISZERO PUSH2 0x19FB JUMPI DUP1 PUSH1 0x3 PUSH1 0x0 DUP3 DUP3 SLOAD PUSH2 0x19F3 SWAP2 SWAP1 PUSH2 0x2E8B JUMP JUMPDEST SWAP3 POP POP DUP2 SWAP1 SSTORE POP JUMPDEST POP POP POP JUMP JUMPDEST PUSH2 0x1A11 DUP5 PUSH4 0x6BB56A14 PUSH1 0xE0 SHL PUSH2 0x1CA0 JUMP JUMPDEST ISZERO PUSH2 0x1AFC JUMPI PUSH1 0x0 DUP6 DUP6 DUP6 DUP5 PUSH1 0x40 MLOAD PUSH1 0x20 ADD PUSH2 0x1A2F SWAP5 SWAP4 SWAP3 SWAP2 SWAP1 PUSH2 0x29A0 JUMP JUMPDEST PUSH1 0x40 MLOAD PUSH1 0x20 DUP2 DUP4 SUB SUB DUP2 MSTORE SWAP1 PUSH1 0x40 MSTORE SWAP1 POP DUP5 PUSH20 0xFFFFFFFFFFFFFFFFFFFFFFFFFFFFFFFFFFFFFFFF AND PUSH4 0x6BB56A14 PUSH32 0xDBE2C314E1AEE2970C72666F2EBE8933A8575263EA71E5FF6A9178E95D47A26F PUSH1 0x0 SHL DUP4 PUSH1 0x40 MLOAD DUP4 PUSH4 0xFFFFFFFF AND PUSH1 0xE0 SHL DUP2 MSTORE PUSH1 0x4 ADD PUSH2 0x1A9E SWAP3 SWAP2 SWAP1 PUSH2 0x2A90 JUMP JUMPDEST PUSH1 0x0 PUSH1 0x40 MLOAD DUP1 DUP4 SUB DUP2 PUSH1 0x0 DUP8 DUP1 EXTCODESIZE ISZERO DUP1 ISZERO PUSH2 0x1AB8 JUMPI PUSH1 0x0 DUP1 REVERT JUMPDEST POP GAS CALL ISZERO DUP1 ISZERO PUSH2 0x1ACC JUMPI RETURNDATASIZE PUSH1 0x0 DUP1 RETURNDATACOPY RETURNDATASIZE PUSH1 0x0 REVERT JUMPDEST POP POP POP POP PUSH1 0x40 MLOAD RETURNDATASIZE PUSH1 0x0 DUP3 RETURNDATACOPY RETURNDATASIZE PUSH1 0x1F NOT PUSH1 0x1F DUP3 ADD AND DUP3 ADD DUP1 PUSH1 0x40 MSTORE POP DUP2 ADD SWAP1 PUSH2 0x1AF5 SWAP2 SWAP1 PUSH2 0x264A JUMP JUMPDEST POP POP PUSH2 0x1B9B JUMP JUMPDEST DUP2 PUSH2 0x1B9A JUMPI PUSH1 0x0 DUP5 PUSH20 0xFFFFFFFFFFFFFFFFFFFFFFFFFFFFFFFFFFFFFFFF AND EXTCODESIZE EQ PUSH2 0x1B5D JUMPI DUP4 PUSH1 0x40 MLOAD PUSH32 0xA608FBB600000000000000000000000000000000000000000000000000000000 DUP2 MSTORE PUSH1 0x4 ADD PUSH2 0x1B54 SWAP2 SWAP1 PUSH2 0x2A01 JUMP JUMPDEST PUSH1 0x40 MLOAD DUP1 SWAP2 SUB SWAP1 REVERT JUMPDEST DUP4 PUSH1 0x40 MLOAD PUSH32 0x26C247F400000000000000000000000000000000000000000000000000000000 DUP2 MSTORE PUSH1 0x4 ADD PUSH2 0x1B91 SWAP2 SWAP1 PUSH2 0x2A01 JUMP JUMPDEST PUSH1 0x40 MLOAD DUP1 SWAP2 SUB SWAP1 REVERT JUMPDEST JUMPDEST POP POP POP POP POP JUMP JUMPDEST PUSH2 0x1BB3 DUP5 PUSH4 0x6BB56A14 PUSH1 0xE0 SHL PUSH2 0x1CA0 JUMP JUMPDEST ISZERO PUSH2 0x1C9A JUMPI PUSH1 0x0 DUP5 DUP5 DUP5 DUP5 PUSH1 0x40 MLOAD PUSH1 0x20 ADD PUSH2 0x1BD1 SWAP5 SWAP4 SWAP3 SWAP2 SWAP1 PUSH2 0x29A0 JUMP JUMPDEST PUSH1 0x40 MLOAD PUSH1 0x20 DUP2 DUP4 SUB SUB DUP2 MSTORE SWAP1 PUSH1 0x40 MSTORE SWAP1 POP DUP5 PUSH20 0xFFFFFFFFFFFFFFFFFFFFFFFFFFFFFFFFFFFFFFFF AND PUSH4 0x6BB56A14 PUSH32 0x40B8BEC57D7B5FF0DBD9E9ACD0A47DFEB0101E1A203766F5CCAB00445FBF39E9 PUSH1 0x0 SHL DUP4 PUSH1 0x40 MLOAD DUP4 PUSH4 0xFFFFFFFF AND PUSH1 0xE0 SHL DUP2 MSTORE PUSH1 0x4 ADD PUSH2 0x1C40 SWAP3 SWAP2 SWAP1 PUSH2 0x2A90 JUMP JUMPDEST PUSH1 0x0 PUSH1 0x40 MLOAD DUP1 DUP4 SUB DUP2 PUSH1 0x0 DUP8 DUP1 EXTCODESIZE ISZERO DUP1 ISZERO PUSH2 0x1C5A JUMPI PUSH1 0x0 DUP1 REVERT JUMPDEST POP GAS CALL ISZERO DUP1 ISZERO PUSH2 0x1C6E JUMPI RETURNDATASIZE PUSH1 0x0 DUP1 RETURNDATACOPY RETURNDATASIZE PUSH1 0x0 REVERT JUMPDEST POP POP POP POP PUSH1 0x40 MLOAD RETURNDATASIZE PUSH1 0x0 DUP3 RETURNDATACOPY RETURNDATASIZE PUSH1 0x1F NOT PUSH1 0x1F DUP3 ADD AND DUP3 ADD DUP1 PUSH1 0x40 MSTORE POP DUP2 ADD SWAP1 PUSH2 0x1C97 SWAP2 SWAP1 PUSH2 0x264A JUMP JUMPDEST POP POP JUMPDEST POP POP POP POP JUMP JUMPDEST PUSH1 0x0 DUP1 PUSH4 0x1FFC9A7 PUSH1 0xE0 SHL DUP4 PUSH1 0x40 MLOAD PUSH1 0x24 ADD PUSH2 0x1CBC SWAP2 SWAP1 PUSH2 0x2AC0 JUMP JUMPDEST PUSH1 0x40 MLOAD PUSH1 0x20 DUP2 DUP4 SUB SUB DUP2 MSTORE SWAP1 PUSH1 0x40 MSTORE SWAP1 PUSH28 0xFFFFFFFFFFFFFFFFFFFFFFFFFFFFFFFFFFFFFFFFFFFFFFFFFFFFFFFF NOT AND PUSH1 0x20 DUP3 ADD DUP1 MLOAD PUSH28 0xFFFFFFFFFFFFFFFFFFFFFFFFFFFFFFFFFFFFFFFFFFFFFFFFFFFFFFFF DUP4 DUP2 DUP4 AND OR DUP4 MSTORE POP POP POP POP SWAP1 POP PUSH1 0x0 DUP1 DUP6 PUSH20 0xFFFFFFFFFFFFFFFFFFFFFFFFFFFFFFFFFFFFFFFF AND PUSH2 0x7530 DUP5 PUSH1 0x40 MLOAD PUSH2 0x1D46 SWAP2 SWAP1 PUSH2 0x29EA JUMP JUMPDEST PUSH1 0x0 PUSH1 0x40 MLOAD DUP1 DUP4 SUB DUP2 DUP7 DUP7 STATICCALL SWAP3 POP POP POP RETURNDATASIZE DUP1 PUSH1 0x0 DUP2 EQ PUSH2 0x1D82 JUMPI PUSH1 0x40 MLOAD SWAP2 POP PUSH1 0x1F NOT PUSH1 0x3F RETURNDATASIZE ADD AND DUP3 ADD PUSH1 0x40 MSTORE RETURNDATASIZE DUP3 MSTORE RETURNDATASIZE PUSH1 0x0 PUSH1 0x20 DUP5 ADD RETURNDATACOPY PUSH2 0x1D87 JUMP JUMPDEST PUSH1 0x60 SWAP2 POP JUMPDEST POP SWAP2 POP SWAP2 POP PUSH1 0x20 DUP2 MLOAD LT ISZERO PUSH2 0x1DA2 JUMPI PUSH1 0x0 SWAP4 POP POP POP POP PUSH2 0x1DC5 JUMP JUMPDEST DUP2 DUP1 ISZERO PUSH2 0x1DBF JUMPI POP DUP1 DUP1 PUSH1 0x20 ADD SWAP1 MLOAD DUP2 ADD SWAP1 PUSH2 0x1DBE SWAP2 SWAP1 PUSH2 0x2567 JUMP JUMPDEST JUMPDEST SWAP4 POP POP POP POP JUMPDEST SWAP3 SWAP2 POP POP JUMP JUMPDEST DUP3 DUP1 SLOAD PUSH2 0x1DD7 SWAP1 PUSH2 0x2F7F JUMP JUMPDEST SWAP1 PUSH1 0x0 MSTORE PUSH1 0x20 PUSH1 0x0 KECCAK256 SWAP1 PUSH1 0x1F ADD PUSH1 0x20 SWAP1 DIV DUP2 ADD SWAP3 DUP3 PUSH2 0x1DF9 JUMPI PUSH1 0x0 DUP6 SSTORE PUSH2 0x1E40 JUMP JUMPDEST DUP3 PUSH1 0x1F LT PUSH2 0x1E12 JUMPI DUP1 MLOAD PUSH1 0xFF NOT AND DUP4 DUP1 ADD OR DUP6 SSTORE PUSH2 0x1E40 JUMP JUMPDEST DUP3 DUP1 ADD PUSH1 0x1 ADD DUP6 SSTORE DUP3 ISZERO PUSH2 0x1E40 JUMPI SWAP2 DUP3 ADD JUMPDEST DUP3 DUP2 GT ISZERO PUSH2 0x1E3F JUMPI DUP3 MLOAD DUP3 SSTORE SWAP2 PUSH1 0x20 ADD SWAP2 SWAP1 PUSH1 0x1 ADD SWAP1 PUSH2 0x1E24 JUMP JUMPDEST JUMPDEST POP SWAP1 POP PUSH2 0x1E4D SWAP2 SWAP1 PUSH2 0x1E51 JUMP JUMPDEST POP SWAP1 JUMP JUMPDEST JUMPDEST DUP1 DUP3 GT ISZERO PUSH2 0x1E6A JUMPI PUSH1 0x0 DUP2 PUSH1 0x0 SWAP1 SSTORE POP PUSH1 0x1 ADD PUSH2 0x1E52 JUMP JUMPDEST POP SWAP1 JUMP JUMPDEST PUSH1 0x0 PUSH2 0x1E81 PUSH2 0x1E7C DUP5 PUSH2 0x2CD2 JUMP JUMPDEST PUSH2 0x2CAD JUMP JUMPDEST SWAP1 POP DUP1 DUP4 DUP3 MSTORE PUSH1 0x20 DUP3 ADD SWAP1 POP DUP3 DUP6 PUSH1 0x20 DUP7 MUL DUP3 ADD GT ISZERO PUSH2 0x1EA4 JUMPI PUSH2 0x1EA3 PUSH2 0x311A JUMP JUMPDEST JUMPDEST PUSH1 0x0 JUMPDEST DUP6 DUP2 LT ISZERO PUSH2 0x1ED4 JUMPI DUP2 PUSH2 0x1EBA DUP9 DUP3 PUSH2 0x20D0 JUMP JUMPDEST DUP5 MSTORE PUSH1 0x20 DUP5 ADD SWAP4 POP PUSH1 0x20 DUP4 ADD SWAP3 POP POP PUSH1 0x1 DUP2 ADD SWAP1 POP PUSH2 0x1EA7 JUMP JUMPDEST POP POP POP SWAP4 SWAP3 POP POP POP JUMP JUMPDEST PUSH1 0x0 PUSH2 0x1EF1 PUSH2 0x1EEC DUP5 PUSH2 0x2CFE JUMP JUMPDEST PUSH2 0x2CAD JUMP JUMPDEST SWAP1 POP DUP1 DUP4 DUP3 MSTORE PUSH1 0x20 DUP3 ADD SWAP1 POP DUP3 DUP6 PUSH1 0x20 DUP7 MUL DUP3 ADD GT ISZERO PUSH2 0x1F14 JUMPI PUSH2 0x1F13 PUSH2 0x311A JUMP JUMPDEST JUMPDEST PUSH1 0x0 JUMPDEST DUP6 DUP2 LT ISZERO PUSH2 0x1F44 JUMPI DUP2 PUSH2 0x1F2A DUP9 DUP3 PUSH2 0x21C7 JUMP JUMPDEST DUP5 MSTORE PUSH1 0x20 DUP5 ADD SWAP4 POP PUSH1 0x20 DUP4 ADD SWAP3 POP POP PUSH1 0x1 DUP2 ADD SWAP1 POP PUSH2 0x1F17 JUMP JUMPDEST POP POP POP SWAP4 SWAP3 POP POP POP JUMP JUMPDEST PUSH1 0x0 PUSH2 0x1F61 PUSH2 0x1F5C DUP5 PUSH2 0x2D2A JUMP JUMPDEST PUSH2 0x2CAD JUMP JUMPDEST SWAP1 POP DUP1 DUP4 DUP3 MSTORE PUSH1 0x20 DUP3 ADD SWAP1 POP DUP3 DUP6 PUSH1 0x20 DUP7 MUL DUP3 ADD GT ISZERO PUSH2 0x1F84 JUMPI PUSH2 0x1F83 PUSH2 0x311A JUMP JUMPDEST JUMPDEST PUSH1 0x0 JUMPDEST DUP6 DUP2 LT ISZERO PUSH2 0x1FD2 JUMPI DUP2 CALLDATALOAD PUSH8 0xFFFFFFFFFFFFFFFF DUP2 GT ISZERO PUSH2 0x1FAA JUMPI PUSH2 0x1FA9 PUSH2 0x3115 JUMP JUMPDEST JUMPDEST DUP1 DUP7 ADD PUSH2 0x1FB7 DUP10 DUP3 PUSH2 0x21F1 JUMP JUMPDEST DUP6 MSTORE PUSH1 0x20 DUP6 ADD SWAP5 POP PUSH1 0x20 DUP5 ADD SWAP4 POP POP POP PUSH1 0x1 DUP2 ADD SWAP1 POP PUSH2 0x1F87 JUMP JUMPDEST POP POP POP SWAP4 SWAP3 POP POP POP JUMP JUMPDEST PUSH1 0x0 PUSH2 0x1FEF PUSH2 0x1FEA DUP5 PUSH2 0x2D56 JUMP JUMPDEST PUSH2 0x2CAD JUMP JUMPDEST SWAP1 POP DUP1 DUP4 DUP3 MSTORE PUSH1 0x20 DUP3 ADD SWAP1 POP DUP3 DUP6 PUSH1 0x20 DUP7 MUL DUP3 ADD GT ISZERO PUSH2 0x2012 JUMPI PUSH2 0x2011 PUSH2 0x311A JUMP JUMPDEST JUMPDEST PUSH1 0x0 JUMPDEST DUP6 DUP2 LT ISZERO PUSH2 0x2042 JUMPI DUP2 PUSH2 0x2028 DUP9 DUP3 PUSH2 0x224D JUMP JUMPDEST DUP5 MSTORE PUSH1 0x20 DUP5 ADD SWAP4 POP PUSH1 0x20 DUP4 ADD SWAP3 POP POP PUSH1 0x1 DUP2 ADD SWAP1 POP PUSH2 0x2015 JUMP JUMPDEST POP POP POP SWAP4 SWAP3 POP POP POP JUMP JUMPDEST PUSH1 0x0 PUSH2 0x205F PUSH2 0x205A DUP5 PUSH2 0x2D82 JUMP JUMPDEST PUSH2 0x2CAD JUMP JUMPDEST SWAP1 POP DUP3 DUP2 MSTORE PUSH1 0x20 DUP2 ADD DUP5 DUP5 DUP5 ADD GT ISZERO PUSH2 0x207B JUMPI PUSH2 0x207A PUSH2 0x311F JUMP JUMPDEST JUMPDEST PUSH2 0x2086 DUP5 DUP3 DUP6 PUSH2 0x2F3D JUMP JUMPDEST POP SWAP4 SWAP3 POP POP POP JUMP JUMPDEST PUSH1 0x0 PUSH2 0x20A1 PUSH2 0x209C DUP5 PUSH2 0x2D82 JUMP JUMPDEST PUSH2 0x2CAD JUMP JUMPDEST SWAP1 POP DUP3 DUP2 MSTORE PUSH1 0x20 DUP2 ADD DUP5 DUP5 DUP5 ADD GT ISZERO PUSH2 0x20BD JUMPI PUSH2 0x20BC PUSH2 0x311F JUMP JUMPDEST JUMPDEST PUSH2 0x20C8 DUP5 DUP3 DUP6 PUSH2 0x2F4C JUMP JUMPDEST POP SWAP4 SWAP3 POP POP POP JUMP JUMPDEST PUSH1 0x0 DUP2 CALLDATALOAD SWAP1 POP PUSH2 0x20DF DUP2 PUSH2 0x33ED JUMP JUMPDEST SWAP3 SWAP2 POP POP JUMP JUMPDEST PUSH1 0x0 DUP3 PUSH1 0x1F DUP4 ADD SLT PUSH2 0x20FA JUMPI PUSH2 0x20F9 PUSH2 0x3115 JUMP JUMPDEST JUMPDEST DUP2 CALLDATALOAD PUSH2 0x210A DUP5 DUP3 PUSH1 0x20 DUP7 ADD PUSH2 0x1E6E JUMP JUMPDEST SWAP2 POP POP SWAP3 SWAP2 POP POP JUMP JUMPDEST PUSH1 0x0 DUP3 PUSH1 0x1F DUP4 ADD SLT PUSH2 0x2128 JUMPI PUSH2 0x2127 PUSH2 0x3115 JUMP JUMPDEST JUMPDEST DUP2 CALLDATALOAD PUSH2 0x2138 DUP5 DUP3 PUSH1 0x20 DUP7 ADD PUSH2 0x1EDE JUMP JUMPDEST SWAP2 POP POP SWAP3 SWAP2 POP POP JUMP JUMPDEST PUSH1 0x0 DUP3 PUSH1 0x1F DUP4 ADD SLT PUSH2 0x2156 JUMPI PUSH2 0x2155 PUSH2 0x3115 JUMP JUMPDEST JUMPDEST DUP2 CALLDATALOAD PUSH2 0x2166 DUP5 DUP3 PUSH1 0x20 DUP7 ADD PUSH2 0x1F4E JUMP JUMPDEST SWAP2 POP POP SWAP3 SWAP2 POP POP JUMP JUMPDEST PUSH1 0x0 DUP3 PUSH1 0x1F DUP4 ADD SLT PUSH2 0x2184 JUMPI PUSH2 0x2183 PUSH2 0x3115 JUMP JUMPDEST JUMPDEST DUP2 CALLDATALOAD PUSH2 0x2194 DUP5 DUP3 PUSH1 0x20 DUP7 ADD PUSH2 0x1FDC JUMP JUMPDEST SWAP2 POP POP SWAP3 SWAP2 POP POP JUMP JUMPDEST PUSH1 0x0 DUP2 CALLDATALOAD SWAP1 POP PUSH2 0x21AC DUP2 PUSH2 0x3404 JUMP JUMPDEST SWAP3 SWAP2 POP POP JUMP JUMPDEST PUSH1 0x0 DUP2 MLOAD SWAP1 POP PUSH2 0x21C1 DUP2 PUSH2 0x3404 JUMP JUMPDEST SWAP3 SWAP2 POP POP JUMP JUMPDEST PUSH1 0x0 DUP2 CALLDATALOAD SWAP1 POP PUSH2 0x21D6 DUP2 PUSH2 0x341B JUMP JUMPDEST SWAP3 SWAP2 POP POP JUMP JUMPDEST PUSH1 0x0 DUP2 CALLDATALOAD SWAP1 POP PUSH2 0x21EB DUP2 PUSH2 0x3432 JUMP JUMPDEST SWAP3 SWAP2 POP POP JUMP JUMPDEST PUSH1 0x0 DUP3 PUSH1 0x1F DUP4 ADD SLT PUSH2 0x2206 JUMPI PUSH2 0x2205 PUSH2 0x3115 JUMP JUMPDEST JUMPDEST DUP2 CALLDATALOAD PUSH2 0x2216 DUP5 DUP3 PUSH1 0x20 DUP7 ADD PUSH2 0x204C JUMP JUMPDEST SWAP2 POP POP SWAP3 SWAP2 POP POP JUMP JUMPDEST PUSH1 0x0 DUP3 PUSH1 0x1F DUP4 ADD SLT PUSH2 0x2234 JUMPI PUSH2 0x2233 PUSH2 0x3115 JUMP JUMPDEST JUMPDEST DUP2 MLOAD PUSH2 0x2244 DUP5 DUP3 PUSH1 0x20 DUP7 ADD PUSH2 0x208E JUMP JUMPDEST SWAP2 POP POP SWAP3 SWAP2 POP POP JUMP JUMPDEST PUSH1 0x0 DUP2 CALLDATALOAD SWAP1 POP PUSH2 0x225C DUP2 PUSH2 0x3449 JUMP JUMPDEST SWAP3 SWAP2 POP POP JUMP JUMPDEST PUSH1 0x0 DUP2 MLOAD SWAP1 POP PUSH2 0x2271 DUP2 PUSH2 0x3449 JUMP JUMPDEST SWAP3 SWAP2 POP POP JUMP JUMPDEST PUSH1 0x0 PUSH1 0x20 DUP3 DUP5 SUB SLT ISZERO PUSH2 0x228D JUMPI PUSH2 0x228C PUSH2 0x3129 JUMP JUMPDEST JUMPDEST PUSH1 0x0 PUSH2 0x229B DUP5 DUP3 DUP6 ADD PUSH2 0x20D0 JUMP JUMPDEST SWAP2 POP POP SWAP3 SWAP2 POP POP JUMP JUMPDEST PUSH1 0x0 DUP1 PUSH1 0x40 DUP4 DUP6 SUB SLT ISZERO PUSH2 0x22BB JUMPI PUSH2 0x22BA PUSH2 0x3129 JUMP JUMPDEST JUMPDEST PUSH1 0x0 PUSH2 0x22C9 DUP6 DUP3 DUP7 ADD PUSH2 0x20D0 JUMP JUMPDEST SWAP3 POP POP PUSH1 0x20 PUSH2 0x22DA DUP6 DUP3 DUP7 ADD PUSH2 0x20D0 JUMP JUMPDEST SWAP2 POP POP SWAP3 POP SWAP3 SWAP1 POP JUMP JUMPDEST PUSH1 0x0 DUP1 PUSH1 0x0 DUP1 PUSH1 0x0 PUSH1 0xA0 DUP7 DUP9 SUB SLT ISZERO PUSH2 0x2300 JUMPI PUSH2 0x22FF PUSH2 0x3129 JUMP JUMPDEST JUMPDEST PUSH1 0x0 PUSH2 0x230E DUP9 DUP3 DUP10 ADD PUSH2 0x20D0 JUMP JUMPDEST SWAP6 POP POP PUSH1 0x20 PUSH2 0x231F DUP9 DUP3 DUP10 ADD PUSH2 0x20D0 JUMP JUMPDEST SWAP5 POP POP PUSH1 0x40 PUSH2 0x2330 DUP9 DUP3 DUP10 ADD PUSH2 0x224D JUMP JUMPDEST SWAP4 POP POP PUSH1 0x60 PUSH2 0x2341 DUP9 DUP3 DUP10 ADD PUSH2 0x219D JUMP JUMPDEST SWAP3 POP POP PUSH1 0x80 DUP7 ADD CALLDATALOAD PUSH8 0xFFFFFFFFFFFFFFFF DUP2 GT ISZERO PUSH2 0x2362 JUMPI PUSH2 0x2361 PUSH2 0x3124 JUMP JUMPDEST JUMPDEST PUSH2 0x236E DUP9 DUP3 DUP10 ADD PUSH2 0x21F1 JUMP JUMPDEST SWAP2 POP POP SWAP3 SWAP6 POP SWAP3 SWAP6 SWAP1 SWAP4 POP JUMP JUMPDEST PUSH1 0x0 DUP1 PUSH1 0x40 DUP4 DUP6 SUB SLT ISZERO PUSH2 0x2392 JUMPI PUSH2 0x2391 PUSH2 0x3129 JUMP JUMPDEST JUMPDEST PUSH1 0x0 PUSH2 0x23A0 DUP6 DUP3 DUP7 ADD PUSH2 0x20D0 JUMP JUMPDEST SWAP3 POP POP PUSH1 0x20 PUSH2 0x23B1 DUP6 DUP3 DUP7 ADD PUSH2 0x224D JUMP JUMPDEST SWAP2 POP POP SWAP3 POP SWAP3 SWAP1 POP JUMP JUMPDEST PUSH1 0x0 DUP1 PUSH1 0x0 DUP1 PUSH1 0x0 PUSH1 0xA0 DUP7 DUP9 SUB SLT ISZERO PUSH2 0x23D7 JUMPI PUSH2 0x23D6 PUSH2 0x3129 JUMP JUMPDEST JUMPDEST PUSH1 0x0 DUP7 ADD CALLDATALOAD PUSH8 0xFFFFFFFFFFFFFFFF DUP2 GT ISZERO PUSH2 0x23F5 JUMPI PUSH2 0x23F4 PUSH2 0x3124 JUMP JUMPDEST JUMPDEST PUSH2 0x2401 DUP9 DUP3 DUP10 ADD PUSH2 0x20E5 JUMP JUMPDEST SWAP6 POP POP PUSH1 0x20 DUP7 ADD CALLDATALOAD PUSH8 0xFFFFFFFFFFFFFFFF DUP2 GT ISZERO PUSH2 0x2422 JUMPI PUSH2 0x2421 PUSH2 0x3124 JUMP JUMPDEST JUMPDEST PUSH2 0x242E DUP9 DUP3 DUP10 ADD PUSH2 0x20E5 JUMP JUMPDEST SWAP5 POP POP PUSH1 0x40 DUP7 ADD CALLDATALOAD PUSH8 0xFFFFFFFFFFFFFFFF DUP2 GT ISZERO PUSH2 0x244F JUMPI PUSH2 0x244E PUSH2 0x3124 JUMP JUMPDEST JUMPDEST PUSH2 0x245B DUP9 DUP3 DUP10 ADD PUSH2 0x216F JUMP JUMPDEST SWAP4 POP POP PUSH1 0x60 PUSH2 0x246C DUP9 DUP3 DUP10 ADD PUSH2 0x219D JUMP JUMPDEST SWAP3 POP POP PUSH1 0x80 DUP7 ADD CALLDATALOAD PUSH8 0xFFFFFFFFFFFFFFFF DUP2 GT ISZERO PUSH2 0x248D JUMPI PUSH2 0x248C PUSH2 0x3124 JUMP JUMPDEST JUMPDEST PUSH2 0x2499 DUP9 DUP3 DUP10 ADD PUSH2 0x2141 JUMP JUMPDEST SWAP2 POP POP SWAP3 SWAP6 POP SWAP3 SWAP6 SWAP1 SWAP4 POP JUMP JUMPDEST PUSH1 0x0 PUSH1 0x20 DUP3 DUP5 SUB SLT ISZERO PUSH2 0x24BC JUMPI PUSH2 0x24BB PUSH2 0x3129 JUMP JUMPDEST JUMPDEST PUSH1 0x0 DUP3 ADD CALLDATALOAD PUSH8 0xFFFFFFFFFFFFFFFF DUP2 GT ISZERO PUSH2 0x24DA JUMPI PUSH2 0x24D9 PUSH2 0x3124 JUMP JUMPDEST JUMPDEST PUSH2 0x24E6 DUP5 DUP3 DUP6 ADD PUSH2 0x2113 JUMP JUMPDEST SWAP2 POP POP SWAP3 SWAP2 POP POP JUMP JUMPDEST PUSH1 0x0 DUP1 PUSH1 0x40 DUP4 DUP6 SUB SLT ISZERO PUSH2 0x2506 JUMPI PUSH2 0x2505 PUSH2 0x3129 JUMP JUMPDEST JUMPDEST PUSH1 0x0 DUP4 ADD CALLDATALOAD PUSH8 0xFFFFFFFFFFFFFFFF DUP2 GT ISZERO PUSH2 0x2524 JUMPI PUSH2 0x2523 PUSH2 0x3124 JUMP JUMPDEST JUMPDEST PUSH2 0x2530 DUP6 DUP3 DUP7 ADD PUSH2 0x2113 JUMP JUMPDEST SWAP3 POP POP PUSH1 0x20 DUP4 ADD CALLDATALOAD PUSH8 0xFFFFFFFFFFFFFFFF DUP2 GT ISZERO PUSH2 0x2551 JUMPI PUSH2 0x2550 PUSH2 0x3124 JUMP JUMPDEST JUMPDEST PUSH2 0x255D DUP6 DUP3 DUP7 ADD PUSH2 0x2141 JUMP JUMPDEST SWAP2 POP POP SWAP3 POP SWAP3 SWAP1 POP JUMP JUMPDEST PUSH1 0x0 PUSH1 0x20 DUP3 DUP5 SUB SLT ISZERO PUSH2 0x257D JUMPI PUSH2 0x257C PUSH2 0x3129 JUMP JUMPDEST JUMPDEST PUSH1 0x0 PUSH2 0x258B DUP5 DUP3 DUP6 ADD PUSH2 0x21B2 JUMP JUMPDEST SWAP2 POP POP SWAP3 SWAP2 POP POP JUMP JUMPDEST PUSH1 0x0 PUSH1 0x20 DUP3 DUP5 SUB SLT ISZERO PUSH2 0x25AA JUMPI PUSH2 0x25A9 PUSH2 0x3129 JUMP JUMPDEST JUMPDEST PUSH1 0x0 PUSH2 0x25B8 DUP5 DUP3 DUP6 ADD PUSH2 0x21C7 JUMP JUMPDEST SWAP2 POP POP SWAP3 SWAP2 POP POP JUMP JUMPDEST PUSH1 0x0 DUP1 PUSH1 0x40 DUP4 DUP6 SUB SLT ISZERO PUSH2 0x25D8 JUMPI PUSH2 0x25D7 PUSH2 0x3129 JUMP JUMPDEST JUMPDEST PUSH1 0x0 PUSH2 0x25E6 DUP6 DUP3 DUP7 ADD PUSH2 0x21C7 JUMP JUMPDEST SWAP3 POP POP PUSH1 0x20 DUP4 ADD CALLDATALOAD PUSH8 0xFFFFFFFFFFFFFFFF DUP2 GT ISZERO PUSH2 0x2607 JUMPI PUSH2 0x2606 PUSH2 0x3124 JUMP JUMPDEST JUMPDEST PUSH2 0x2613 DUP6 DUP3 DUP7 ADD PUSH2 0x21F1 JUMP JUMPDEST SWAP2 POP POP SWAP3 POP SWAP3 SWAP1 POP JUMP JUMPDEST PUSH1 0x0 PUSH1 0x20 DUP3 DUP5 SUB SLT ISZERO PUSH2 0x2633 JUMPI PUSH2 0x2632 PUSH2 0x3129 JUMP JUMPDEST JUMPDEST PUSH1 0x0 PUSH2 0x2641 DUP5 DUP3 DUP6 ADD PUSH2 0x21DC JUMP JUMPDEST SWAP2 POP POP SWAP3 SWAP2 POP POP JUMP JUMPDEST PUSH1 0x0 PUSH1 0x20 DUP3 DUP5 SUB SLT ISZERO PUSH2 0x2660 JUMPI PUSH2 0x265F PUSH2 0x3129 JUMP JUMPDEST JUMPDEST PUSH1 0x0 DUP3 ADD MLOAD PUSH8 0xFFFFFFFFFFFFFFFF DUP2 GT ISZERO PUSH2 0x267E JUMPI PUSH2 0x267D PUSH2 0x3124 JUMP JUMPDEST JUMPDEST PUSH2 0x268A DUP5 DUP3 DUP6 ADD PUSH2 0x221F JUMP JUMPDEST SWAP2 POP POP SWAP3 SWAP2 POP POP JUMP JUMPDEST PUSH1 0x0 PUSH1 0x20 DUP3 DUP5 SUB SLT ISZERO PUSH2 0x26A9 JUMPI PUSH2 0x26A8 PUSH2 0x3129 JUMP JUMPDEST JUMPDEST PUSH1 0x0 PUSH2 0x26B7 DUP5 DUP3 DUP6 ADD PUSH2 0x2262 JUMP JUMPDEST SWAP2 POP POP SWAP3 SWAP2 POP POP JUMP JUMPDEST PUSH1 0x0 PUSH2 0x26CC DUP4 DUP4 PUSH2 0x279C JUMP JUMPDEST SWAP1 POP SWAP3 SWAP2 POP POP JUMP JUMPDEST PUSH2 0x26DD DUP2 PUSH2 0x2EBF JUMP JUMPDEST DUP3 MSTORE POP POP JUMP JUMPDEST PUSH2 0x26F4 PUSH2 0x26EF DUP3 PUSH2 0x2EBF JUMP JUMPDEST PUSH2 0x302B JUMP JUMPDEST DUP3 MSTORE POP POP JUMP JUMPDEST PUSH1 0x0 PUSH2 0x2705 DUP3 PUSH2 0x2DC3 JUMP JUMPDEST PUSH2 0x270F DUP2 DUP6 PUSH2 0x2DE6 JUMP JUMPDEST SWAP4 POP DUP4 PUSH1 0x20 DUP3 MUL DUP6 ADD PUSH2 0x2721 DUP6 PUSH2 0x2DB3 JUMP JUMPDEST DUP1 PUSH1 0x0 JUMPDEST DUP6 DUP2 LT ISZERO PUSH2 0x275D JUMPI DUP5 DUP5 SUB DUP10 MSTORE DUP2 MLOAD PUSH2 0x273E DUP6 DUP3 PUSH2 0x26C0 JUMP JUMPDEST SWAP5 POP PUSH2 0x2749 DUP4 PUSH2 0x2DD9 JUMP JUMPDEST SWAP3 POP PUSH1 0x20 DUP11 ADD SWAP10 POP POP PUSH1 0x1 DUP2 ADD SWAP1 POP PUSH2 0x2725 JUMP JUMPDEST POP DUP3 SWAP8 POP DUP8 SWAP6 POP POP POP POP POP POP SWAP3 SWAP2 POP POP JUMP JUMPDEST PUSH2 0x2778 DUP2 PUSH2 0x2ED1 JUMP JUMPDEST DUP3 MSTORE POP POP JUMP JUMPDEST PUSH2 0x2787 DUP2 PUSH2 0x2EDD JUMP JUMPDEST DUP3 MSTORE POP POP JUMP JUMPDEST PUSH2 0x2796 DUP2 PUSH2 0x2EE7 JUMP JUMPDEST DUP3 MSTORE POP POP JUMP JUMPDEST PUSH1 0x0 PUSH2 0x27A7 DUP3 PUSH2 0x2DCE JUMP JUMPDEST PUSH2 0x27B1 DUP2 DUP6 PUSH2 0x2DF7 JUMP JUMPDEST SWAP4 POP PUSH2 0x27C1 DUP2 DUP6 PUSH1 0x20 DUP7 ADD PUSH2 0x2F4C JUMP JUMPDEST PUSH2 0x27CA DUP2 PUSH2 0x312E JUMP JUMPDEST DUP5 ADD SWAP2 POP POP SWAP3 SWAP2 POP POP JUMP JUMPDEST PUSH1 0x0 PUSH2 0x27E0 DUP3 PUSH2 0x2DCE JUMP JUMPDEST PUSH2 0x27EA DUP2 DUP6 PUSH2 0x2E08 JUMP JUMPDEST SWAP4 POP PUSH2 0x27FA DUP2 DUP6 PUSH1 0x20 DUP7 ADD PUSH2 0x2F4C JUMP JUMPDEST PUSH2 0x2803 DUP2 PUSH2 0x312E JUMP JUMPDEST DUP5 ADD SWAP2 POP POP SWAP3 SWAP2 POP POP JUMP JUMPDEST PUSH1 0x0 PUSH2 0x2819 DUP3 PUSH2 0x2DCE JUMP JUMPDEST PUSH2 0x2823 DUP2 DUP6 PUSH2 0x2E19 JUMP JUMPDEST SWAP4 POP PUSH2 0x2833 DUP2 DUP6 PUSH1 0x20 DUP7 ADD PUSH2 0x2F4C JUMP JUMPDEST DUP1 DUP5 ADD SWAP2 POP POP SWAP3 SWAP2 POP POP JUMP JUMPDEST PUSH1 0x0 PUSH2 0x284C PUSH1 0x26 DUP4 PUSH2 0x2E24 JUMP JUMPDEST SWAP2 POP PUSH2 0x2857 DUP3 PUSH2 0x314C JUMP JUMPDEST PUSH1 0x40 DUP3 ADD SWAP1 POP SWAP2 SWAP1 POP JUMP JUMPDEST PUSH1 0x0 PUSH2 0x286F PUSH1 0x39 DUP4 PUSH2 0x2E24 JUMP JUMPDEST SWAP2 POP PUSH2 0x287A DUP3 PUSH2 0x319B JUMP JUMPDEST PUSH1 0x40 DUP3 ADD SWAP1 POP SWAP2 SWAP1 POP JUMP JUMPDEST PUSH1 0x0 PUSH2 0x2892 PUSH1 0x2F DUP4 PUSH2 0x2E24 JUMP JUMPDEST SWAP2 POP PUSH2 0x289D DUP3 PUSH2 0x31EA JUMP JUMPDEST PUSH1 0x40 DUP3 ADD SWAP1 POP SWAP2 SWAP1 POP JUMP JUMPDEST PUSH1 0x0 PUSH2 0x28B5 PUSH1 0x27 DUP4 PUSH2 0x2E24 JUMP JUMPDEST SWAP2 POP PUSH2 0x28C0 DUP3 PUSH2 0x3239 JUMP JUMPDEST PUSH1 0x40 DUP3 ADD SWAP1 POP SWAP2 SWAP1 POP JUMP JUMPDEST PUSH1 0x0 PUSH2 0x28D8 PUSH1 0x20 DUP4 PUSH2 0x2E24 JUMP JUMPDEST SWAP2 POP PUSH2 0x28E3 DUP3 PUSH2 0x3288 JUMP JUMPDEST PUSH1 0x20 DUP3 ADD SWAP1 POP SWAP2 SWAP1 POP JUMP JUMPDEST PUSH1 0x0 PUSH2 0x28FB PUSH1 0x2D DUP4 PUSH2 0x2E24 JUMP JUMPDEST SWAP2 POP PUSH2 0x2906 DUP3 PUSH2 0x32B1 JUMP JUMPDEST PUSH1 0x40 DUP3 ADD SWAP1 POP SWAP2 SWAP1 POP JUMP JUMPDEST PUSH1 0x0 PUSH2 0x291E PUSH1 0x26 DUP4 PUSH2 0x2E24 JUMP JUMPDEST SWAP2 POP PUSH2 0x2929 DUP3 PUSH2 0x3300 JUMP JUMPDEST PUSH1 0x40 DUP3 ADD SWAP1 POP SWAP2 SWAP1 POP JUMP JUMPDEST PUSH1 0x0 PUSH2 0x2941 PUSH1 0x2A DUP4 PUSH2 0x2E24 JUMP JUMPDEST SWAP2 POP PUSH2 0x294C DUP3 PUSH2 0x334F JUMP JUMPDEST PUSH1 0x40 DUP3 ADD SWAP1 POP SWAP2 SWAP1 POP JUMP JUMPDEST PUSH1 0x0 PUSH2 0x2964 PUSH1 0x33 DUP4 PUSH2 0x2E24 JUMP JUMPDEST SWAP2 POP PUSH2 0x296F DUP3 PUSH2 0x339E JUMP JUMPDEST PUSH1 0x40 DUP3 ADD SWAP1 POP SWAP2 SWAP1 POP JUMP JUMPDEST PUSH2 0x2983 DUP2 PUSH2 0x2F33 JUMP JUMPDEST DUP3 MSTORE POP POP JUMP JUMPDEST PUSH2 0x299A PUSH2 0x2995 DUP3 PUSH2 0x2F33 JUMP JUMPDEST PUSH2 0x304F JUMP JUMPDEST DUP3 MSTORE POP POP JUMP JUMPDEST PUSH1 0x0 PUSH2 0x29AC DUP3 DUP8 PUSH2 0x26E3 JUMP JUMPDEST PUSH1 0x14 DUP3 ADD SWAP2 POP PUSH2 0x29BC DUP3 DUP7 PUSH2 0x26E3 JUMP JUMPDEST PUSH1 0x14 DUP3 ADD SWAP2 POP PUSH2 0x29CC DUP3 DUP6 PUSH2 0x2989 JUMP JUMPDEST PUSH1 0x20 DUP3 ADD SWAP2 POP PUSH2 0x29DC DUP3 DUP5 PUSH2 0x280E JUMP JUMPDEST SWAP2 POP DUP2 SWAP1 POP SWAP6 SWAP5 POP POP POP POP POP JUMP JUMPDEST PUSH1 0x0 PUSH2 0x29F6 DUP3 DUP5 PUSH2 0x280E JUMP JUMPDEST SWAP2 POP DUP2 SWAP1 POP SWAP3 SWAP2 POP POP JUMP JUMPDEST PUSH1 0x0 PUSH1 0x20 DUP3 ADD SWAP1 POP PUSH2 0x2A16 PUSH1 0x0 DUP4 ADD DUP5 PUSH2 0x26D4 JUMP JUMPDEST SWAP3 SWAP2 POP POP JUMP JUMPDEST PUSH1 0x0 PUSH1 0x60 DUP3 ADD SWAP1 POP PUSH2 0x2A31 PUSH1 0x0 DUP4 ADD DUP7 PUSH2 0x26D4 JUMP JUMPDEST PUSH2 0x2A3E PUSH1 0x20 DUP4 ADD DUP6 PUSH2 0x26D4 JUMP JUMPDEST PUSH2 0x2A4B PUSH1 0x40 DUP4 ADD DUP5 PUSH2 0x297A JUMP JUMPDEST SWAP5 SWAP4 POP POP POP POP JUMP JUMPDEST PUSH1 0x0 PUSH1 0x20 DUP3 ADD SWAP1 POP DUP2 DUP2 SUB PUSH1 0x0 DUP4 ADD MSTORE PUSH2 0x2A6D DUP2 DUP5 PUSH2 0x26FA JUMP JUMPDEST SWAP1 POP SWAP3 SWAP2 POP POP JUMP JUMPDEST PUSH1 0x0 PUSH1 0x20 DUP3 ADD SWAP1 POP PUSH2 0x2A8A PUSH1 0x0 DUP4 ADD DUP5 PUSH2 0x276F JUMP JUMPDEST SWAP3 SWAP2 POP POP JUMP JUMPDEST PUSH1 0x0 PUSH1 0x40 DUP3 ADD SWAP1 POP PUSH2 0x2AA5 PUSH1 0x0 DUP4 ADD DUP6 PUSH2 0x277E JUMP JUMPDEST DUP2 DUP2 SUB PUSH1 0x20 DUP4 ADD MSTORE PUSH2 0x2AB7 DUP2 DUP5 PUSH2 0x27D5 JUMP JUMPDEST SWAP1 POP SWAP4 SWAP3 POP POP POP JUMP JUMPDEST PUSH1 0x0 PUSH1 0x20 DUP3 ADD SWAP1 POP PUSH2 0x2AD5 PUSH1 0x0 DUP4 ADD DUP5 PUSH2 0x278D JUMP JUMPDEST SWAP3 SWAP2 POP POP JUMP JUMPDEST PUSH1 0x0 PUSH1 0x20 DUP3 ADD SWAP1 POP DUP2 DUP2 SUB PUSH1 0x0 DUP4 ADD MSTORE PUSH2 0x2AF5 DUP2 DUP5 PUSH2 0x27D5 JUMP JUMPDEST SWAP1 POP SWAP3 SWAP2 POP POP JUMP JUMPDEST PUSH1 0x0 PUSH1 0x20 DUP3 ADD SWAP1 POP DUP2 DUP2 SUB PUSH1 0x0 DUP4 ADD MSTORE PUSH2 0x2B16 DUP2 PUSH2 0x283F JUMP JUMPDEST SWAP1 POP SWAP2 SWAP1 POP JUMP JUMPDEST PUSH1 0x0 PUSH1 0x20 DUP3 ADD SWAP1 POP DUP2 DUP2 SUB PUSH1 0x0 DUP4 ADD MSTORE PUSH2 0x2B36 DUP2 PUSH2 0x2862 JUMP JUMPDEST SWAP1 POP SWAP2 SWAP1 POP JUMP JUMPDEST PUSH1 0x0 PUSH1 0x20 DUP3 ADD SWAP1 POP DUP2 DUP2 SUB PUSH1 0x0 DUP4 ADD MSTORE PUSH2 0x2B56 DUP2 PUSH2 0x2885 JUMP JUMPDEST SWAP1 POP SWAP2 SWAP1 POP JUMP JUMPDEST PUSH1 0x0 PUSH1 0x20 DUP3 ADD SWAP1 POP DUP2 DUP2 SUB PUSH1 0x0 DUP4 ADD MSTORE PUSH2 0x2B76 DUP2 PUSH2 0x28A8 JUMP JUMPDEST SWAP1 POP SWAP2 SWAP1 POP JUMP JUMPDEST PUSH1 0x0 PUSH1 0x20 DUP3 ADD SWAP1 POP DUP2 DUP2 SUB PUSH1 0x0 DUP4 ADD MSTORE PUSH2 0x2B96 DUP2 PUSH2 0x28CB JUMP JUMPDEST SWAP1 POP SWAP2 SWAP1 POP JUMP JUMPDEST PUSH1 0x0 PUSH1 0x20 DUP3 ADD SWAP1 POP DUP2 DUP2 SUB PUSH1 0x0 DUP4 ADD MSTORE PUSH2 0x2BB6 DUP2 PUSH2 0x28EE JUMP JUMPDEST SWAP1 POP SWAP2 SWAP1 POP JUMP JUMPDEST PUSH1 0x0 PUSH1 0x20 DUP3 ADD SWAP1 POP DUP2 DUP2 SUB PUSH1 0x0 DUP4 ADD MSTORE PUSH2 0x2BD6 DUP2 PUSH2 0x2911 JUMP JUMPDEST SWAP1 POP SWAP2 SWAP1 POP JUMP JUMPDEST PUSH1 0x0 PUSH1 0x20 DUP3 ADD SWAP1 POP DUP2 DUP2 SUB PUSH1 0x0 DUP4 ADD MSTORE PUSH2 0x2BF6 DUP2 PUSH2 0x2934 JUMP JUMPDEST SWAP1 POP SWAP2 SWAP1 POP JUMP JUMPDEST PUSH1 0x0 PUSH1 0x20 DUP3 ADD SWAP1 POP DUP2 DUP2 SUB PUSH1 0x0 DUP4 ADD MSTORE PUSH2 0x2C16 DUP2 PUSH2 0x2957 JUMP JUMPDEST SWAP1 POP SWAP2 SWAP1 POP JUMP JUMPDEST PUSH1 0x0 PUSH1 0x20 DUP3 ADD SWAP1 POP PUSH2 0x2C32 PUSH1 0x0 DUP4 ADD DUP5 PUSH2 0x297A JUMP JUMPDEST SWAP3 SWAP2 POP POP JUMP JUMPDEST PUSH1 0x0 PUSH1 0x60 DUP3 ADD SWAP1 POP PUSH2 0x2C4D PUSH1 0x0 DUP4 ADD DUP7 PUSH2 0x297A JUMP JUMPDEST PUSH2 0x2C5A PUSH1 0x20 DUP4 ADD DUP6 PUSH2 0x26D4 JUMP JUMPDEST PUSH2 0x2C67 PUSH1 0x40 DUP4 ADD DUP5 PUSH2 0x297A JUMP JUMPDEST SWAP5 SWAP4 POP POP POP POP JUMP JUMPDEST PUSH1 0x0 PUSH1 0x60 DUP3 ADD SWAP1 POP PUSH2 0x2C84 PUSH1 0x0 DUP4 ADD DUP7 PUSH2 0x297A JUMP JUMPDEST PUSH2 0x2C91 PUSH1 0x20 DUP4 ADD DUP6 PUSH2 0x276F JUMP JUMPDEST DUP2 DUP2 SUB PUSH1 0x40 DUP4 ADD MSTORE PUSH2 0x2CA3 DUP2 DUP5 PUSH2 0x27D5 JUMP JUMPDEST SWAP1 POP SWAP5 SWAP4 POP POP POP POP JUMP JUMPDEST PUSH1 0x0 PUSH2 0x2CB7 PUSH2 0x2CC8 JUMP JUMPDEST SWAP1 POP PUSH2 0x2CC3 DUP3 DUP3 PUSH2 0x2FB1 JUMP JUMPDEST SWAP2 SWAP1 POP JUMP JUMPDEST PUSH1 0x0 PUSH1 0x40 MLOAD SWAP1 POP SWAP1 JUMP JUMPDEST PUSH1 0x0 PUSH8 0xFFFFFFFFFFFFFFFF DUP3 GT ISZERO PUSH2 0x2CED JUMPI PUSH2 0x2CEC PUSH2 0x30E6 JUMP JUMPDEST JUMPDEST PUSH1 0x20 DUP3 MUL SWAP1 POP PUSH1 0x20 DUP2 ADD SWAP1 POP SWAP2 SWAP1 POP JUMP JUMPDEST PUSH1 0x0 PUSH8 0xFFFFFFFFFFFFFFFF DUP3 GT ISZERO PUSH2 0x2D19 JUMPI PUSH2 0x2D18 PUSH2 0x30E6 JUMP JUMPDEST JUMPDEST PUSH1 0x20 DUP3 MUL SWAP1 POP PUSH1 0x20 DUP2 ADD SWAP1 POP SWAP2 SWAP1 POP JUMP JUMPDEST PUSH1 0x0 PUSH8 0xFFFFFFFFFFFFFFFF DUP3 GT ISZERO PUSH2 0x2D45 JUMPI PUSH2 0x2D44 PUSH2 0x30E6 JUMP JUMPDEST JUMPDEST PUSH1 0x20 DUP3 MUL SWAP1 POP PUSH1 0x20 DUP2 ADD SWAP1 POP SWAP2 SWAP1 POP JUMP JUMPDEST PUSH1 0x0 PUSH8 0xFFFFFFFFFFFFFFFF DUP3 GT ISZERO PUSH2 0x2D71 JUMPI PUSH2 0x2D70 PUSH2 0x30E6 JUMP JUMPDEST JUMPDEST PUSH1 0x20 DUP3 MUL SWAP1 POP PUSH1 0x20 DUP2 ADD SWAP1 POP SWAP2 SWAP1 POP JUMP JUMPDEST PUSH1 0x0 PUSH8 0xFFFFFFFFFFFFFFFF DUP3 GT ISZERO PUSH2 0x2D9D JUMPI PUSH2 0x2D9C PUSH2 0x30E6 JUMP JUMPDEST JUMPDEST PUSH2 0x2DA6 DUP3 PUSH2 0x312E JUMP JUMPDEST SWAP1 POP PUSH1 0x20 DUP2 ADD SWAP1 POP SWAP2 SWAP1 POP JUMP JUMPDEST PUSH1 0x0 DUP2 SWAP1 POP PUSH1 0x20 DUP3 ADD SWAP1 POP SWAP2 SWAP1 POP JUMP JUMPDEST PUSH1 0x0 DUP2 MLOAD SWAP1 POP SWAP2 SWAP1 POP JUMP JUMPDEST PUSH1 0x0 DUP2 MLOAD SWAP1 POP SWAP2 SWAP1 POP JUMP JUMPDEST PUSH1 0x0 PUSH1 0x20 DUP3 ADD SWAP1 POP SWAP2 SWAP1 POP JUMP JUMPDEST PUSH1 0x0 DUP3 DUP3 MSTORE PUSH1 0x20 DUP3 ADD SWAP1 POP SWAP3 SWAP2 POP POP JUMP JUMPDEST PUSH1 0x0 DUP3 DUP3 MSTORE PUSH1 0x20 DUP3 ADD SWAP1 POP SWAP3 SWAP2 POP POP JUMP JUMPDEST PUSH1 0x0 DUP3 DUP3 MSTORE PUSH1 0x20 DUP3 ADD SWAP1 POP SWAP3 SWAP2 POP POP JUMP JUMPDEST PUSH1 0x0 DUP2 SWAP1 POP SWAP3 SWAP2 POP POP JUMP JUMPDEST PUSH1 0x0 DUP3 DUP3 MSTORE PUSH1 0x20 DUP3 ADD SWAP1 POP SWAP3 SWAP2 POP POP JUMP JUMPDEST PUSH1 0x0 PUSH2 0x2E40 DUP3 PUSH2 0x2F33 JUMP JUMPDEST SWAP2 POP PUSH2 0x2E4B DUP4 PUSH2 0x2F33 JUMP JUMPDEST SWAP3 POP DUP3 PUSH32 0xFFFFFFFFFFFFFFFFFFFFFFFFFFFFFFFFFFFFFFFFFFFFFFFFFFFFFFFFFFFFFFFF SUB DUP3 GT ISZERO PUSH2 0x2E80 JUMPI PUSH2 0x2E7F PUSH2 0x3059 JUMP JUMPDEST JUMPDEST DUP3 DUP3 ADD SWAP1 POP SWAP3 SWAP2 POP POP JUMP JUMPDEST PUSH1 0x0 PUSH2 0x2E96 DUP3 PUSH2 0x2F33 JUMP JUMPDEST SWAP2 POP PUSH2 0x2EA1 DUP4 PUSH2 0x2F33 JUMP JUMPDEST SWAP3 POP DUP3 DUP3 LT ISZERO PUSH2 0x2EB4 JUMPI PUSH2 0x2EB3 PUSH2 0x3059 JUMP JUMPDEST JUMPDEST DUP3 DUP3 SUB SWAP1 POP SWAP3 SWAP2 POP POP JUMP JUMPDEST PUSH1 0x0 PUSH2 0x2ECA DUP3 PUSH2 0x2F13 JUMP JUMPDEST SWAP1 POP SWAP2 SWAP1 POP JUMP JUMPDEST PUSH1 0x0 DUP2 ISZERO ISZERO SWAP1 POP SWAP2 SWAP1 POP JUMP JUMPDEST PUSH1 0x0 DUP2 SWAP1 POP SWAP2 SWAP1 POP JUMP JUMPDEST PUSH1 0x0 PUSH32 0xFFFFFFFF00000000000000000000000000000000000000000000000000000000 DUP3 AND SWAP1 POP SWAP2 SWAP1 POP JUMP JUMPDEST PUSH1 0x0 PUSH20 0xFFFFFFFFFFFFFFFFFFFFFFFFFFFFFFFFFFFFFFFF DUP3 AND SWAP1 POP SWAP2 SWAP1 POP JUMP JUMPDEST PUSH1 0x0 DUP2 SWAP1 POP SWAP2 SWAP1 POP JUMP JUMPDEST DUP3 DUP2 DUP4 CALLDATACOPY PUSH1 0x0 DUP4 DUP4 ADD MSTORE POP POP POP JUMP JUMPDEST PUSH1 0x0 JUMPDEST DUP4 DUP2 LT ISZERO PUSH2 0x2F6A JUMPI DUP1 DUP3 ADD MLOAD DUP2 DUP5 ADD MSTORE PUSH1 0x20 DUP2 ADD SWAP1 POP PUSH2 0x2F4F JUMP JUMPDEST DUP4 DUP2 GT ISZERO PUSH2 0x2F79 JUMPI PUSH1 0x0 DUP5 DUP5 ADD MSTORE JUMPDEST POP POP POP POP JUMP JUMPDEST PUSH1 0x0 PUSH1 0x2 DUP3 DIV SWAP1 POP PUSH1 0x1 DUP3 AND DUP1 PUSH2 0x2F97 JUMPI PUSH1 0x7F DUP3 AND SWAP2 POP JUMPDEST PUSH1 0x20 DUP3 LT DUP2 EQ ISZERO PUSH2 0x2FAB JUMPI PUSH2 0x2FAA PUSH2 0x3088 JUMP JUMPDEST JUMPDEST POP SWAP2 SWAP1 POP JUMP JUMPDEST PUSH2 0x2FBA DUP3 PUSH2 0x312E JUMP JUMPDEST DUP2 ADD DUP2 DUP2 LT PUSH8 0xFFFFFFFFFFFFFFFF DUP3 GT OR ISZERO PUSH2 0x2FD9 JUMPI PUSH2 0x2FD8 PUSH2 0x30E6 JUMP JUMPDEST JUMPDEST DUP1 PUSH1 0x40 MSTORE POP POP POP JUMP JUMPDEST PUSH1 0x0 PUSH2 0x2FED DUP3 PUSH2 0x2F33 JUMP JUMPDEST SWAP2 POP PUSH32 0xFFFFFFFFFFFFFFFFFFFFFFFFFFFFFFFFFFFFFFFFFFFFFFFFFFFFFFFFFFFFFFFF DUP3 EQ ISZERO PUSH2 0x3020 JUMPI PUSH2 0x301F PUSH2 0x3059 JUMP JUMPDEST JUMPDEST PUSH1 0x1 DUP3 ADD SWAP1 POP SWAP2 SWAP1 POP JUMP JUMPDEST PUSH1 0x0 PUSH2 0x3036 DUP3 PUSH2 0x303D JUMP JUMPDEST SWAP1 POP SWAP2 SWAP1 POP JUMP JUMPDEST PUSH1 0x0 PUSH2 0x3048 DUP3 PUSH2 0x313F JUMP JUMPDEST SWAP1 POP SWAP2 SWAP1 POP JUMP JUMPDEST PUSH1 0x0 DUP2 SWAP1 POP SWAP2 SWAP1 POP JUMP JUMPDEST PUSH32 0x4E487B7100000000000000000000000000000000000000000000000000000000 PUSH1 0x0 MSTORE PUSH1 0x11 PUSH1 0x4 MSTORE PUSH1 0x24 PUSH1 0x0 REVERT JUMPDEST PUSH32 0x4E487B7100000000000000000000000000000000000000000000000000000000 PUSH1 0x0 MSTORE PUSH1 0x22 PUSH1 0x4 MSTORE PUSH1 0x24 PUSH1 0x0 REVERT JUMPDEST PUSH32 0x4E487B7100000000000000000000000000000000000000000000000000000000 PUSH1 0x0 MSTORE PUSH1 0x32 PUSH1 0x4 MSTORE PUSH1 0x24 PUSH1 0x0 REVERT JUMPDEST PUSH32 0x4E487B7100000000000000000000000000000000000000000000000000000000 PUSH1 0x0 MSTORE PUSH1 0x41 PUSH1 0x4 MSTORE PUSH1 0x24 PUSH1 0x0 REVERT JUMPDEST PUSH1 0x0 DUP1 REVERT JUMPDEST PUSH1 0x0 DUP1 REVERT JUMPDEST PUSH1 0x0 DUP1 REVERT JUMPDEST PUSH1 0x0 DUP1 REVERT JUMPDEST PUSH1 0x0 DUP1 REVERT JUMPDEST PUSH1 0x0 PUSH1 0x1F NOT PUSH1 0x1F DUP4 ADD AND SWAP1 POP SWAP2 SWAP1 POP JUMP JUMPDEST PUSH1 0x0 DUP2 PUSH1 0x60 SHL SWAP1 POP SWAP2 SWAP1 POP JUMP JUMPDEST PUSH32 0x4F776E61626C653A206E6577206F776E657220697320746865207A65726F2061 PUSH1 0x0 DUP3 ADD MSTORE PUSH32 0x6464726573730000000000000000000000000000000000000000000000000000 PUSH1 0x20 DUP3 ADD MSTORE POP JUMP JUMPDEST PUSH32 0x556E6976657273616C2050726F66696C652068617320676976656E2061207379 PUSH1 0x0 DUP3 ADD MSTORE PUSH32 0x6D626F6C206C657373207468616E2031206461792061676F2E00000000000000 PUSH1 0x20 DUP3 ADD MSTORE POP JUMP JUMPDEST PUSH32 0x4C5350343A2063616E6E6F74206564697420546F6B656E2053796D626F6C2061 PUSH1 0x0 DUP3 ADD MSTORE PUSH32 0x66746572206465706C6F796D656E740000000000000000000000000000000000 PUSH1 0x20 DUP3 ADD MSTORE POP JUMP JUMPDEST PUSH32 0x6D73672E73656E646572206973206E6F7420746865206D756C74697369672061 PUSH1 0x0 DUP3 ADD MSTORE PUSH32 0x6464726573732E00000000000000000000000000000000000000000000000000 PUSH1 0x20 DUP3 ADD MSTORE POP JUMP JUMPDEST PUSH32 0x4F776E61626C653A2063616C6C6572206973206E6F7420746865206F776E6572 PUSH1 0x0 DUP3 ADD MSTORE POP JUMP JUMPDEST PUSH32 0x4C5350343A2063616E6E6F74206564697420546F6B656E204E616D6520616674 PUSH1 0x0 DUP3 ADD MSTORE PUSH32 0x6572206465706C6F796D656E7400000000000000000000000000000000000000 PUSH1 0x20 DUP3 ADD MSTORE POP JUMP JUMPDEST PUSH32 0x4B657973206C656E677468206E6F7420657175616C20746F2076616C75657320 PUSH1 0x0 DUP3 ADD MSTORE PUSH32 0x6C656E6774680000000000000000000000000000000000000000000000000000 PUSH1 0x20 DUP3 ADD MSTORE POP JUMP JUMPDEST PUSH32 0x556E6976657273616C2050726F66696C6520646F65736E277420686F6C642061 PUSH1 0x0 DUP3 ADD MSTORE PUSH32 0x6E7920746F6B656E732E00000000000000000000000000000000000000000000 PUSH1 0x20 DUP3 ADD MSTORE POP JUMP JUMPDEST PUSH32 0x6D73672E73656E6465722069736E7420556E6976657273616C2050726F66696C PUSH1 0x0 DUP3 ADD MSTORE PUSH32 0x652052657075746174696F6E2053797374656D00000000000000000000000000 PUSH1 0x20 DUP3 ADD MSTORE POP JUMP JUMPDEST PUSH2 0x33F6 DUP2 PUSH2 0x2EBF JUMP JUMPDEST DUP2 EQ PUSH2 0x3401 JUMPI PUSH1 0x0 DUP1 REVERT JUMPDEST POP JUMP JUMPDEST PUSH2 0x340D DUP2 PUSH2 0x2ED1 JUMP JUMPDEST DUP2 EQ PUSH2 0x3418 JUMPI PUSH1 0x0 DUP1 REVERT JUMPDEST POP JUMP JUMPDEST PUSH2 0x3424 DUP2 PUSH2 0x2EDD JUMP JUMPDEST DUP2 EQ PUSH2 0x342F JUMPI PUSH1 0x0 DUP1 REVERT JUMPDEST POP JUMP JUMPDEST PUSH2 0x343B DUP2 PUSH2 0x2EE7 JUMP JUMPDEST DUP2 EQ PUSH2 0x3446 JUMPI PUSH1 0x0 DUP1 REVERT JUMPDEST POP JUMP JUMPDEST PUSH2 0x3452 DUP2 PUSH2 0x2F33 JUMP JUMPDEST DUP2 EQ PUSH2 0x345D JUMPI PUSH1 0x0 DUP1 REVERT JUMPDEST POP JUMP INVALID LOG2 PUSH5 0x6970667358 0x22 SLT KECCAK256 PUSH9 0x2A3532CB7DB2974F65 0xB8 0xB8 PUSH24 0x4037E2D64976AD6F8764996278DF87E71120264736F6C63 NUMBER STOP ADDMOD MOD STOP CALLER "
		},
		"gasEstimates": {
			"creation": {
				"codeDepositCost": "924400",
				"executionCost": "infinite",
				"totalCost": "infinite"
			},
			"external": {
				"awardSymbol(address,address,uint256)": "infinite",
				"getNumberOfSymbolsRecieved(address,uint256)": "infinite",
				"getReactions()": "infinite"
			},
			"internal": {
				"_awardSymbol(address,address,uint256)": "infinite",
				"awardParticipationToken(address,address)": "infinite",
				"verifyController(address)": "infinite"
			}
		},
		"methodIdentifiers": {
			"awardSymbol(address,address,uint256)": "86c279a9",
			"getNumberOfSymbolsRecieved(address,uint256)": "1baac960",
			"getReactions()": "0472f418"
		}
	},
	"abi": [
		{
			"inputs": [
				{
					"internalType": "address",
					"name": "pinkPillAddress",
					"type": "address"
				},
				{
					"internalType": "address",
					"name": "greenPillAddress",
					"type": "address"
				}
			],
			"stateMutability": "nonpayable",
			"type": "constructor"
		},
		{
			"inputs": [
				{
					"internalType": "address",
					"name": "universalProfileAddress",
					"type": "address"
				},
				{
					"internalType": "address",
					"name": "awardedUniversalProfileAddress",
					"type": "address"
				},
				{
					"internalType": "uint256",
					"name": "reactionNumber",
					"type": "uint256"
				}
			],
			"name": "awardSymbol",
			"outputs": [],
			"stateMutability": "nonpayable",
			"type": "function"
		},
		{
			"inputs": [
				{
					"internalType": "address",
					"name": "universalProfileAddress",
					"type": "address"
				},
				{
					"internalType": "uint256",
					"name": "reactionNumber",
					"type": "uint256"
				}
			],
			"name": "getNumberOfSymbolsRecieved",
			"outputs": [
				{
					"internalType": "uint256",
					"name": "",
					"type": "uint256"
				}
			],
			"stateMutability": "view",
			"type": "function"
		},
		{
			"inputs": [],
			"name": "getReactions",
			"outputs": [
				{
					"internalType": "address[5]",
					"name": "",
					"type": "address[5]"
				}
			],
			"stateMutability": "view",
			"type": "function"
		}
	]
}